{
  "abi": [
    {
      "inputs": [
        {
          "internalType": "uint64",
          "name": "subscriptionId",
          "type": "uint64"
        }
      ],
      "stateMutability": "nonpayable",
      "type": "constructor"
    },
    {
      "inputs": [
        {
          "internalType": "address",
          "name": "have",
          "type": "address"
        },
        {
          "internalType": "address",
          "name": "want",
          "type": "address"
        }
      ],
      "name": "OnlyCoordinatorCanFulfill",
      "type": "error"
    },
    {
      "anonymous": false,
      "inputs": [
        {
          "indexed": true,
          "internalType": "address",
          "name": "owner",
          "type": "address"
        },
        {
          "indexed": true,
          "internalType": "address",
          "name": "approved",
          "type": "address"
        },
        {
          "indexed": true,
          "internalType": "uint256",
          "name": "tokenId",
          "type": "uint256"
        }
      ],
      "name": "Approval",
      "type": "event"
    },
    {
      "anonymous": false,
      "inputs": [
        {
          "indexed": true,
          "internalType": "address",
          "name": "owner",
          "type": "address"
        },
        {
          "indexed": true,
          "internalType": "address",
          "name": "operator",
          "type": "address"
        },
        {
          "indexed": false,
          "internalType": "bool",
          "name": "approved",
          "type": "bool"
        }
      ],
      "name": "ApprovalForAll",
      "type": "event"
    },
    {
      "anonymous": false,
      "inputs": [
        {
          "indexed": false,
          "internalType": "string",
          "name": "notification",
          "type": "string"
        }
      ],
      "name": "SpotClaimed",
      "type": "event"
    },
    {
      "anonymous": false,
      "inputs": [
        {
          "indexed": true,
          "internalType": "address",
          "name": "from",
          "type": "address"
        },
        {
          "indexed": true,
          "internalType": "address",
          "name": "to",
          "type": "address"
        },
        {
          "indexed": true,
          "internalType": "uint256",
          "name": "tokenId",
          "type": "uint256"
        }
      ],
      "name": "Transfer",
      "type": "event"
    },
    {
      "inputs": [
        {
          "internalType": "address",
          "name": "to",
          "type": "address"
        },
        {
          "internalType": "uint256",
          "name": "tokenId",
          "type": "uint256"
        }
      ],
      "name": "approve",
      "outputs": [],
      "stateMutability": "nonpayable",
      "type": "function"
    },
    {
      "inputs": [
        {
          "internalType": "address",
          "name": "owner",
          "type": "address"
        }
      ],
      "name": "balanceOf",
      "outputs": [
        {
          "internalType": "uint256",
          "name": "",
          "type": "uint256"
        }
      ],
      "stateMutability": "view",
      "type": "function"
    },
    {
      "inputs": [],
      "name": "claimYourSpot",
      "outputs": [],
      "stateMutability": "nonpayable",
      "type": "function"
    },
    {
      "inputs": [
        {
          "internalType": "uint256",
          "name": "tokenId",
          "type": "uint256"
        }
      ],
      "name": "getApproved",
      "outputs": [
        {
          "internalType": "address",
          "name": "",
          "type": "address"
        }
      ],
      "stateMutability": "view",
      "type": "function"
    },
    {
      "inputs": [],
      "name": "getSVG",
      "outputs": [
        {
          "internalType": "string",
          "name": "SVG",
          "type": "string"
        }
      ],
      "stateMutability": "view",
      "type": "function"
    },
    {
      "inputs": [],
      "name": "height",
      "outputs": [
        {
          "internalType": "uint256",
          "name": "",
          "type": "uint256"
        }
      ],
      "stateMutability": "view",
      "type": "function"
    },
    {
      "inputs": [
        {
          "internalType": "address",
          "name": "owner",
          "type": "address"
        },
        {
          "internalType": "address",
          "name": "operator",
          "type": "address"
        }
      ],
      "name": "isApprovedForAll",
      "outputs": [
        {
          "internalType": "bool",
          "name": "",
          "type": "bool"
        }
      ],
      "stateMutability": "view",
      "type": "function"
    },
    {
      "inputs": [],
      "name": "name",
      "outputs": [
        {
          "internalType": "string",
          "name": "",
          "type": "string"
        }
      ],
      "stateMutability": "view",
      "type": "function"
    },
    {
      "inputs": [
        {
          "internalType": "uint256",
          "name": "tokenId",
          "type": "uint256"
        }
      ],
      "name": "ownerOf",
      "outputs": [
        {
          "internalType": "address",
          "name": "",
          "type": "address"
        }
      ],
      "stateMutability": "view",
      "type": "function"
    },
    {
      "inputs": [
        {
          "internalType": "uint256",
          "name": "requestId",
          "type": "uint256"
        },
        {
          "internalType": "uint256[]",
          "name": "randomWords",
          "type": "uint256[]"
        }
      ],
      "name": "rawFulfillRandomWords",
      "outputs": [],
      "stateMutability": "nonpayable",
      "type": "function"
    },
    {
      "inputs": [
        {
          "internalType": "uint256",
          "name": "",
          "type": "uint256"
        }
      ],
      "name": "requestIdToAddress",
      "outputs": [
        {
          "internalType": "address",
          "name": "",
          "type": "address"
        }
      ],
      "stateMutability": "view",
      "type": "function"
    },
    {
      "inputs": [
        {
          "internalType": "uint256",
          "name": "",
          "type": "uint256"
        }
      ],
      "name": "s_randomWords",
      "outputs": [
        {
          "internalType": "uint256",
          "name": "",
          "type": "uint256"
        }
      ],
      "stateMutability": "view",
      "type": "function"
    },
    {
      "inputs": [
        {
          "internalType": "address",
          "name": "from",
          "type": "address"
        },
        {
          "internalType": "address",
          "name": "to",
          "type": "address"
        },
        {
          "internalType": "uint256",
          "name": "tokenId",
          "type": "uint256"
        }
      ],
      "name": "safeTransferFrom",
      "outputs": [],
      "stateMutability": "nonpayable",
      "type": "function"
    },
    {
      "inputs": [
        {
          "internalType": "address",
          "name": "from",
          "type": "address"
        },
        {
          "internalType": "address",
          "name": "to",
          "type": "address"
        },
        {
          "internalType": "uint256",
          "name": "tokenId",
          "type": "uint256"
        },
        {
          "internalType": "bytes",
          "name": "data",
          "type": "bytes"
        }
      ],
      "name": "safeTransferFrom",
      "outputs": [],
      "stateMutability": "nonpayable",
      "type": "function"
    },
    {
      "inputs": [
        {
          "internalType": "address",
          "name": "operator",
          "type": "address"
        },
        {
          "internalType": "bool",
          "name": "approved",
          "type": "bool"
        }
      ],
      "name": "setApprovalForAll",
      "outputs": [],
      "stateMutability": "nonpayable",
      "type": "function"
    },
    {
      "inputs": [
        {
          "internalType": "bytes4",
          "name": "interfaceId",
          "type": "bytes4"
        }
      ],
      "name": "supportsInterface",
      "outputs": [
        {
          "internalType": "bool",
          "name": "",
          "type": "bool"
        }
      ],
      "stateMutability": "view",
      "type": "function"
    },
    {
      "inputs": [],
      "name": "symbol",
      "outputs": [
        {
          "internalType": "string",
          "name": "",
          "type": "string"
        }
      ],
      "stateMutability": "view",
      "type": "function"
    },
    {
      "inputs": [
        {
          "internalType": "uint256",
          "name": "tokenId",
          "type": "uint256"
        }
      ],
      "name": "tokenURI",
      "outputs": [
        {
          "internalType": "string",
          "name": "",
          "type": "string"
        }
      ],
      "stateMutability": "view",
      "type": "function"
    },
    {
      "inputs": [
        {
          "internalType": "address",
          "name": "from",
          "type": "address"
        },
        {
          "internalType": "address",
          "name": "to",
          "type": "address"
        },
        {
          "internalType": "uint256",
          "name": "tokenId",
          "type": "uint256"
        }
      ],
      "name": "transferFrom",
      "outputs": [],
      "stateMutability": "nonpayable",
      "type": "function"
    },
    {
      "inputs": [],
      "name": "width",
      "outputs": [
        {
          "internalType": "uint256",
          "name": "",
          "type": "uint256"
        }
      ],
      "stateMutability": "view",
      "type": "function"
    }
  ],
  "bytecode": {
    "object": "0x60a060405260088054732ed832ba664535e5886b75d64c46eb9a228c26106001600160a01b03199091161790557f354d2f95da55398f44b7cff77da56283d9c6c829a4bdf1bbcaf2ad6a4d081f61600955600a80546001600160501b03191666010001000f423f179055610780600f8190556104386010556200008e9062000325602090811b6200082317901c565b620000a66010546200032560201b620008231760201c565b620000be600f546200032560201b620008231760201c565b620000d66010546200032560201b620008231760201c565b604051602001620000eb949392919062000996565b6040516020818303038152906040526012908051906020019062000111929190620007fa565b50604080518082019091526006808252651e17b9bb339f60d11b60209092019182526200014191601391620007fa565b506040805160208101918290526000908190526200016291601491620007fa565b506040805160208101918290526000908190526200018391601591620007fa565b506040805160c081018252600760808201818152661199a31aa0a1a160c91b60a0840152825282518084018452818152662345413544363560c81b6020828101919091528084019190915283518085018552828152662346304344343960c81b818301528385015283518085019094529083526611a3232323232360c91b9083015260608101919091526200021d90601690600462000889565b503480156200022b57600080fd5b5060405162002d8338038062002d838339810160408190526200024e9162000ab9565b604080518082018252601081526f536d617274436f6e32322053706f747360801b60208083019182528351808501909452600384526253435360e81b908401526008546001600160a01b03166080528151919291620002b091600091620007fa565b508051620002c6906001906020840190620007fa565b505060085460078054600d8054336001600160a01b031990911681179091556001600160a01b039093166001600160e01b031990911617600160a01b6001600160401b038616021790556200031e9150600062000442565b5062000c83565b6060816200034a5750506040805180820190915260018152600360fc1b602082015290565b8160005b81156200037a5780620003618162000b01565b9150620003729050600a8362000b35565b91506200034e565b6000816001600160401b0381111562000397576200039762000b4c565b6040519080825280601f01601f191660200182016040528015620003c2576020820181803683370190505b5090505b84156200043a57620003da60018362000b62565b9150620003e9600a8662000b7c565b620003f690603062000b93565b60f81b8183815181106200040e576200040e62000bae565b60200101906001600160f81b031916908160001a90535062000432600a8662000b35565b9450620003c6565b949350505050565b620004648282604051806020016040528060008152506200046860201b60201c565b5050565b620004748383620004e4565b62000483600084848462000693565b620004df5760405162461bcd60e51b8152602060048201526032602482015260008051602062002d6383398151915260448201527131b2b4bb32b91034b6b83632b6b2b73a32b960711b60648201526084015b60405180910390fd5b505050565b6001600160a01b0382166200053c5760405162461bcd60e51b815260206004820181905260248201527f4552433732313a206d696e7420746f20746865207a65726f20616464726573736044820152606401620004d6565b6000818152600260205260409020546001600160a01b031615620005a35760405162461bcd60e51b815260206004820152601c60248201527f4552433732313a20746f6b656e20616c7265616479206d696e746564000000006044820152606401620004d6565b6000818152600260205260409020546001600160a01b0316156200060a5760405162461bcd60e51b815260206004820152601c60248201527f4552433732313a20746f6b656e20616c7265616479206d696e746564000000006044820152606401620004d6565b6001600160a01b03821660009081526003602052604081208054600192906200063590849062000b93565b909155505060008181526002602052604080822080546001600160a01b0319166001600160a01b03861690811790915590518392907fddf252ad1be2c89b69c2b068fc378daa952ba7f163c4a11628f55a4df523b3ef908290a45050565b6000620006b4846001600160a01b0316620007eb60201b620009291760201c565b15620007e057604051630a85bd0160e11b81526001600160a01b0385169063150b7a0290620006ee90339089908890889060040162000bc4565b6020604051808303816000875af19250505080156200072c575060408051601f3d908101601f19168201909252620007299181019062000c1a565b60015b620007c5573d8080156200075d576040519150601f19603f3d011682016040523d82523d6000602084013e62000762565b606091505b508051620007bd5760405162461bcd60e51b8152602060048201526032602482015260008051602062002d6383398151915260448201527131b2b4bb32b91034b6b83632b6b2b73a32b960711b6064820152608401620004d6565b805181602001fd5b6001600160e01b031916630a85bd0160e11b1490506200043a565b506001949350505050565b6001600160a01b03163b151590565b828054620008089062000c46565b90600052602060002090601f0160209004810192826200082c576000855562000877565b82601f106200084757805160ff191683800117855562000877565b8280016001018555821562000877579182015b82811115620008775782518255916020019190600101906200085a565b5062000885929150620008e9565b5090565b828054828255906000526020600020908101928215620008db579160200282015b82811115620008db5782518051620008ca918491602090910190620007fa565b5091602001919060010190620008aa565b506200088592915062000900565b5b80821115620008855760008155600101620008ea565b808211156200088557600062000917828262000921565b5060010162000900565b5080546200092f9062000c46565b6000825580601f1062000940575050565b601f016020900490600052602060002090810190620009609190620008e9565b50565b60005b838110156200098057818101518382015260200162000966565b8381111562000990576000848401525b50505050565b7101e39bb33903b34b2bba137bc1e93981018160751b815260008551620009c5816012850160208a0162000963565b600160fd1b6012918401918201528551620009e8816013840160208a0162000963565b7f27207072657365727665417370656374526174696f3d27784d6964594d696420601392909101918201526536b2b2ba139f60d11b60338201526c3c726563742077696474683d2760981b6039820152845162000a4d81604684016020890162000963565b6927206865696768743d2760b01b60469290910191820152835162000a7a81605084016020880162000963565b62000aad6050828401017f272066696c6c3d272331413142323727202f3e00000000000000000000000000815260130190565b98975050505050505050565b60006020828403121562000acc57600080fd5b81516001600160401b038116811462000ae457600080fd5b9392505050565b634e487b7160e01b600052601160045260246000fd5b600060001982141562000b185762000b1862000aeb565b5060010190565b634e487b7160e01b600052601260045260246000fd5b60008262000b475762000b4762000b1f565b500490565b634e487b7160e01b600052604160045260246000fd5b60008282101562000b775762000b7762000aeb565b500390565b60008262000b8e5762000b8e62000b1f565b500690565b6000821982111562000ba95762000ba962000aeb565b500190565b634e487b7160e01b600052603260045260246000fd5b600060018060a01b03808716835280861660208401525083604083015260806060830152825180608084015262000c038160a085016020870162000963565b601f01601f19169190910160a00195945050505050565b60006020828403121562000c2d57600080fd5b81516001600160e01b03198116811462000ae457600080fd5b600181811c9082168062000c5b57607f821691505b6020821081141562000c7d57634e487b7160e01b600052602260045260246000fd5b50919050565b6080516120bd62000ca660003960008181610527015261056901526120bd6000f3fe608060405234801561001057600080fd5b506004361061012c5760003560e01c80636352211e116100ad578063a22cb46511610071578063a22cb4651461026e578063b88d4fde14610281578063c87b56dd14610294578063e985e9c5146102a7578063f6eaffc8146102e357600080fd5b80636352211e1461020e578063637c43201461022157806370a082311461024a57806395d89b411461025d5780639ededf771461026557600080fd5b80631fe543e3116100f45780631fe543e3146101c557806323b872dd146101d8578063301cc909146101eb57806342842e0e146101f3578063489187e81461020657600080fd5b806301ffc9a71461013157806306fdde0314610159578063081812fc1461016e578063095ea7b3146101995780630ef26743146101ae575b600080fd5b61014461013f366004611771565b6102f6565b60405190151581526020015b60405180910390f35b610161610348565b60405161015091906117e6565b61018161017c3660046117f9565b6103da565b6040516001600160a01b039091168152602001610150565b6101ac6101a736600461182e565b610401565b005b6101b760105481565b604051908152602001610150565b6101ac6101d336600461189f565b61051c565b6101ac6101e6366004611951565b6105a4565b6101ac6105d5565b6101ac610201366004611951565b610695565b6101616106b0565b61018161021c3660046117f9565b6106bf565b61018161022f3660046117f9565b600e602052600090815260409020546001600160a01b031681565b6101b761025836600461198d565b61071f565b6101616107a5565b6101b7600f5481565b6101ac61027c3660046119a8565b6107b4565b6101ac61028f3660046119e4565b6107bf565b6101616102a23660046117f9565b6107f7565b6101446102b5366004611aa4565b6001600160a01b03918216600090815260056020908152604080832093909416825291909152205460ff1690565b6101b76102f13660046117f9565b610802565b60006001600160e01b031982166380ac58cd60e01b148061032757506001600160e01b03198216635b5e139f60e01b145b8061034257506301ffc9a760e01b6001600160e01b03198316145b92915050565b60606000805461035790611ad7565b80601f016020809104026020016040519081016040528092919081815260200182805461038390611ad7565b80156103d05780601f106103a5576101008083540402835291602001916103d0565b820191906000526020600020905b8154815290600101906020018083116103b357829003601f168201915b5050505050905090565b60006103e582610938565b506000908152600460205260409020546001600160a01b031690565b600061040c826106bf565b9050806001600160a01b0316836001600160a01b0316141561047f5760405162461bcd60e51b815260206004820152602160248201527f4552433732313a20617070726f76616c20746f2063757272656e74206f776e656044820152603960f91b60648201526084015b60405180910390fd5b336001600160a01b038216148061049b575061049b81336102b5565b61050d5760405162461bcd60e51b815260206004820152603d60248201527f4552433732313a20617070726f76652063616c6c6572206973206e6f7420746f60448201527f6b656e206f776e6572206f7220617070726f76656420666f7220616c6c0000006064820152608401610476565b610517838361099a565b505050565b336001600160a01b037f000000000000000000000000000000000000000000000000000000000000000016146105965760405163073e64fd60e21b81523360048201526001600160a01b037f0000000000000000000000000000000000000000000000000000000000000000166024820152604401610476565b6105a08282610a08565b5050565b6105ae3382610a9d565b6105ca5760405162461bcd60e51b815260040161047690611b12565b610517838383610b1b565b600754600954600a546040516305d3b1d360e41b81526004810192909252600160a01b830467ffffffffffffffff166024830152640100000000810461ffff16604483015263ffffffff808216606484015266010000000000009091041660848201526001600160a01b0390911690635d3b1d309060a4016020604051808303816000875af115801561066c573d6000803e3d6000fd5b505050506040513d601f19601f820116820180604052508101906106909190611b5f565b600c55565b610517838383604051806020016040528060008152506107bf565b60606011805461035790611ad7565b6000818152600260205260408120546001600160a01b0316806103425760405162461bcd60e51b8152602060048201526018602482015277115490cdcc8c4e881a5b9d985b1a59081d1bdad95b88125160421b6044820152606401610476565b60006001600160a01b0382166107895760405162461bcd60e51b815260206004820152602960248201527f4552433732313a2061646472657373207a65726f206973206e6f7420612076616044820152683634b21037bbb732b960b91b6064820152608401610476565b506001600160a01b031660009081526003602052604090205490565b60606001805461035790611ad7565b6105a0338383610cc1565b6107c93383610a9d565b6107e55760405162461bcd60e51b815260040161047690611b12565b6107f184848484610d90565b50505050565b606061034282610dc3565b600b818154811061081257600080fd5b600091825260209091200154905081565b6060816108475750506040805180820190915260018152600360fc1b602082015290565b8160005b8115610871578061085b81611b8e565b915061086a9050600a83611bbf565b915061084b565b60008167ffffffffffffffff81111561088c5761088c611858565b6040519080825280601f01601f1916602001820160405280156108b6576020820181803683370190505b5090505b8415610921576108cb600183611bd3565b91506108d8600a86611bea565b6108e3906030611bfe565b60f81b8183815181106108f8576108f8611c16565b60200101906001600160f81b031916908160001a90535061091a600a86611bbf565b94506108ba565b949350505050565b6001600160a01b03163b151590565b6000818152600260205260409020546001600160a01b03166109975760405162461bcd60e51b8152602060048201526018602482015277115490cdcc8c4e881a5b9d985b1a59081d1bdad95b88125160421b6044820152606401610476565b50565b600081815260046020526040902080546001600160a01b0319166001600160a01b03841690811790915581906109cf826106bf565b6001600160a01b03167f8c5be1e5ebec7d5bd14f71427d1e84f3dd0314c0f7b2291e5b200ac8c7c3b92560405160405180910390a45050565b8051610a1b90600b906020840190611688565b50610a3f81600081518110610a3257610a32611c16565b6020026020010151610ecc565b7f01c8bd4e8ad3259729870d1aed76771590a5e8e803a5511f47f874a1a252f287604051610a919060208082526010908201526f13995dc814dc1bdd0810db185a5b595960821b604082015260600190565b60405180910390a15050565b600080610aa9836106bf565b9050806001600160a01b0316846001600160a01b03161480610af057506001600160a01b0380821660009081526005602090815260408083209388168352929052205460ff165b806109215750836001600160a01b0316610b09846103da565b6001600160a01b031614949350505050565b826001600160a01b0316610b2e826106bf565b6001600160a01b031614610b545760405162461bcd60e51b815260040161047690611c2c565b6001600160a01b038216610bb65760405162461bcd60e51b8152602060048201526024808201527f4552433732313a207472616e7366657220746f20746865207a65726f206164646044820152637265737360e01b6064820152608401610476565b826001600160a01b0316610bc9826106bf565b6001600160a01b031614610bef5760405162461bcd60e51b815260040161047690611c2c565b600081815260046020908152604080832080546001600160a01b03191690556001600160a01b038616835260039091528120805460019290610c32908490611bd3565b90915550506001600160a01b0382166000908152600360205260408120805460019290610c60908490611bfe565b909155505060008181526002602052604080822080546001600160a01b0319166001600160a01b0386811691821790925591518493918716917fddf252ad1be2c89b69c2b068fc378daa952ba7f163c4a11628f55a4df523b3ef91a4505050565b816001600160a01b0316836001600160a01b03161415610d235760405162461bcd60e51b815260206004820152601960248201527f4552433732313a20617070726f766520746f2063616c6c6572000000000000006044820152606401610476565b6001600160a01b03838116600081815260056020908152604080832094871680845294825291829020805460ff191686151590811790915591519182527f17307eab39ab6107e8899845ad3d59bd9653f200f220920489ca2b5937696c31910160405180910390a3505050565b610d9b848484610b1b565b610da784848484611328565b6107f15760405162461bcd60e51b815260040161047690611c71565b6060610dce82610938565b60008281526006602052604081208054610de790611ad7565b80601f0160208091040260200160405190810160405280929190818152602001828054610e1390611ad7565b8015610e605780601f10610e3557610100808354040283529160200191610e60565b820191906000526020600020905b815481529060010190602001808311610e4357829003601f168201915b505050505090506000610e7e60408051602081019091526000815290565b9050805160001415610e91575092915050565b815115610ec3578082604051602001610eab929190611cc3565b60405160208183030381529060405292505050919050565b61092184611426565b60176040518060800160405280610eef600f5485610eea9190611bea565b610823565b8152602001610f0560105485610eea9190611bea565b8152602001610f23610f18600886611bea565b610eea906002611bfe565b81526020016016610f35600486611bea565b81548110610f4557610f45611c16565b906000526020600020018054610f5a90611ad7565b80601f0160208091040260200160405190810160405280929190818152602001828054610f8690611ad7565b8015610fd35780601f10610fa857610100808354040283529160200191610fd3565b820191906000526020600020905b815481529060010190602001808311610fb657829003601f168201915b5050509190925250508154600181018355600092835260209283902082518051939460049093029091019261100b92849201906116d3565b50602082810151805161102492600185019201906116d3565b50604082015180516110409160028401916020909101906116d3565b506060820151805161105c9160038401916020909101906116d3565b505060175460011015905061117957601780546014919061107f90600290611bd3565b8154811061108f5761108f611c16565b9060005260206000209060040201600001601760026017805490506110b49190611bd3565b815481106110c4576110c4611c16565b9060005260206000209060040201600101601760026017805490506110e99190611bd3565b815481106110f9576110f9611c16565b90600052602060002090600402016002016017600260178054905061111e9190611bd3565b8154811061112e5761112e611c16565b9060005260206000209060040201600301604051602001611153959493929190611d8c565b604051602081830303815290604052601490805190602001906111779291906116d3565b505b6017805461118990600190611bd3565b8154811061119957611199611c16565b9060005260206000209060040201600001601760016017805490506111be9190611bd3565b815481106111ce576111ce611c16565b9060005260206000209060040201600101601760016017805490506111f39190611bd3565b8154811061120357611203611c16565b9060005260206000209060040201600201601760016017805490506112289190611bd3565b8154811061123857611238611c16565b906000526020600020906004020160030160405160200161125c9493929190611e22565b604051602081830303815290604052601590805190602001906112809291906116d3565b506000601260146015601360405160200161129e9493929190611ec2565b60408051601f1981840301815291905280519091506112c49060119060208401906116d3565b5060006112f76112d38361149a565b6040516020016112e39190611ef3565b60405160208183030381529060405261149a565b905060008160405160200161130c9190611fbc565b60405160208183030381529060405290506107f16000826115ee565b60006001600160a01b0384163b1561141b57604051630a85bd0160e11b81526001600160a01b0385169063150b7a029061136c903390899088908890600401612001565b6020604051808303816000875af19250505080156113a7575060408051601f3d908101601f191682019092526113a491810190612034565b60015b611401573d8080156113d5576040519150601f19603f3d011682016040523d82523d6000602084013e6113da565b606091505b5080516113f95760405162461bcd60e51b815260040161047690611c71565b805181602001fd5b6001600160e01b031916630a85bd0160e11b149050610921565b506001949350505050565b606061143182610938565b600061144860408051602081019091526000815290565b905060008151116114685760405180602001604052806000815250611493565b8061147284610823565b604051602001611483929190611cc3565b6040516020818303038152906040525b9392505050565b60608151600014156114ba57505060408051602081019091526000815290565b600060405180606001604052806040815260200161207160409139905060006003845160026114e99190611bfe565b6114f39190611bbf565b6114fe906004612051565b67ffffffffffffffff81111561151657611516611858565b6040519080825280601f01601f191660200182016040528015611540576020820181803683370190505b509050600182016020820185865187015b808210156115ac576003820191508151603f8160121c168501518453600184019350603f81600c1c168501518453600184019350603f8160061c168501518453600184019350603f8116850151845350600183019250611551565b50506003865106600181146115c857600281146115db576115e3565b603d6001830353603d60028303536115e3565b603d60018303535b509195945050505050565b6000828152600260205260409020546001600160a01b03166116695760405162461bcd60e51b815260206004820152602e60248201527f45524337323155524953746f726167653a2055524920736574206f66206e6f6e60448201526d32bc34b9ba32b73a103a37b5b2b760911b6064820152608401610476565b60008281526006602090815260409091208251610517928401906116d3565b8280548282559060005260206000209081019282156116c3579160200282015b828111156116c35782518255916020019190600101906116a8565b506116cf929150611746565b5090565b8280546116df90611ad7565b90600052602060002090601f01602090048101928261170157600085556116c3565b82601f1061171a57805160ff19168380011785556116c3565b828001600101855582156116c357918201828111156116c35782518255916020019190600101906116a8565b5b808211156116cf5760008155600101611747565b6001600160e01b03198116811461099757600080fd5b60006020828403121561178357600080fd5b81356114938161175b565b60005b838110156117a9578181015183820152602001611791565b838111156107f15750506000910152565b600081518084526117d281602086016020860161178e565b601f01601f19169290920160200192915050565b60208152600061149360208301846117ba565b60006020828403121561180b57600080fd5b5035919050565b80356001600160a01b038116811461182957600080fd5b919050565b6000806040838503121561184157600080fd5b61184a83611812565b946020939093013593505050565b634e487b7160e01b600052604160045260246000fd5b604051601f8201601f1916810167ffffffffffffffff8111828210171561189757611897611858565b604052919050565b600080604083850312156118b257600080fd5b8235915060208084013567ffffffffffffffff808211156118d257600080fd5b818601915086601f8301126118e657600080fd5b8135818111156118f8576118f8611858565b8060051b915061190984830161186e565b818152918301840191848101908984111561192357600080fd5b938501935b8385101561194157843582529385019390850190611928565b8096505050505050509250929050565b60008060006060848603121561196657600080fd5b61196f84611812565b925061197d60208501611812565b9150604084013590509250925092565b60006020828403121561199f57600080fd5b61149382611812565b600080604083850312156119bb57600080fd5b6119c483611812565b9150602083013580151581146119d957600080fd5b809150509250929050565b600080600080608085870312156119fa57600080fd5b611a0385611812565b93506020611a12818701611812565b935060408601359250606086013567ffffffffffffffff80821115611a3657600080fd5b818801915088601f830112611a4a57600080fd5b813581811115611a5c57611a5c611858565b611a6e601f8201601f1916850161186e565b91508082528984828501011115611a8457600080fd5b808484018584013760008482840101525080935050505092959194509250565b60008060408385031215611ab757600080fd5b611ac083611812565b9150611ace60208401611812565b90509250929050565b600181811c90821680611aeb57607f821691505b60208210811415611b0c57634e487b7160e01b600052602260045260246000fd5b50919050565b6020808252602d908201527f4552433732313a2063616c6c6572206973206e6f7420746f6b656e206f776e6560408201526c1c881bdc88185c1c1c9bdd9959609a1b606082015260800190565b600060208284031215611b7157600080fd5b5051919050565b634e487b7160e01b600052601160045260246000fd5b6000600019821415611ba257611ba2611b78565b5060010190565b634e487b7160e01b600052601260045260246000fd5b600082611bce57611bce611ba9565b500490565b600082821015611be557611be5611b78565b500390565b600082611bf957611bf9611ba9565b500690565b60008219821115611c1157611c11611b78565b500190565b634e487b7160e01b600052603260045260246000fd5b60208082526025908201527f4552433732313a207472616e736665722066726f6d20696e636f72726563742060408201526437bbb732b960d91b606082015260800190565b60208082526032908201527f4552433732313a207472616e7366657220746f206e6f6e20455243373231526560408201527131b2b4bb32b91034b6b83632b6b2b73a32b960711b606082015260800190565b60008351611cd581846020880161178e565b835190830190611ce981836020880161178e565b01949350505050565b8054600090600181811c9080831680611d0c57607f831692505b6020808410821415611d2e57634e487b7160e01b600052602260045260246000fd5b818015611d425760018114611d5357611d80565b60ff19861689528489019650611d80565b60008881526020902060005b86811015611d785781548b820152908501908301611d5f565b505084890196505b50505050505092915050565b6000611d988288611cf2565b6b3c636972636c652063783d2760a01b8152611db7600c820188611cf2565b905065272063793d2760d01b8152611dd26006820187611cf2565b9050642720723d2760d81b8152611dec6005820186611cf2565b905067272066696c6c3d2760c01b8152611e096008820185611cf2565b631390179f60e11b815260040198975050505050505050565b6b3c636972636c652063783d2760a01b81526000611e43600c830187611cf2565b65272063793d2760d01b8152611e5c6006820187611cf2565b90506e2720636c6173733d2770756c73652760881b81526320723d2760e01b600f820152611e8d6013820186611cf2565b905067272066696c6c3d2760c01b8152611eaa6008820185611cf2565b631390179f60e11b8152600401979650505050505050565b6000611ee9611ee3611edd611ed7858a611cf2565b88611cf2565b86611cf2565b84611cf2565b9695505050505050565b741ec89b985b59488e880890dbdb185888139195088b605a1b81527f226465736372697074696f6e223a2022416c6c207468652073706f74732c207260158201527f616e646f6d6c79207069636b65642c20627920594f5521222c0000000000000060358201527f22696d616765223a2022646174613a696d6167652f7376672b786d6c3b626173604e82015263194d8d0b60e21b606e8201528151600090611fa381607285016020870161178e565b61227d60f01b6072939091019283015250607401919050565b7f646174613a6170706c69636174696f6e2f6a736f6e3b6261736536342c000000815260008251611ff481601d85016020870161178e565b91909101601d0192915050565b6001600160a01b0385811682528416602082015260408101839052608060608201819052600090611ee9908301846117ba565b60006020828403121561204657600080fd5b81516114938161175b565b600081600019048311821515161561206b5761206b611b78565b50029056fe4142434445464748494a4b4c4d4e4f505152535455565758595a6162636465666768696a6b6c6d6e6f707172737475767778797a303132333435363738392b2fa164736f6c634300080a000a4552433732313a207472616e7366657220746f206e6f6e204552433732315265",
    "linkReferences": {}
  }
}