{
  "abi": [
    {
      "inputs": [
        {
          "internalType": "uint64",
          "name": "subscriptionId",
          "type": "uint64"
        }
      ],
      "stateMutability": "nonpayable",
      "type": "constructor"
    },
    {
      "inputs": [
        {
          "internalType": "address",
          "name": "have",
          "type": "address"
        },
        {
          "internalType": "address",
          "name": "want",
          "type": "address"
        }
      ],
      "name": "OnlyCoordinatorCanFulfill",
      "type": "error"
    },
    {
      "anonymous": false,
      "inputs": [
        {
          "indexed": true,
          "internalType": "address",
          "name": "owner",
          "type": "address"
        },
        {
          "indexed": true,
          "internalType": "address",
          "name": "approved",
          "type": "address"
        },
        {
          "indexed": true,
          "internalType": "uint256",
          "name": "tokenId",
          "type": "uint256"
        }
      ],
      "name": "Approval",
      "type": "event"
    },
    {
      "anonymous": false,
      "inputs": [
        {
          "indexed": true,
          "internalType": "address",
          "name": "owner",
          "type": "address"
        },
        {
          "indexed": true,
          "internalType": "address",
          "name": "operator",
          "type": "address"
        },
        {
          "indexed": false,
          "internalType": "bool",
          "name": "approved",
          "type": "bool"
        }
      ],
      "name": "ApprovalForAll",
      "type": "event"
    },
    {
      "anonymous": false,
      "inputs": [
        {
          "indexed": false,
          "internalType": "string",
          "name": "notification",
          "type": "string"
        }
      ],
      "name": "SpotClaimed",
      "type": "event"
    },
    {
      "anonymous": false,
      "inputs": [
        {
          "indexed": true,
          "internalType": "address",
          "name": "from",
          "type": "address"
        },
        {
          "indexed": true,
          "internalType": "address",
          "name": "to",
          "type": "address"
        },
        {
          "indexed": true,
          "internalType": "uint256",
          "name": "tokenId",
          "type": "uint256"
        }
      ],
      "name": "Transfer",
      "type": "event"
    },
    {
      "inputs": [
        {
          "internalType": "address",
          "name": "to",
          "type": "address"
        },
        {
          "internalType": "uint256",
          "name": "tokenId",
          "type": "uint256"
        }
      ],
      "name": "approve",
      "outputs": [],
      "stateMutability": "nonpayable",
      "type": "function"
    },
    {
      "inputs": [
        {
          "internalType": "address",
          "name": "owner",
          "type": "address"
        }
      ],
      "name": "balanceOf",
      "outputs": [
        {
          "internalType": "uint256",
          "name": "",
          "type": "uint256"
        }
      ],
      "stateMutability": "view",
      "type": "function"
    },
    {
      "inputs": [
        {
          "internalType": "uint256",
          "name": "_val",
          "type": "uint256"
        },
        {
          "internalType": "uint256",
          "name": "_val2",
          "type": "uint256"
        }
      ],
      "name": "callRandomWords",
      "outputs": [],
      "stateMutability": "nonpayable",
      "type": "function"
    },
    {
      "inputs": [],
      "name": "claimYourSpot",
      "outputs": [],
      "stateMutability": "nonpayable",
      "type": "function"
    },
    {
      "inputs": [
        {
          "internalType": "uint256",
          "name": "tokenId",
          "type": "uint256"
        }
      ],
      "name": "getApproved",
      "outputs": [
        {
          "internalType": "address",
          "name": "",
          "type": "address"
        }
      ],
      "stateMutability": "view",
      "type": "function"
    },
    {
      "inputs": [],
      "name": "getSVG",
      "outputs": [
        {
          "internalType": "string",
          "name": "SVG",
          "type": "string"
        }
      ],
      "stateMutability": "view",
      "type": "function"
    },
    {
      "inputs": [],
      "name": "height",
      "outputs": [
        {
          "internalType": "uint256",
          "name": "",
          "type": "uint256"
        }
      ],
      "stateMutability": "view",
      "type": "function"
    },
    {
      "inputs": [
        {
          "internalType": "address",
          "name": "owner",
          "type": "address"
        },
        {
          "internalType": "address",
          "name": "operator",
          "type": "address"
        }
      ],
      "name": "isApprovedForAll",
      "outputs": [
        {
          "internalType": "bool",
          "name": "",
          "type": "bool"
        }
      ],
      "stateMutability": "view",
      "type": "function"
    },
    {
      "inputs": [],
      "name": "name",
      "outputs": [
        {
          "internalType": "string",
          "name": "",
          "type": "string"
        }
      ],
      "stateMutability": "view",
      "type": "function"
    },
    {
      "inputs": [
        {
          "internalType": "uint256",
          "name": "tokenId",
          "type": "uint256"
        }
      ],
      "name": "ownerOf",
      "outputs": [
        {
          "internalType": "address",
          "name": "",
          "type": "address"
        }
      ],
      "stateMutability": "view",
      "type": "function"
    },
    {
      "inputs": [
        {
          "internalType": "uint256",
          "name": "requestId",
          "type": "uint256"
        },
        {
          "internalType": "uint256[]",
          "name": "randomWords",
          "type": "uint256[]"
        }
      ],
      "name": "rawFulfillRandomWords",
      "outputs": [],
      "stateMutability": "nonpayable",
      "type": "function"
    },
    {
      "inputs": [
        {
          "internalType": "uint256",
          "name": "",
          "type": "uint256"
        }
      ],
      "name": "requestIdToAddress",
      "outputs": [
        {
          "internalType": "address",
          "name": "",
          "type": "address"
        }
      ],
      "stateMutability": "view",
      "type": "function"
    },
    {
      "inputs": [
        {
          "internalType": "uint256",
          "name": "",
          "type": "uint256"
        }
      ],
      "name": "s_randomWords",
      "outputs": [
        {
          "internalType": "uint256",
          "name": "",
          "type": "uint256"
        }
      ],
      "stateMutability": "view",
      "type": "function"
    },
    {
      "inputs": [
        {
          "internalType": "address",
          "name": "from",
          "type": "address"
        },
        {
          "internalType": "address",
          "name": "to",
          "type": "address"
        },
        {
          "internalType": "uint256",
          "name": "tokenId",
          "type": "uint256"
        }
      ],
      "name": "safeTransferFrom",
      "outputs": [],
      "stateMutability": "nonpayable",
      "type": "function"
    },
    {
      "inputs": [
        {
          "internalType": "address",
          "name": "from",
          "type": "address"
        },
        {
          "internalType": "address",
          "name": "to",
          "type": "address"
        },
        {
          "internalType": "uint256",
          "name": "tokenId",
          "type": "uint256"
        },
        {
          "internalType": "bytes",
          "name": "data",
          "type": "bytes"
        }
      ],
      "name": "safeTransferFrom",
      "outputs": [],
      "stateMutability": "nonpayable",
      "type": "function"
    },
    {
      "inputs": [
        {
          "internalType": "address",
          "name": "operator",
          "type": "address"
        },
        {
          "internalType": "bool",
          "name": "approved",
          "type": "bool"
        }
      ],
      "name": "setApprovalForAll",
      "outputs": [],
      "stateMutability": "nonpayable",
      "type": "function"
    },
    {
      "inputs": [
        {
          "internalType": "bytes4",
          "name": "interfaceId",
          "type": "bytes4"
        }
      ],
      "name": "supportsInterface",
      "outputs": [
        {
          "internalType": "bool",
          "name": "",
          "type": "bool"
        }
      ],
      "stateMutability": "view",
      "type": "function"
    },
    {
      "inputs": [],
      "name": "symbol",
      "outputs": [
        {
          "internalType": "string",
          "name": "",
          "type": "string"
        }
      ],
      "stateMutability": "view",
      "type": "function"
    },
    {
      "inputs": [
        {
          "internalType": "uint256",
          "name": "tokenId",
          "type": "uint256"
        }
      ],
      "name": "tokenURI",
      "outputs": [
        {
          "internalType": "string",
          "name": "",
          "type": "string"
        }
      ],
      "stateMutability": "view",
      "type": "function"
    },
    {
      "inputs": [
        {
          "internalType": "address",
          "name": "from",
          "type": "address"
        },
        {
          "internalType": "address",
          "name": "to",
          "type": "address"
        },
        {
          "internalType": "uint256",
          "name": "tokenId",
          "type": "uint256"
        }
      ],
      "name": "transferFrom",
      "outputs": [],
      "stateMutability": "nonpayable",
      "type": "function"
    },
    {
      "inputs": [],
      "name": "width",
      "outputs": [
        {
          "internalType": "uint256",
          "name": "",
          "type": "uint256"
        }
      ],
      "stateMutability": "view",
      "type": "function"
    }
  ],
  "bytecode": {
    "object": "0x60a060405260088054732ca8e0c643bde4c2e08ab1fa0da3401adad7734d6001600160a01b03199091161790557f79d3d8832d904592c0bf9818b621522c988bb8b0c05cdc3b15aea1b6e8db0c15600955600a80546001600160501b03191666020003000f423f179055610780600f8190556104386010556200008e90620003d2602090811b6200096e17901c565b620000a6601054620003d260201b6200096e1760201c565b620000be600f54620003d260201b6200096e1760201c565b620000d6601054620003d260201b6200096e1760201c565b604051602001620000eb949392919062000c64565b604051602081830303815290604052601290805190602001906200011192919062000aaa565b50604080518082019091526006808252651e17b9bb339f60d11b6020909201918252620001419160139162000aaa565b50604080516020810191829052600090819052620001629160149162000aaa565b50604080516020810191829052600090819052620001839160159162000aaa565b506040805160a081018252600760608201818152661199999b1b232360c91b6080840152825282518084018452818152662330304646393360c81b60208281019190915280840191909152835180850185529182526611a3232323232360c91b9082015291810191909152620001fe90601690600362000b39565b503480156200020c57600080fd5b5060405162003297380380620032978339810160408190526200022f9162000db0565b604080518082018252601081526f536d617274436f6e32322053706f747360801b60208083019182528351808501909452600384526253435360e81b908401526008546001600160a01b03166080528151919291620002919160009162000aaa565b508051620002a790600190602084019062000aaa565b505060085460078054600d8054336001600160a01b031990911681179091556001600160a01b039093166001600160e01b031990911617600160a01b6001600160401b03861602179055620002ff91506000620004ef565b60006012601460136040516020016200031b9392919062000ec1565b60408051601f1981840301815291905280519091506200034390601190602084019062000aaa565b5060006200039262000360836200051560201b62000a741760201c565b60405160200162000372919062000eee565b6040516020818303038152906040526200051560201b62000a741760201c565b9050600081604051602001620003a9919062000fcb565b60408051601f198184030181529190529050620003c86000826200067a565b505050506200118f565b606081620003f75750506040805180820190915260018152600360fc1b602082015290565b8160005b81156200042757806200040e8162001028565b91506200041f9050600a836200105c565b9150620003fb565b6000816001600160401b0381111562000444576200044462001073565b6040519080825280601f01601f1916602001820160405280156200046f576020820181803683370190505b5090505b8415620004e7576200048760018362001089565b915062000496600a86620010a3565b620004a3906030620010ba565b60f81b818381518110620004bb57620004bb620010d5565b60200101906001600160f81b031916908160001a905350620004df600a866200105c565b945062000473565b949350505050565b620005118282604051806020016040528060008152506200072160201b60201c565b5050565b60608151600014156200053657505060408051602081019091526000815290565b6000604051806060016040528060408152602001620032576040913990506000600384516002620005689190620010ba565b6200057491906200105c565b62000581906004620010eb565b6001600160401b038111156200059b576200059b62001073565b6040519080825280601f01601f191660200182016040528015620005c6576020820181803683370190505b509050600182016020820185865187015b8082101562000634576003820191508151603f8160121c168501518453600184019350603f81600c1c168501518453600184019350603f8160061c168501518453600184019350603f8116850151845350600183019250620005d7565b505060038651066001811462000653576002811462000667576200066f565b603d6001830353603d60028303536200066f565b603d60018303535b509195945050505050565b6000828152600260205260409020546001600160a01b0316620006fb5760405162461bcd60e51b815260206004820152602e60248201527f45524337323155524953746f726167653a2055524920736574206f66206e6f6e60448201526d32bc34b9ba32b73a103a37b5b2b760911b60648201526084015b60405180910390fd5b600082815260066020908152604090912082516200071c9284019062000aaa565b505050565b6200072d838362000794565b6200073c600084848462000943565b6200071c5760405162461bcd60e51b815260206004820152603260248201526000805160206200323783398151915260448201527131b2b4bb32b91034b6b83632b6b2b73a32b960711b6064820152608401620006f2565b6001600160a01b038216620007ec5760405162461bcd60e51b815260206004820181905260248201527f4552433732313a206d696e7420746f20746865207a65726f20616464726573736044820152606401620006f2565b6000818152600260205260409020546001600160a01b031615620008535760405162461bcd60e51b815260206004820152601c60248201527f4552433732313a20746f6b656e20616c7265616479206d696e746564000000006044820152606401620006f2565b6000818152600260205260409020546001600160a01b031615620008ba5760405162461bcd60e51b815260206004820152601c60248201527f4552433732313a20746f6b656e20616c7265616479206d696e746564000000006044820152606401620006f2565b6001600160a01b0382166000908152600360205260408120805460019290620008e5908490620010ba565b909155505060008181526002602052604080822080546001600160a01b0319166001600160a01b03861690811790915590518392907fddf252ad1be2c89b69c2b068fc378daa952ba7f163c4a11628f55a4df523b3ef908290a45050565b600062000964846001600160a01b031662000a9b60201b62000bc81760201c565b1562000a9057604051630a85bd0160e11b81526001600160a01b0385169063150b7a02906200099e9033908990889088906004016200110d565b6020604051808303816000875af1925050508015620009dc575060408051601f3d908101601f19168201909252620009d99181019062001163565b60015b62000a75573d80801562000a0d576040519150601f19603f3d011682016040523d82523d6000602084013e62000a12565b606091505b50805162000a6d5760405162461bcd60e51b815260206004820152603260248201526000805160206200323783398151915260448201527131b2b4bb32b91034b6b83632b6b2b73a32b960711b6064820152608401620006f2565b805181602001fd5b6001600160e01b031916630a85bd0160e11b149050620004e7565b506001949350505050565b6001600160a01b03163b151590565b82805462000ab89062000de2565b90600052602060002090601f01602090048101928262000adc576000855562000b27565b82601f1062000af757805160ff191683800117855562000b27565b8280016001018555821562000b27579182015b8281111562000b2757825182559160200191906001019062000b0a565b5062000b3592915062000b99565b5090565b82805482825590600052602060002090810192821562000b8b579160200282015b8281111562000b8b578251805162000b7a91849160209091019062000aaa565b509160200191906001019062000b5a565b5062000b3592915062000bb0565b5b8082111562000b35576000815560010162000b9a565b8082111562000b3557600062000bc7828262000bd1565b5060010162000bb0565b50805462000bdf9062000de2565b6000825580601f1062000bf0575050565b601f01602090049060005260206000209081019062000c10919062000b99565b50565b60005b8381101562000c3057818101518382015260200162000c16565b8381111562000c40576000848401525b50505050565b6000815162000c5a81856020860162000c13565b9290920192915050565b7f3c73766720786d6c6e733d27687474703a2f2f7777772e77332e6f72672f323081527f30302f737667272076696577426f783d2730203020000000000000000000000060208201526000855162000cc4816035850160208a0162000c13565b600160fd1b603591840191820152855162000ce7816036840160208a0162000c13565b7f27207072657365727665417370656374526174696f3d27784d6964594d696420603692909101918201526536b2b2ba139f60d11b60568201526c3c726563742077696474683d2760981b605c820152845162000d4c81606984016020890162000c13565b62000da462000d7b62000d746069858501016927206865696768743d2760b01b8152600a0190565b8762000c46565b7f272066696c6c3d272331433143314327202f3e00000000000000000000000000815260130190565b98975050505050505050565b60006020828403121562000dc357600080fd5b81516001600160401b038116811462000ddb57600080fd5b9392505050565b600181811c9082168062000df757607f821691505b6020821081141562000e1957634e487b7160e01b600052602260045260246000fd5b50919050565b8054600090600181811c908083168062000e3a57607f831692505b602080841082141562000e5d57634e487b7160e01b600052602260045260246000fd5b81801562000e74576001811462000e865762000eb5565b60ff1986168952848901965062000eb5565b60008881526020902060005b8681101562000ead5781548b82015290850190830162000e92565b505084890196505b50505050505092915050565b600062000ee562000ede62000ed7848862000e1f565b8662000e1f565b8462000e1f565b95945050505050565b7f7b226e616d65223a202254686520576f726c6473204c617267657374204e4654815261088b60f21b60208201527f226465736372697074696f6e223a202254686520576f726c6473204c6172676560228201527f7374204e465420666f7220536d617274436f6e2032303232222c00000000000060428201527f22696d616765223a2022646174613a696d6167652f7376672b786d6c3b626173605c82015263194d8d0b60e21b607c8201526000825162000fb281608085016020870162000c13565b61227d60f01b6080939091019283015250608201919050565b7f646174613a6170706c69636174696f6e2f6a736f6e3b6261736536342c0000008152600082516200100581601d85016020870162000c13565b91909101601d0192915050565b634e487b7160e01b600052601160045260246000fd5b60006000198214156200103f576200103f62001012565b5060010190565b634e487b7160e01b600052601260045260246000fd5b6000826200106e576200106e62001046565b500490565b634e487b7160e01b600052604160045260246000fd5b6000828210156200109e576200109e62001012565b500390565b600082620010b557620010b562001046565b500690565b60008219821115620010d057620010d062001012565b500190565b634e487b7160e01b600052603260045260246000fd5b600081600019048311821515161562001108576200110862001012565b500290565b600060018060a01b0380871683528086166020840152508360408301526080606083015282518060808401526200114c8160a085016020870162000c13565b601f01601f19169190910160a00195945050505050565b6000602082840312156200117657600080fd5b81516001600160e01b03198116811462000ddb57600080fd5b608051612085620011b260003960008181610545015261058701526120856000f3fe608060405234801561001057600080fd5b50600436106101375760003560e01c80636352211e116100b8578063a22cb4651161007c578063a22cb46514610279578063b0554ca31461028c578063b88d4fde1461029f578063c87b56dd146102b2578063e985e9c5146102c5578063f6eaffc81461030157600080fd5b80636352211e14610219578063637c43201461022c57806370a082311461025557806395d89b41146102685780639ededf771461027057600080fd5b80631fe543e3116100ff5780631fe543e3146101d057806323b872dd146101e3578063301cc909146101f657806342842e0e146101fe578063489187e81461021157600080fd5b806301ffc9a71461013c57806306fdde0314610164578063081812fc14610179578063095ea7b3146101a45780630ef26743146101b9575b600080fd5b61014f61014a366004611677565b610314565b60405190151581526020015b60405180910390f35b61016c610366565b60405161015b91906116ec565b61018c6101873660046116ff565b6103f8565b6040516001600160a01b03909116815260200161015b565b6101b76101b2366004611734565b61041f565b005b6101c260105481565b60405190815260200161015b565b6101b76101de3660046117a5565b61053a565b6101b76101f1366004611857565b6105c2565b6101b76105f3565b6101b761020c366004611857565b6106b3565b61016c6106ce565b61018c6102273660046116ff565b610787565b61018c61023a3660046116ff565b600e602052600090815260409020546001600160a01b031681565b6101c2610263366004611893565b6107e7565b61016c61086d565b6101c2600f5481565b6101b76102873660046118ae565b61087c565b6101b761029a3660046118ea565b610887565b6101b76102ad36600461190c565b61090a565b61016c6102c03660046116ff565b610942565b61014f6102d33660046119cc565b6001600160a01b03918216600090815260056020908152604080832093909416825291909152205460ff1690565b6101c261030f3660046116ff565b61094d565b60006001600160e01b031982166380ac58cd60e01b148061034557506001600160e01b03198216635b5e139f60e01b145b8061036057506301ffc9a760e01b6001600160e01b03198316145b92915050565b606060008054610375906119ff565b80601f01602080910402602001604051908101604052809291908181526020018280546103a1906119ff565b80156103ee5780601f106103c3576101008083540402835291602001916103ee565b820191906000526020600020905b8154815290600101906020018083116103d157829003601f168201915b5050505050905090565b600061040382610bd7565b506000908152600460205260409020546001600160a01b031690565b600061042a82610787565b9050806001600160a01b0316836001600160a01b0316141561049d5760405162461bcd60e51b815260206004820152602160248201527f4552433732313a20617070726f76616c20746f2063757272656e74206f776e656044820152603960f91b60648201526084015b60405180910390fd5b336001600160a01b03821614806104b957506104b981336102d3565b61052b5760405162461bcd60e51b815260206004820152603d60248201527f4552433732313a20617070726f76652063616c6c6572206973206e6f7420746f60448201527f6b656e206f776e6572206f7220617070726f76656420666f7220616c6c0000006064820152608401610494565b6105358383610c39565b505050565b336001600160a01b037f000000000000000000000000000000000000000000000000000000000000000016146105b45760405163073e64fd60e21b81523360048201526001600160a01b037f0000000000000000000000000000000000000000000000000000000000000000166024820152604401610494565b6105be8282610ca7565b5050565b6105cc3382610d57565b6105e85760405162461bcd60e51b815260040161049490611a3a565b610535838383610dd5565b600754600954600a546040516305d3b1d360e41b81526004810192909252600160a01b830467ffffffffffffffff166024830152640100000000810461ffff16604483015263ffffffff808216606484015266010000000000009091041660848201526001600160a01b0390911690635d3b1d309060a4016020604051808303816000875af115801561068a573d6000803e3d6000fd5b505050506040513d601f19601f820116820180604052508101906106ae9190611a87565b600c55565b6105358383836040518060200160405280600081525061090a565b6060610763601180546106e0906119ff565b80601f016020809104026020016040519081016040528092919081815260200182805461070c906119ff565b80156107595780601f1061072e57610100808354040283529160200191610759565b820191906000526020600020905b81548152906001019060200180831161073c57829003601f168201915b5050505050610a74565b6040516020016107739190611aa0565b604051602081830303815290604052905090565b6000818152600260205260408120546001600160a01b0316806103605760405162461bcd60e51b8152602060048201526018602482015277115490cdcc8c4e881a5b9d985b1a59081d1bdad95b88125160421b6044820152606401610494565b60006001600160a01b0382166108515760405162461bcd60e51b815260206004820152602960248201527f4552433732313a2061646472657373207a65726f206973206e6f7420612076616044820152683634b21037bbb732b960b91b6064820152608401610494565b506001600160a01b031660009081526003602052604090205490565b606060018054610375906119ff565b6105be338383610f7b565b600d546001600160a01b0316331461089e57600080fd5b60408051600280825260608201835260009260208301908036833701905050905082816000815181106108d3576108d3611ae5565b60200260200101818152505081816001815181106108f3576108f3611ae5565b602002602001018181525050610535607b82610ca7565b6109143383610d57565b6109305760405162461bcd60e51b815260040161049490611a3a565b61093c8484848461104a565b50505050565b60606103608261107d565b600b818154811061095d57600080fd5b600091825260209091200154905081565b6060816109925750506040805180820190915260018152600360fc1b602082015290565b8160005b81156109bc57806109a681611b11565b91506109b59050600a83611b42565b9150610996565b60008167ffffffffffffffff8111156109d7576109d761175e565b6040519080825280601f01601f191660200182016040528015610a01576020820181803683370190505b5090505b8415610a6c57610a16600183611b56565b9150610a23600a86611b6d565b610a2e906030611b81565b60f81b818381518110610a4357610a43611ae5565b60200101906001600160f81b031916908160001a905350610a65600a86611b42565b9450610a05565b949350505050565b6060815160001415610a9457505060408051602081019091526000815290565b60006040518060600160405280604081526020016120396040913990506000600384516002610ac39190611b81565b610acd9190611b42565b610ad8906004611b99565b67ffffffffffffffff811115610af057610af061175e565b6040519080825280601f01601f191660200182016040528015610b1a576020820181803683370190505b509050600182016020820185865187015b80821015610b86576003820191508151603f8160121c168501518453600184019350603f81600c1c168501518453600184019350603f8160061c168501518453600184019350603f8116850151845350600183019250610b2b565b5050600386510660018114610ba25760028114610bb557610bbd565b603d6001830353603d6002830353610bbd565b603d60018303535b509195945050505050565b6001600160a01b03163b151590565b6000818152600260205260409020546001600160a01b0316610c365760405162461bcd60e51b8152602060048201526018602482015277115490cdcc8c4e881a5b9d985b1a59081d1bdad95b88125160421b6044820152606401610494565b50565b600081815260046020526040902080546001600160a01b0319166001600160a01b0384169081179091558190610c6e82610787565b6001600160a01b03167f8c5be1e5ebec7d5bd14f71427d1e84f3dd0314c0f7b2291e5b200ac8c7c3b92560405160405180910390a45050565b8051610cba90600b90602084019061158e565b50610cf981600081518110610cd157610cd1611ae5565b602002602001015182600181518110610cec57610cec611ae5565b6020026020010151611186565b7f01c8bd4e8ad3259729870d1aed76771590a5e8e803a5511f47f874a1a252f287604051610d4b9060208082526010908201526f13995dc814dc1bdd0810db185a5b595960821b604082015260600190565b60405180910390a15050565b600080610d6383610787565b9050806001600160a01b0316846001600160a01b03161480610daa57506001600160a01b0380821660009081526005602090815260408083209388168352929052205460ff165b80610a6c5750836001600160a01b0316610dc3846103f8565b6001600160a01b031614949350505050565b826001600160a01b0316610de882610787565b6001600160a01b031614610e0e5760405162461bcd60e51b815260040161049490611bb8565b6001600160a01b038216610e705760405162461bcd60e51b8152602060048201526024808201527f4552433732313a207472616e7366657220746f20746865207a65726f206164646044820152637265737360e01b6064820152608401610494565b826001600160a01b0316610e8382610787565b6001600160a01b031614610ea95760405162461bcd60e51b815260040161049490611bb8565b600081815260046020908152604080832080546001600160a01b03191690556001600160a01b038616835260039091528120805460019290610eec908490611b56565b90915550506001600160a01b0382166000908152600360205260408120805460019290610f1a908490611b81565b909155505060008181526002602052604080822080546001600160a01b0319166001600160a01b0386811691821790925591518493918716917fddf252ad1be2c89b69c2b068fc378daa952ba7f163c4a11628f55a4df523b3ef91a4505050565b816001600160a01b0316836001600160a01b03161415610fdd5760405162461bcd60e51b815260206004820152601960248201527f4552433732313a20617070726f766520746f2063616c6c6572000000000000006044820152606401610494565b6001600160a01b03838116600081815260056020908152604080832094871680845294825291829020805460ff191686151590811790915591519182527f17307eab39ab6107e8899845ad3d59bd9653f200f220920489ca2b5937696c31910160405180910390a3505050565b611055848484610dd5565b61106184848484611382565b61093c5760405162461bcd60e51b815260040161049490611bfd565b606061108882610bd7565b600082815260066020526040812080546110a1906119ff565b80601f01602080910402602001604051908101604052809291908181526020018280546110cd906119ff565b801561111a5780601f106110ef5761010080835404028352916020019161111a565b820191906000526020600020905b8154815290600101906020018083116110fd57829003601f168201915b50505050509050600061113860408051602081019091526000815290565b905080516000141561114b575092915050565b81511561117d578082604051602001611165929190611c4f565b60405160208183030381529060405292505050919050565b610a6c84611480565b6000611193600383611b6d565b90506000816111a45750600e6111b1565b81600114156111b1575060035b81600214156112475760146111d2600f54866111cd9190611b6d565b61096e565b6111e3601054876111cd9190611b6d565b60166111f0600389611b6d565b8154811061120057611200611ae5565b9060005260206000200160405160200161121d9493929190611d18565b604051602081830303815290604052601490805190602001906112419291906115d9565b506112d5565b601461125a600f54866111cd9190611b6d565b61126b601054876111cd9190611b6d565b6112748461096e565b601661128160038a611b6d565b8154811061129157611291611ae5565b906000526020600020016040516020016112af959493929190611dd1565b604051602081830303815290604052601490805190602001906112d39291906115d9565b505b60006012601460136040516020016112ef93929190611e97565b60408051601f1981840301815291905280519091506113159060119060208401906115d9565b50600061134861132483610a74565b6040516020016113349190611ebe565b604051602081830303815290604052610a74565b905060008160405160200161135d9190611f99565b60405160208183030381529060405290506113796000826114f4565b50505050505050565b60006001600160a01b0384163b1561147557604051630a85bd0160e11b81526001600160a01b0385169063150b7a02906113c6903390899088908890600401611fde565b6020604051808303816000875af1925050508015611401575060408051601f3d908101601f191682019092526113fe9181019061201b565b60015b61145b573d80801561142f576040519150601f19603f3d011682016040523d82523d6000602084013e611434565b606091505b5080516114535760405162461bcd60e51b815260040161049490611bfd565b805181602001fd5b6001600160e01b031916630a85bd0160e11b149050610a6c565b506001949350505050565b606061148b82610bd7565b60006114a260408051602081019091526000815290565b905060008151116114c257604051806020016040528060008152506114ed565b806114cc8461096e565b6040516020016114dd929190611c4f565b6040516020818303038152906040525b9392505050565b6000828152600260205260409020546001600160a01b031661156f5760405162461bcd60e51b815260206004820152602e60248201527f45524337323155524953746f726167653a2055524920736574206f66206e6f6e60448201526d32bc34b9ba32b73a103a37b5b2b760911b6064820152608401610494565b60008281526006602090815260409091208251610535928401906115d9565b8280548282559060005260206000209081019282156115c9579160200282015b828111156115c95782518255916020019190600101906115ae565b506115d592915061164c565b5090565b8280546115e5906119ff565b90600052602060002090601f01602090048101928261160757600085556115c9565b82601f1061162057805160ff19168380011785556115c9565b828001600101855582156115c957918201828111156115c95782518255916020019190600101906115ae565b5b808211156115d5576000815560010161164d565b6001600160e01b031981168114610c3657600080fd5b60006020828403121561168957600080fd5b81356114ed81611661565b60005b838110156116af578181015183820152602001611697565b8381111561093c5750506000910152565b600081518084526116d8816020860160208601611694565b601f01601f19169290920160200192915050565b6020815260006114ed60208301846116c0565b60006020828403121561171157600080fd5b5035919050565b80356001600160a01b038116811461172f57600080fd5b919050565b6000806040838503121561174757600080fd5b61175083611718565b946020939093013593505050565b634e487b7160e01b600052604160045260246000fd5b604051601f8201601f1916810167ffffffffffffffff8111828210171561179d5761179d61175e565b604052919050565b600080604083850312156117b857600080fd5b8235915060208084013567ffffffffffffffff808211156117d857600080fd5b818601915086601f8301126117ec57600080fd5b8135818111156117fe576117fe61175e565b8060051b915061180f848301611774565b818152918301840191848101908984111561182957600080fd5b938501935b838510156118475784358252938501939085019061182e565b8096505050505050509250929050565b60008060006060848603121561186c57600080fd5b61187584611718565b925061188360208501611718565b9150604084013590509250925092565b6000602082840312156118a557600080fd5b6114ed82611718565b600080604083850312156118c157600080fd5b6118ca83611718565b9150602083013580151581146118df57600080fd5b809150509250929050565b600080604083850312156118fd57600080fd5b50508035926020909101359150565b6000806000806080858703121561192257600080fd5b61192b85611718565b9350602061193a818701611718565b935060408601359250606086013567ffffffffffffffff8082111561195e57600080fd5b818801915088601f83011261197257600080fd5b8135818111156119845761198461175e565b611996601f8201601f19168501611774565b915080825289848285010111156119ac57600080fd5b808484018584013760008482840101525080935050505092959194509250565b600080604083850312156119df57600080fd5b6119e883611718565b91506119f660208401611718565b90509250929050565b600181811c90821680611a1357607f821691505b60208210811415611a3457634e487b7160e01b600052602260045260246000fd5b50919050565b6020808252602d908201527f4552433732313a2063616c6c6572206973206e6f7420746f6b656e206f776e6560408201526c1c881bdc88185c1c1c9bdd9959609a1b606082015260800190565b600060208284031215611a9957600080fd5b5051919050565b7f646174613a696d6167652f7376672b786d6c3b6261736536342c000000000000815260008251611ad881601a850160208701611694565b91909101601a0192915050565b634e487b7160e01b600052603260045260246000fd5b634e487b7160e01b600052601160045260246000fd5b6000600019821415611b2557611b25611afb565b5060010190565b634e487b7160e01b600052601260045260246000fd5b600082611b5157611b51611b2c565b500490565b600082821015611b6857611b68611afb565b500390565b600082611b7c57611b7c611b2c565b500690565b60008219821115611b9457611b94611afb565b500190565b6000816000190483118215151615611bb357611bb3611afb565b500290565b60208082526025908201527f4552433732313a207472616e736665722066726f6d20696e636f72726563742060408201526437bbb732b960d91b606082015260800190565b60208082526032908201527f4552433732313a207472616e7366657220746f206e6f6e20455243373231526560408201527131b2b4bb32b91034b6b83632b6b2b73a32b960711b606082015260800190565b60008351611c61818460208801611694565b835190830190611c75818360208801611694565b01949350505050565b8054600090600181811c9080831680611c9857607f831692505b6020808410821415611cba57634e487b7160e01b600052602260045260246000fd5b818015611cce5760018114611cdf57611d0c565b60ff19861689528489019650611d0c565b60008881526020902060005b86811015611d045781548b820152908501908301611ceb565b505084890196505b50505050505092915050565b6000611d248287611c7e565b6b3c636972636c652063783d2760a01b81528551611d4981600c840160208a01611694565b65272063793d2760d01b600c92909101918201528451611d70816012840160208901611694565b7f2720723d2737272066696c6c3d276e6f6e6527207374726f6b653d270000000060129290910191820152611da8602e820185611c7e565b74139039ba3937b5b296bbb4b23a341e93999390179f60591b8152601501979650505050505050565b6000611ddd8288611c7e565b683c7265637420783d2760b81b81528651611dff816009840160208b01611694565b642720793d2760d81b600992909101918201528551611e2581600e840160208a01611694565b68272077696474683d2760b81b600e92909101918201528451611e4f816017840160208901611694565b7327206865696768743d273134272066696c6c3d2760601b60179290910191820152611e7e602b820185611c7e565b631390179f60e11b815260040198975050505050505050565b6000611eb5611eaf611ea98488611c7e565b86611c7e565b84611c7e565b95945050505050565b7f7b226e616d65223a202254686520576f726c6473204c617267657374204e4654815261088b60f21b60208201527f226465736372697074696f6e223a202254686520576f726c6473204c6172676560228201527f7374204e465420666f7220536d617274436f6e2032303232222c00000000000060428201527f22696d616765223a2022646174613a696d6167652f7376672b786d6c3b626173605c82015263194d8d0b60e21b607c82015260008251611f80816080850160208701611694565b61227d60f01b6080939091019283015250608201919050565b7f646174613a6170706c69636174696f6e2f6a736f6e3b6261736536342c000000815260008251611fd181601d850160208701611694565b91909101601d0192915050565b6001600160a01b0385811682528416602082015260408101839052608060608201819052600090612011908301846116c0565b9695505050505050565b60006020828403121561202d57600080fd5b81516114ed8161166156fe4142434445464748494a4b4c4d4e4f505152535455565758595a6162636465666768696a6b6c6d6e6f707172737475767778797a303132333435363738392b2fa164736f6c634300080a000a4552433732313a207472616e7366657220746f206e6f6e2045524337323152654142434445464748494a4b4c4d4e4f505152535455565758595a6162636465666768696a6b6c6d6e6f707172737475767778797a303132333435363738392b2f",
    "linkReferences": {}
  }
}