{
  "abi": [
    {
      "inputs": [
        {
          "internalType": "uint64",
          "name": "subscriptionId",
          "type": "uint64"
        }
      ],
      "stateMutability": "nonpayable",
      "type": "constructor"
    },
    {
      "inputs": [
        {
          "internalType": "address",
          "name": "have",
          "type": "address"
        },
        {
          "internalType": "address",
          "name": "want",
          "type": "address"
        }
      ],
      "name": "OnlyCoordinatorCanFulfill",
      "type": "error"
    },
    {
      "anonymous": false,
      "inputs": [
        {
          "indexed": true,
          "internalType": "address",
          "name": "owner",
          "type": "address"
        },
        {
          "indexed": true,
          "internalType": "address",
          "name": "approved",
          "type": "address"
        },
        {
          "indexed": true,
          "internalType": "uint256",
          "name": "tokenId",
          "type": "uint256"
        }
      ],
      "name": "Approval",
      "type": "event"
    },
    {
      "anonymous": false,
      "inputs": [
        {
          "indexed": true,
          "internalType": "address",
          "name": "owner",
          "type": "address"
        },
        {
          "indexed": true,
          "internalType": "address",
          "name": "operator",
          "type": "address"
        },
        {
          "indexed": false,
          "internalType": "bool",
          "name": "approved",
          "type": "bool"
        }
      ],
      "name": "ApprovalForAll",
      "type": "event"
    },
    {
      "anonymous": false,
      "inputs": [
        {
          "indexed": false,
          "internalType": "string",
          "name": "notification",
          "type": "string"
        }
      ],
      "name": "SpotClaimed",
      "type": "event"
    },
    {
      "anonymous": false,
      "inputs": [
        {
          "indexed": true,
          "internalType": "address",
          "name": "from",
          "type": "address"
        },
        {
          "indexed": true,
          "internalType": "address",
          "name": "to",
          "type": "address"
        },
        {
          "indexed": true,
          "internalType": "uint256",
          "name": "tokenId",
          "type": "uint256"
        }
      ],
      "name": "Transfer",
      "type": "event"
    },
    {
      "inputs": [
        {
          "internalType": "address",
          "name": "to",
          "type": "address"
        },
        {
          "internalType": "uint256",
          "name": "tokenId",
          "type": "uint256"
        }
      ],
      "name": "approve",
      "outputs": [],
      "stateMutability": "nonpayable",
      "type": "function"
    },
    {
      "inputs": [
        {
          "internalType": "address",
          "name": "owner",
          "type": "address"
        }
      ],
      "name": "balanceOf",
      "outputs": [
        {
          "internalType": "uint256",
          "name": "",
          "type": "uint256"
        }
      ],
      "stateMutability": "view",
      "type": "function"
    },
    {
      "inputs": [
        {
          "internalType": "uint256",
          "name": "_val",
          "type": "uint256"
        },
        {
          "internalType": "uint256",
          "name": "_val2",
          "type": "uint256"
        }
      ],
      "name": "callRandomWords",
      "outputs": [],
      "stateMutability": "nonpayable",
      "type": "function"
    },
    {
      "inputs": [],
      "name": "claimYourSpot",
      "outputs": [],
      "stateMutability": "nonpayable",
      "type": "function"
    },
    {
      "inputs": [
        {
          "internalType": "uint256",
          "name": "tokenId",
          "type": "uint256"
        }
      ],
      "name": "getApproved",
      "outputs": [
        {
          "internalType": "address",
          "name": "",
          "type": "address"
        }
      ],
      "stateMutability": "view",
      "type": "function"
    },
    {
      "inputs": [],
      "name": "getSVG",
      "outputs": [
        {
          "internalType": "string",
          "name": "SVG",
          "type": "string"
        }
      ],
      "stateMutability": "view",
      "type": "function"
    },
    {
      "inputs": [],
      "name": "height",
      "outputs": [
        {
          "internalType": "uint256",
          "name": "",
          "type": "uint256"
        }
      ],
      "stateMutability": "view",
      "type": "function"
    },
    {
      "inputs": [
        {
          "internalType": "address",
          "name": "owner",
          "type": "address"
        },
        {
          "internalType": "address",
          "name": "operator",
          "type": "address"
        }
      ],
      "name": "isApprovedForAll",
      "outputs": [
        {
          "internalType": "bool",
          "name": "",
          "type": "bool"
        }
      ],
      "stateMutability": "view",
      "type": "function"
    },
    {
      "inputs": [],
      "name": "name",
      "outputs": [
        {
          "internalType": "string",
          "name": "",
          "type": "string"
        }
      ],
      "stateMutability": "view",
      "type": "function"
    },
    {
      "inputs": [
        {
          "internalType": "uint256",
          "name": "tokenId",
          "type": "uint256"
        }
      ],
      "name": "ownerOf",
      "outputs": [
        {
          "internalType": "address",
          "name": "",
          "type": "address"
        }
      ],
      "stateMutability": "view",
      "type": "function"
    },
    {
      "inputs": [
        {
          "internalType": "uint256",
          "name": "requestId",
          "type": "uint256"
        },
        {
          "internalType": "uint256[]",
          "name": "randomWords",
          "type": "uint256[]"
        }
      ],
      "name": "rawFulfillRandomWords",
      "outputs": [],
      "stateMutability": "nonpayable",
      "type": "function"
    },
    {
      "inputs": [
        {
          "internalType": "uint256",
          "name": "",
          "type": "uint256"
        }
      ],
      "name": "requestIdToAddress",
      "outputs": [
        {
          "internalType": "address",
          "name": "",
          "type": "address"
        }
      ],
      "stateMutability": "view",
      "type": "function"
    },
    {
      "inputs": [
        {
          "internalType": "uint256",
          "name": "",
          "type": "uint256"
        }
      ],
      "name": "s_randomWords",
      "outputs": [
        {
          "internalType": "uint256",
          "name": "",
          "type": "uint256"
        }
      ],
      "stateMutability": "view",
      "type": "function"
    },
    {
      "inputs": [
        {
          "internalType": "address",
          "name": "from",
          "type": "address"
        },
        {
          "internalType": "address",
          "name": "to",
          "type": "address"
        },
        {
          "internalType": "uint256",
          "name": "tokenId",
          "type": "uint256"
        }
      ],
      "name": "safeTransferFrom",
      "outputs": [],
      "stateMutability": "nonpayable",
      "type": "function"
    },
    {
      "inputs": [
        {
          "internalType": "address",
          "name": "from",
          "type": "address"
        },
        {
          "internalType": "address",
          "name": "to",
          "type": "address"
        },
        {
          "internalType": "uint256",
          "name": "tokenId",
          "type": "uint256"
        },
        {
          "internalType": "bytes",
          "name": "data",
          "type": "bytes"
        }
      ],
      "name": "safeTransferFrom",
      "outputs": [],
      "stateMutability": "nonpayable",
      "type": "function"
    },
    {
      "inputs": [
        {
          "internalType": "address",
          "name": "operator",
          "type": "address"
        },
        {
          "internalType": "bool",
          "name": "approved",
          "type": "bool"
        }
      ],
      "name": "setApprovalForAll",
      "outputs": [],
      "stateMutability": "nonpayable",
      "type": "function"
    },
    {
      "inputs": [
        {
          "internalType": "bytes4",
          "name": "interfaceId",
          "type": "bytes4"
        }
      ],
      "name": "supportsInterface",
      "outputs": [
        {
          "internalType": "bool",
          "name": "",
          "type": "bool"
        }
      ],
      "stateMutability": "view",
      "type": "function"
    },
    {
      "inputs": [],
      "name": "symbol",
      "outputs": [
        {
          "internalType": "string",
          "name": "",
          "type": "string"
        }
      ],
      "stateMutability": "view",
      "type": "function"
    },
    {
      "inputs": [
        {
          "internalType": "uint256",
          "name": "tokenId",
          "type": "uint256"
        }
      ],
      "name": "tokenURI",
      "outputs": [
        {
          "internalType": "string",
          "name": "",
          "type": "string"
        }
      ],
      "stateMutability": "view",
      "type": "function"
    },
    {
      "inputs": [
        {
          "internalType": "address",
          "name": "from",
          "type": "address"
        },
        {
          "internalType": "address",
          "name": "to",
          "type": "address"
        },
        {
          "internalType": "uint256",
          "name": "tokenId",
          "type": "uint256"
        }
      ],
      "name": "transferFrom",
      "outputs": [],
      "stateMutability": "nonpayable",
      "type": "function"
    },
    {
      "inputs": [],
      "name": "width",
      "outputs": [
        {
          "internalType": "uint256",
          "name": "",
          "type": "uint256"
        }
      ],
      "stateMutability": "view",
      "type": "function"
    }
  ],
  "bytecode": {
    "object": "0x60a060405260088054732ed832ba664535e5886b75d64c46eb9a228c26106001600160a01b03199091161790557f354d2f95da55398f44b7cff77da56283d9c6c829a4bdf1bbcaf2ad6a4d081f61600955600a80546001600160501b03191666010001000f423f179055610780600f8190556104386010556200008e9062000306602090811b620008ad17901c565b620000a66010546200030660201b620008ad1760201c565b620000be600f546200030660201b620008ad1760201c565b620000d66010546200030660201b620008ad1760201c565b604051602001620000eb949392919062000977565b6040516020818303038152906040526012908051906020019062000111929190620007db565b50604080518082019091526006808252651e17b9bb339f60d11b60209092019182526200014191601391620007db565b506040805160208101918290526000908190526200016291601491620007db565b506040805160208101918290526000908190526200018391601591620007db565b506040805160a081018252600760608201818152661199999b1b232360c91b6080840152825282518084018452818152662330304646393360c81b60208281019190915280840191909152835180850185529182526611a3232323232360c91b9082015291810191909152620001fe9060169060036200086a565b503480156200020c57600080fd5b5060405162002f2638038062002f268339810160408190526200022f9162000a9a565b604080518082018252601081526f536d617274436f6e32322053706f747360801b60208083019182528351808501909452600384526253435360e81b908401526008546001600160a01b031660805281519192916200029191600091620007db565b508051620002a7906001906020840190620007db565b505060085460078054600d8054336001600160a01b031990911681179091556001600160a01b039093166001600160e01b031990911617600160a01b6001600160401b03861602179055620002ff9150600062000423565b5062000c64565b6060816200032b5750506040805180820190915260018152600360fc1b602082015290565b8160005b81156200035b5780620003428162000ae2565b9150620003539050600a8362000b16565b91506200032f565b6000816001600160401b0381111562000378576200037862000b2d565b6040519080825280601f01601f191660200182016040528015620003a3576020820181803683370190505b5090505b84156200041b57620003bb60018362000b43565b9150620003ca600a8662000b5d565b620003d790603062000b74565b60f81b818381518110620003ef57620003ef62000b8f565b60200101906001600160f81b031916908160001a90535062000413600a8662000b16565b9450620003a7565b949350505050565b620004458282604051806020016040528060008152506200044960201b60201c565b5050565b620004558383620004c5565b62000464600084848462000674565b620004c05760405162461bcd60e51b8152602060048201526032602482015260008051602062002f0683398151915260448201527131b2b4bb32b91034b6b83632b6b2b73a32b960711b60648201526084015b60405180910390fd5b505050565b6001600160a01b0382166200051d5760405162461bcd60e51b815260206004820181905260248201527f4552433732313a206d696e7420746f20746865207a65726f20616464726573736044820152606401620004b7565b6000818152600260205260409020546001600160a01b031615620005845760405162461bcd60e51b815260206004820152601c60248201527f4552433732313a20746f6b656e20616c7265616479206d696e746564000000006044820152606401620004b7565b6000818152600260205260409020546001600160a01b031615620005eb5760405162461bcd60e51b815260206004820152601c60248201527f4552433732313a20746f6b656e20616c7265616479206d696e746564000000006044820152606401620004b7565b6001600160a01b03821660009081526003602052604081208054600192906200061690849062000b74565b909155505060008181526002602052604080822080546001600160a01b0319166001600160a01b03861690811790915590518392907fddf252ad1be2c89b69c2b068fc378daa952ba7f163c4a11628f55a4df523b3ef908290a45050565b600062000695846001600160a01b0316620007cc60201b620009b31760201c565b15620007c157604051630a85bd0160e11b81526001600160a01b0385169063150b7a0290620006cf90339089908890889060040162000ba5565b6020604051808303816000875af19250505080156200070d575060408051601f3d908101601f191682019092526200070a9181019062000bfb565b60015b620007a6573d8080156200073e576040519150601f19603f3d011682016040523d82523d6000602084013e62000743565b606091505b5080516200079e5760405162461bcd60e51b8152602060048201526032602482015260008051602062002f0683398151915260448201527131b2b4bb32b91034b6b83632b6b2b73a32b960711b6064820152608401620004b7565b805181602001fd5b6001600160e01b031916630a85bd0160e11b1490506200041b565b506001949350505050565b6001600160a01b03163b151590565b828054620007e99062000c27565b90600052602060002090601f0160209004810192826200080d576000855562000858565b82601f106200082857805160ff191683800117855562000858565b8280016001018555821562000858579182015b82811115620008585782518255916020019190600101906200083b565b5062000866929150620008ca565b5090565b828054828255906000526020600020908101928215620008bc579160200282015b82811115620008bc5782518051620008ab918491602090910190620007db565b50916020019190600101906200088b565b5062000866929150620008e1565b5b80821115620008665760008155600101620008cb565b8082111562000866576000620008f8828262000902565b50600101620008e1565b508054620009109062000c27565b6000825580601f1062000921575050565b601f016020900490600052602060002090810190620009419190620008ca565b50565b60005b838110156200096157818101518382015260200162000947565b8381111562000971576000848401525b50505050565b7101e39bb33903b34b2bba137bc1e93981018160751b815260008551620009a6816012850160208a0162000944565b600160fd1b6012918401918201528551620009c9816013840160208a0162000944565b7f27207072657365727665417370656374526174696f3d27784d6964594d696420601392909101918201526536b2b2ba139f60d11b60338201526c3c726563742077696474683d2760981b6039820152845162000a2e81604684016020890162000944565b6927206865696768743d2760b01b60469290910191820152835162000a5b81605084016020880162000944565b62000a8e6050828401017f272066696c6c3d272331433143314327202f3e00000000000000000000000000815260130190565b98975050505050505050565b60006020828403121562000aad57600080fd5b81516001600160401b038116811462000ac557600080fd5b9392505050565b634e487b7160e01b600052601160045260246000fd5b600060001982141562000af95762000af962000acc565b5060010190565b634e487b7160e01b600052601260045260246000fd5b60008262000b285762000b2862000b00565b500490565b634e487b7160e01b600052604160045260246000fd5b60008282101562000b585762000b5862000acc565b500390565b60008262000b6f5762000b6f62000b00565b500690565b6000821982111562000b8a5762000b8a62000acc565b500190565b634e487b7160e01b600052603260045260246000fd5b600060018060a01b03808716835280861660208401525083604083015260806060830152825180608084015262000be48160a085016020870162000944565b601f01601f19169190910160a00195945050505050565b60006020828403121562000c0e57600080fd5b81516001600160e01b03198116811462000ac557600080fd5b600181811c9082168062000c3c57607f821691505b6020821081141562000c5e57634e487b7160e01b600052602260045260246000fd5b50919050565b60805161227f62000c87600039600081816105450152610587015261227f6000f3fe608060405234801561001057600080fd5b50600436106101375760003560e01c80636352211e116100b8578063a22cb4651161007c578063a22cb46514610279578063b0554ca31461028c578063b88d4fde1461029f578063c87b56dd146102b2578063e985e9c5146102c5578063f6eaffc81461030157600080fd5b80636352211e14610219578063637c43201461022c57806370a082311461025557806395d89b41146102685780639ededf771461027057600080fd5b80631fe543e3116100ff5780631fe543e3146101d057806323b872dd146101e3578063301cc909146101f657806342842e0e146101fe578063489187e81461021157600080fd5b806301ffc9a71461013c57806306fdde0314610164578063081812fc14610179578063095ea7b3146101a45780630ef26743146101b9575b600080fd5b61014f61014a3660046118ca565b610314565b60405190151581526020015b60405180910390f35b61016c610366565b60405161015b919061193f565b61018c610187366004611952565b6103f8565b6040516001600160a01b03909116815260200161015b565b6101b76101b2366004611987565b61041f565b005b6101c260105481565b60405190815260200161015b565b6101b76101de3660046119f8565b61053a565b6101b76101f1366004611aaa565b6105c2565b6101b76105f3565b6101b761020c366004611aaa565b6106b3565b61016c6106ce565b61018c610227366004611952565b6106dd565b61018c61023a366004611952565b600e602052600090815260409020546001600160a01b031681565b6101c2610263366004611ae6565b61073d565b61016c6107c3565b6101c2600f5481565b6101b7610287366004611b01565b6107d2565b6101b761029a366004611b3d565b6107dd565b6101b76102ad366004611b5f565b610849565b61016c6102c0366004611952565b610881565b61014f6102d3366004611c1f565b6001600160a01b03918216600090815260056020908152604080832093909416825291909152205460ff1690565b6101c261030f366004611952565b61088c565b60006001600160e01b031982166380ac58cd60e01b148061034557506001600160e01b03198216635b5e139f60e01b145b8061036057506301ffc9a760e01b6001600160e01b03198316145b92915050565b60606000805461037590611c52565b80601f01602080910402602001604051908101604052809291908181526020018280546103a190611c52565b80156103ee5780601f106103c3576101008083540402835291602001916103ee565b820191906000526020600020905b8154815290600101906020018083116103d157829003601f168201915b5050505050905090565b6000610403826109c2565b506000908152600460205260409020546001600160a01b031690565b600061042a826106dd565b9050806001600160a01b0316836001600160a01b0316141561049d5760405162461bcd60e51b815260206004820152602160248201527f4552433732313a20617070726f76616c20746f2063757272656e74206f776e656044820152603960f91b60648201526084015b60405180910390fd5b336001600160a01b03821614806104b957506104b981336102d3565b61052b5760405162461bcd60e51b815260206004820152603d60248201527f4552433732313a20617070726f76652063616c6c6572206973206e6f7420746f60448201527f6b656e206f776e6572206f7220617070726f76656420666f7220616c6c0000006064820152608401610494565b6105358383610a24565b505050565b336001600160a01b037f000000000000000000000000000000000000000000000000000000000000000016146105b45760405163073e64fd60e21b81523360048201526001600160a01b037f0000000000000000000000000000000000000000000000000000000000000000166024820152604401610494565b6105be8282610a92565b5050565b6105cc3382610b42565b6105e85760405162461bcd60e51b815260040161049490611c8d565b610535838383610bc0565b600754600954600a546040516305d3b1d360e41b81526004810192909252600160a01b830467ffffffffffffffff166024830152640100000000810461ffff16604483015263ffffffff808216606484015266010000000000009091041660848201526001600160a01b0390911690635d3b1d309060a4016020604051808303816000875af115801561068a573d6000803e3d6000fd5b505050506040513d601f19601f820116820180604052508101906106ae9190611cda565b600c55565b61053583838360405180602001604052806000815250610849565b60606011805461037590611c52565b6000818152600260205260408120546001600160a01b0316806103605760405162461bcd60e51b8152602060048201526018602482015277115490cdcc8c4e881a5b9d985b1a59081d1bdad95b88125160421b6044820152606401610494565b60006001600160a01b0382166107a75760405162461bcd60e51b815260206004820152602960248201527f4552433732313a2061646472657373207a65726f206973206e6f7420612076616044820152683634b21037bbb732b960b91b6064820152608401610494565b506001600160a01b031660009081526003602052604090205490565b60606001805461037590611c52565b6105be338383610d66565b604080516002808252606082018352600092602083019080368337019050509050828160008151811061081257610812611cf3565b602002602001018181525050818160018151811061083257610832611cf3565b602002602001018181525050610535607b82610a92565b6108533383610b42565b61086f5760405162461bcd60e51b815260040161049490611c8d565b61087b84848484610e35565b50505050565b606061036082610e68565b600b818154811061089c57600080fd5b600091825260209091200154905081565b6060816108d15750506040805180820190915260018152600360fc1b602082015290565b8160005b81156108fb57806108e581611d1f565b91506108f49050600a83611d50565b91506108d5565b60008167ffffffffffffffff811115610916576109166119b1565b6040519080825280601f01601f191660200182016040528015610940576020820181803683370190505b5090505b84156109ab57610955600183611d64565b9150610962600a86611d7b565b61096d906030611d8f565b60f81b81838151811061098257610982611cf3565b60200101906001600160f81b031916908160001a9053506109a4600a86611d50565b9450610944565b949350505050565b6001600160a01b03163b151590565b6000818152600260205260409020546001600160a01b0316610a215760405162461bcd60e51b8152602060048201526018602482015277115490cdcc8c4e881a5b9d985b1a59081d1bdad95b88125160421b6044820152606401610494565b50565b600081815260046020526040902080546001600160a01b0319166001600160a01b0384169081179091558190610a59826106dd565b6001600160a01b03167f8c5be1e5ebec7d5bd14f71427d1e84f3dd0314c0f7b2291e5b200ac8c7c3b92560405160405180910390a45050565b8051610aa590600b9060208401906117e1565b50610ae481600081518110610abc57610abc611cf3565b602002602001015182600181518110610ad757610ad7611cf3565b6020026020010151610f71565b7f01c8bd4e8ad3259729870d1aed76771590a5e8e803a5511f47f874a1a252f287604051610b369060208082526010908201526f13995dc814dc1bdd0810db185a5b595960821b604082015260600190565b60405180910390a15050565b600080610b4e836106dd565b9050806001600160a01b0316846001600160a01b03161480610b9557506001600160a01b0380821660009081526005602090815260408083209388168352929052205460ff165b806109ab5750836001600160a01b0316610bae846103f8565b6001600160a01b031614949350505050565b826001600160a01b0316610bd3826106dd565b6001600160a01b031614610bf95760405162461bcd60e51b815260040161049490611da7565b6001600160a01b038216610c5b5760405162461bcd60e51b8152602060048201526024808201527f4552433732313a207472616e7366657220746f20746865207a65726f206164646044820152637265737360e01b6064820152608401610494565b826001600160a01b0316610c6e826106dd565b6001600160a01b031614610c945760405162461bcd60e51b815260040161049490611da7565b600081815260046020908152604080832080546001600160a01b03191690556001600160a01b038616835260039091528120805460019290610cd7908490611d64565b90915550506001600160a01b0382166000908152600360205260408120805460019290610d05908490611d8f565b909155505060008181526002602052604080822080546001600160a01b0319166001600160a01b0386811691821790925591518493918716917fddf252ad1be2c89b69c2b068fc378daa952ba7f163c4a11628f55a4df523b3ef91a4505050565b816001600160a01b0316836001600160a01b03161415610dc85760405162461bcd60e51b815260206004820152601960248201527f4552433732313a20617070726f766520746f2063616c6c6572000000000000006044820152606401610494565b6001600160a01b03838116600081815260056020908152604080832094871680845294825291829020805460ff191686151590811790915591519182527f17307eab39ab6107e8899845ad3d59bd9653f200f220920489ca2b5937696c31910160405180910390a3505050565b610e40848484610bc0565b610e4c84848484611481565b61087b5760405162461bcd60e51b815260040161049490611dec565b6060610e73826109c2565b60008281526006602052604081208054610e8c90611c52565b80601f0160208091040260200160405190810160405280929190818152602001828054610eb890611c52565b8015610f055780601f10610eda57610100808354040283529160200191610f05565b820191906000526020600020905b815481529060010190602001808311610ee857829003601f168201915b505050505090506000610f2360408051602081019091526000815290565b9050805160001415610f36575092915050565b815115610f68578082604051602001610f50929190611e3e565b60405160208183030381529060405292505050919050565b6109ab8461157f565b6000610f7e600383611d7b565b9050600081610f8f5750600e610f9c565b8160011415610f9c575060025b60176040518060c00160405280610fbf600f5488610fba9190611d7b565b6108ad565b8152602001610fd560105488610fba9190611d7b565b8152602001610fe460076108ad565b8152602001610ff2846108ad565b8152602001611001600e6108ad565b81526020016016611013600389611d7b565b8154811061102357611023611cf3565b90600052602060002001805461103890611c52565b80601f016020809104026020016040519081016040528092919081815260200182805461106490611c52565b80156110b15780601f10611086576101008083540402835291602001916110b1565b820191906000526020600020905b81548152906001019060200180831161109457829003601f168201915b505050919092525050815460018101835560009283526020928390208251805193946006909302909101926110e9928492019061182c565b506020828101518051611102926001850192019061182c565b506040820151805161111e91600284019160209091019061182c565b506060820151805161113a91600384019160209091019061182c565b506080820151805161115691600484019160209091019061182c565b5060a0820151805161117291600584019160209091019061182c565b505050816002141561129057601780546014919061119290600190611d64565b815481106111a2576111a2611cf3565b9060005260206000209060060201600001601760016017805490506111c79190611d64565b815481106111d7576111d7611cf3565b9060005260206000209060060201600101601760016017805490506111fc9190611d64565b8154811061120c5761120c611cf3565b9060005260206000209060060201600201601760016017805490506112319190611d64565b8154811061124157611241611cf3565b9060005260206000209060060201600501604051602001611266959493929190611f07565b6040516020818303038152906040526014908051906020019061128a92919061182c565b506113d4565b60178054601491906112a490600190611d64565b815481106112b4576112b4611cf3565b9060005260206000209060060201600001601760016017805490506112d99190611d64565b815481106112e9576112e9611cf3565b90600052602060002090600602016001016017600160178054905061130e9190611d64565b8154811061131e5761131e611cf3565b9060005260206000209060060201600301601760016017805490506113439190611d64565b8154811061135357611353611cf3565b9060005260206000209060060201600401601760016017805490506113789190611d64565b8154811061138857611388611cf3565b90600052602060002090600602016005016040516020016113ae96959493929190611fbc565b604051602081830303815290604052601490805190602001906113d292919061182c565b505b60006012601460136040516020016113ee93929190612072565b60408051601f19818403018152919052805190915061141490601190602084019061182c565b506000611447611423836115f3565b6040516020016114339190612099565b6040516020818303038152906040526115f3565b905060008160405160200161145c9190612174565b6040516020818303038152906040529050611478600082611747565b50505050505050565b60006001600160a01b0384163b1561157457604051630a85bd0160e11b81526001600160a01b0385169063150b7a02906114c59033908990889088906004016121b9565b6020604051808303816000875af1925050508015611500575060408051601f3d908101601f191682019092526114fd918101906121f6565b60015b61155a573d80801561152e576040519150601f19603f3d011682016040523d82523d6000602084013e611533565b606091505b5080516115525760405162461bcd60e51b815260040161049490611dec565b805181602001fd5b6001600160e01b031916630a85bd0160e11b1490506109ab565b506001949350505050565b606061158a826109c2565b60006115a160408051602081019091526000815290565b905060008151116115c157604051806020016040528060008152506115ec565b806115cb846108ad565b6040516020016115dc929190611e3e565b6040516020818303038152906040525b9392505050565b606081516000141561161357505060408051602081019091526000815290565b600060405180606001604052806040815260200161223360409139905060006003845160026116429190611d8f565b61164c9190611d50565b611657906004612213565b67ffffffffffffffff81111561166f5761166f6119b1565b6040519080825280601f01601f191660200182016040528015611699576020820181803683370190505b509050600182016020820185865187015b80821015611705576003820191508151603f8160121c168501518453600184019350603f81600c1c168501518453600184019350603f8160061c168501518453600184019350603f81168501518453506001830192506116aa565b505060038651066001811461172157600281146117345761173c565b603d6001830353603d600283035361173c565b603d60018303535b509195945050505050565b6000828152600260205260409020546001600160a01b03166117c25760405162461bcd60e51b815260206004820152602e60248201527f45524337323155524953746f726167653a2055524920736574206f66206e6f6e60448201526d32bc34b9ba32b73a103a37b5b2b760911b6064820152608401610494565b600082815260066020908152604090912082516105359284019061182c565b82805482825590600052602060002090810192821561181c579160200282015b8281111561181c578251825591602001919060010190611801565b5061182892915061189f565b5090565b82805461183890611c52565b90600052602060002090601f01602090048101928261185a576000855561181c565b82601f1061187357805160ff191683800117855561181c565b8280016001018555821561181c579182018281111561181c578251825591602001919060010190611801565b5b8082111561182857600081556001016118a0565b6001600160e01b031981168114610a2157600080fd5b6000602082840312156118dc57600080fd5b81356115ec816118b4565b60005b838110156119025781810151838201526020016118ea565b8381111561087b5750506000910152565b6000815180845261192b8160208601602086016118e7565b601f01601f19169290920160200192915050565b6020815260006115ec6020830184611913565b60006020828403121561196457600080fd5b5035919050565b80356001600160a01b038116811461198257600080fd5b919050565b6000806040838503121561199a57600080fd5b6119a38361196b565b946020939093013593505050565b634e487b7160e01b600052604160045260246000fd5b604051601f8201601f1916810167ffffffffffffffff811182821017156119f0576119f06119b1565b604052919050565b60008060408385031215611a0b57600080fd5b8235915060208084013567ffffffffffffffff80821115611a2b57600080fd5b818601915086601f830112611a3f57600080fd5b813581811115611a5157611a516119b1565b8060051b9150611a628483016119c7565b8181529183018401918481019089841115611a7c57600080fd5b938501935b83851015611a9a57843582529385019390850190611a81565b8096505050505050509250929050565b600080600060608486031215611abf57600080fd5b611ac88461196b565b9250611ad66020850161196b565b9150604084013590509250925092565b600060208284031215611af857600080fd5b6115ec8261196b565b60008060408385031215611b1457600080fd5b611b1d8361196b565b915060208301358015158114611b3257600080fd5b809150509250929050565b60008060408385031215611b5057600080fd5b50508035926020909101359150565b60008060008060808587031215611b7557600080fd5b611b7e8561196b565b93506020611b8d81870161196b565b935060408601359250606086013567ffffffffffffffff80821115611bb157600080fd5b818801915088601f830112611bc557600080fd5b813581811115611bd757611bd76119b1565b611be9601f8201601f191685016119c7565b91508082528984828501011115611bff57600080fd5b808484018584013760008482840101525080935050505092959194509250565b60008060408385031215611c3257600080fd5b611c3b8361196b565b9150611c496020840161196b565b90509250929050565b600181811c90821680611c6657607f821691505b60208210811415611c8757634e487b7160e01b600052602260045260246000fd5b50919050565b6020808252602d908201527f4552433732313a2063616c6c6572206973206e6f7420746f6b656e206f776e6560408201526c1c881bdc88185c1c1c9bdd9959609a1b606082015260800190565b600060208284031215611cec57600080fd5b5051919050565b634e487b7160e01b600052603260045260246000fd5b634e487b7160e01b600052601160045260246000fd5b6000600019821415611d3357611d33611d09565b5060010190565b634e487b7160e01b600052601260045260246000fd5b600082611d5f57611d5f611d3a565b500490565b600082821015611d7657611d76611d09565b500390565b600082611d8a57611d8a611d3a565b500690565b60008219821115611da257611da2611d09565b500190565b60208082526025908201527f4552433732313a207472616e736665722066726f6d20696e636f72726563742060408201526437bbb732b960d91b606082015260800190565b60208082526032908201527f4552433732313a207472616e7366657220746f206e6f6e20455243373231526560408201527131b2b4bb32b91034b6b83632b6b2b73a32b960711b606082015260800190565b60008351611e508184602088016118e7565b835190830190611e648183602088016118e7565b01949350505050565b8054600090600181811c9080831680611e8757607f831692505b6020808410821415611ea957634e487b7160e01b600052602260045260246000fd5b818015611ebd5760018114611ece57611efb565b60ff19861689528489019650611efb565b60008881526020902060005b86811015611ef35781548b820152908501908301611eda565b505084890196505b50505050505092915050565b6000611f138288611e6d565b6b3c636972636c652063783d2760a01b8152611f32600c820188611e6d565b905065272063793d2760d01b8152611f4d6006820187611e6d565b9050642720723d2760d81b8152611f676005820186611e6d565b905075272066696c6c3d276e6f6e6527207374726f6b653d2760501b8152611f926016820185611e6d565b74139039ba3937b5b296bbb4b23a341e93999390179f60591b815260150198975050505050505050565b6000611fc88289611e6d565b683c7265637420783d2760b81b8152611fe46009820189611e6d565b9050642720793d2760d81b8152611ffe6005820188611e6d565b905068272077696474683d2760b81b815261201c6009820187611e6d565b90506927206865696768743d2760b01b815261203b600a820186611e6d565b905067272066696c6c3d2760c01b81526120586008820185611e6d565b631390179f60e11b81526004019998505050505050505050565b600061209061208a6120848488611e6d565b86611e6d565b84611e6d565b95945050505050565b7f7b226e616d65223a202254686520576f726c6473204c617267657374204e4654815261088b60f21b60208201527f226465736372697074696f6e223a202254686520576f726c6473204c6172676560228201527f7374204e465420666f7220536d617274436f6e2032303232222c00000000000060428201527f22696d616765223a2022646174613a696d6167652f7376672b786d6c3b626173605c82015263194d8d0b60e21b607c8201526000825161215b8160808501602087016118e7565b61227d60f01b6080939091019283015250608201919050565b7f646174613a6170706c69636174696f6e2f6a736f6e3b6261736536342c0000008152600082516121ac81601d8501602087016118e7565b91909101601d0192915050565b6001600160a01b03858116825284166020820152604081018390526080606082018190526000906121ec90830184611913565b9695505050505050565b60006020828403121561220857600080fd5b81516115ec816118b4565b600081600019048311821515161561222d5761222d611d09565b50029056fe4142434445464748494a4b4c4d4e4f505152535455565758595a6162636465666768696a6b6c6d6e6f707172737475767778797a303132333435363738392b2fa164736f6c634300080a000a4552433732313a207472616e7366657220746f206e6f6e204552433732315265",
    "linkReferences": {}
  }
}