{
  "abi": [
    {
      "inputs": [
        {
          "internalType": "uint64",
          "name": "subscriptionId",
          "type": "uint64"
        },
        {
          "internalType": "address",
          "name": "vrfCoordinator",
          "type": "address"
        },
        {
          "internalType": "address",
          "name": "link",
          "type": "address"
        },
        {
          "internalType": "bytes32",
          "name": "keyHash",
          "type": "bytes32"
        }
      ],
      "stateMutability": "nonpayable",
      "type": "constructor"
    },
    {
      "inputs": [
        {
          "internalType": "address",
          "name": "have",
          "type": "address"
        },
        {
          "internalType": "address",
          "name": "want",
          "type": "address"
        }
      ],
      "name": "OnlyCoordinatorCanFulfill",
      "type": "error"
    },
    {
      "anonymous": false,
      "inputs": [
        {
          "indexed": true,
          "internalType": "address",
          "name": "owner",
          "type": "address"
        },
        {
          "indexed": true,
          "internalType": "address",
          "name": "approved",
          "type": "address"
        },
        {
          "indexed": true,
          "internalType": "uint256",
          "name": "tokenId",
          "type": "uint256"
        }
      ],
      "name": "Approval",
      "type": "event"
    },
    {
      "anonymous": false,
      "inputs": [
        {
          "indexed": true,
          "internalType": "address",
          "name": "owner",
          "type": "address"
        },
        {
          "indexed": true,
          "internalType": "address",
          "name": "operator",
          "type": "address"
        },
        {
          "indexed": false,
          "internalType": "bool",
          "name": "approved",
          "type": "bool"
        }
      ],
      "name": "ApprovalForAll",
      "type": "event"
    },
    {
      "anonymous": false,
      "inputs": [
        {
          "indexed": true,
          "internalType": "address",
          "name": "previousOwner",
          "type": "address"
        },
        {
          "indexed": true,
          "internalType": "address",
          "name": "newOwner",
          "type": "address"
        }
      ],
      "name": "OwnershipTransferred",
      "type": "event"
    },
    {
      "anonymous": false,
      "inputs": [
        {
          "indexed": false,
          "internalType": "string",
          "name": "notification",
          "type": "string"
        }
      ],
      "name": "SpotClaimed",
      "type": "event"
    },
    {
      "anonymous": false,
      "inputs": [
        {
          "indexed": true,
          "internalType": "address",
          "name": "from",
          "type": "address"
        },
        {
          "indexed": true,
          "internalType": "address",
          "name": "to",
          "type": "address"
        },
        {
          "indexed": true,
          "internalType": "uint256",
          "name": "tokenId",
          "type": "uint256"
        }
      ],
      "name": "Transfer",
      "type": "event"
    },
    {
      "inputs": [
        {
          "internalType": "uint256",
          "name": "",
          "type": "uint256"
        },
        {
          "internalType": "uint256",
          "name": "",
          "type": "uint256"
        }
      ],
      "name": "_totalRandomWords",
      "outputs": [
        {
          "internalType": "uint256",
          "name": "",
          "type": "uint256"
        }
      ],
      "stateMutability": "view",
      "type": "function"
    },
    {
      "inputs": [
        {
          "internalType": "address",
          "name": "to",
          "type": "address"
        },
        {
          "internalType": "uint256",
          "name": "tokenId",
          "type": "uint256"
        }
      ],
      "name": "approve",
      "outputs": [],
      "stateMutability": "nonpayable",
      "type": "function"
    },
    {
      "inputs": [
        {
          "internalType": "address",
          "name": "owner",
          "type": "address"
        }
      ],
      "name": "balanceOf",
      "outputs": [
        {
          "internalType": "uint256",
          "name": "",
          "type": "uint256"
        }
      ],
      "stateMutability": "view",
      "type": "function"
    },
    {
      "inputs": [
        {
          "internalType": "uint32",
          "name": "_callbackGasLimit",
          "type": "uint32"
        }
      ],
      "name": "changeCallbackGas",
      "outputs": [],
      "stateMutability": "nonpayable",
      "type": "function"
    },
    {
      "inputs": [],
      "name": "claimYourSpot",
      "outputs": [],
      "stateMutability": "nonpayable",
      "type": "function"
    },
    {
      "inputs": [
        {
          "internalType": "uint256",
          "name": "tokenId",
          "type": "uint256"
        }
      ],
      "name": "getApproved",
      "outputs": [
        {
          "internalType": "address",
          "name": "",
          "type": "address"
        }
      ],
      "stateMutability": "view",
      "type": "function"
    },
    {
      "inputs": [
        {
          "internalType": "uint256",
          "name": "_id",
          "type": "uint256"
        }
      ],
      "name": "getRandomwords",
      "outputs": [
        {
          "internalType": "uint256[]",
          "name": "",
          "type": "uint256[]"
        }
      ],
      "stateMutability": "view",
      "type": "function"
    },
    {
      "inputs": [],
      "name": "height",
      "outputs": [
        {
          "internalType": "uint256",
          "name": "",
          "type": "uint256"
        }
      ],
      "stateMutability": "view",
      "type": "function"
    },
    {
      "inputs": [
        {
          "internalType": "address",
          "name": "owner",
          "type": "address"
        },
        {
          "internalType": "address",
          "name": "operator",
          "type": "address"
        }
      ],
      "name": "isApprovedForAll",
      "outputs": [
        {
          "internalType": "bool",
          "name": "",
          "type": "bool"
        }
      ],
      "stateMutability": "view",
      "type": "function"
    },
    {
      "inputs": [
        {
          "internalType": "address",
          "name": "to",
          "type": "address"
        }
      ],
      "name": "mintNFT",
      "outputs": [],
      "stateMutability": "nonpayable",
      "type": "function"
    },
    {
      "inputs": [],
      "name": "name",
      "outputs": [
        {
          "internalType": "string",
          "name": "",
          "type": "string"
        }
      ],
      "stateMutability": "view",
      "type": "function"
    },
    {
      "inputs": [],
      "name": "numWords",
      "outputs": [
        {
          "internalType": "uint32",
          "name": "",
          "type": "uint32"
        }
      ],
      "stateMutability": "view",
      "type": "function"
    },
    {
      "inputs": [],
      "name": "owner",
      "outputs": [
        {
          "internalType": "address",
          "name": "",
          "type": "address"
        }
      ],
      "stateMutability": "view",
      "type": "function"
    },
    {
      "inputs": [
        {
          "internalType": "uint256",
          "name": "tokenId",
          "type": "uint256"
        }
      ],
      "name": "ownerOf",
      "outputs": [
        {
          "internalType": "address",
          "name": "",
          "type": "address"
        }
      ],
      "stateMutability": "view",
      "type": "function"
    },
    {
      "inputs": [
        {
          "internalType": "uint256",
          "name": "requestId",
          "type": "uint256"
        },
        {
          "internalType": "uint256[]",
          "name": "randomWords",
          "type": "uint256[]"
        }
      ],
      "name": "rawFulfillRandomWords",
      "outputs": [],
      "stateMutability": "nonpayable",
      "type": "function"
    },
    {
      "inputs": [],
      "name": "renounceOwnership",
      "outputs": [],
      "stateMutability": "nonpayable",
      "type": "function"
    },
    {
      "inputs": [
        {
          "internalType": "uint256",
          "name": "",
          "type": "uint256"
        }
      ],
      "name": "requestIdToAddress",
      "outputs": [
        {
          "internalType": "address",
          "name": "",
          "type": "address"
        }
      ],
      "stateMutability": "view",
      "type": "function"
    },
    {
      "inputs": [
        {
          "internalType": "uint256",
          "name": "",
          "type": "uint256"
        }
      ],
      "name": "s_randomWords",
      "outputs": [
        {
          "internalType": "uint256",
          "name": "",
          "type": "uint256"
        }
      ],
      "stateMutability": "view",
      "type": "function"
    },
    {
      "inputs": [],
      "name": "s_requestId",
      "outputs": [
        {
          "internalType": "uint256",
          "name": "",
          "type": "uint256"
        }
      ],
      "stateMutability": "view",
      "type": "function"
    },
    {
      "inputs": [
        {
          "internalType": "address",
          "name": "from",
          "type": "address"
        },
        {
          "internalType": "address",
          "name": "to",
          "type": "address"
        },
        {
          "internalType": "uint256",
          "name": "tokenId",
          "type": "uint256"
        }
      ],
      "name": "safeTransferFrom",
      "outputs": [],
      "stateMutability": "nonpayable",
      "type": "function"
    },
    {
      "inputs": [
        {
          "internalType": "address",
          "name": "from",
          "type": "address"
        },
        {
          "internalType": "address",
          "name": "to",
          "type": "address"
        },
        {
          "internalType": "uint256",
          "name": "tokenId",
          "type": "uint256"
        },
        {
          "internalType": "bytes",
          "name": "data",
          "type": "bytes"
        }
      ],
      "name": "safeTransferFrom",
      "outputs": [],
      "stateMutability": "nonpayable",
      "type": "function"
    },
    {
      "inputs": [
        {
          "internalType": "address",
          "name": "operator",
          "type": "address"
        },
        {
          "internalType": "bool",
          "name": "approved",
          "type": "bool"
        }
      ],
      "name": "setApprovalForAll",
      "outputs": [],
      "stateMutability": "nonpayable",
      "type": "function"
    },
    {
      "inputs": [
        {
          "internalType": "bytes4",
          "name": "interfaceId",
          "type": "bytes4"
        }
      ],
      "name": "supportsInterface",
      "outputs": [
        {
          "internalType": "bool",
          "name": "",
          "type": "bool"
        }
      ],
      "stateMutability": "view",
      "type": "function"
    },
    {
      "inputs": [],
      "name": "symbol",
      "outputs": [
        {
          "internalType": "string",
          "name": "",
          "type": "string"
        }
      ],
      "stateMutability": "view",
      "type": "function"
    },
    {
      "inputs": [
        {
          "internalType": "uint256",
          "name": "",
          "type": "uint256"
        }
      ],
      "name": "tokenURI",
      "outputs": [
        {
          "internalType": "string",
          "name": "",
          "type": "string"
        }
      ],
      "stateMutability": "view",
      "type": "function"
    },
    {
      "inputs": [
        {
          "internalType": "address",
          "name": "from",
          "type": "address"
        },
        {
          "internalType": "address",
          "name": "to",
          "type": "address"
        },
        {
          "internalType": "uint256",
          "name": "tokenId",
          "type": "uint256"
        }
      ],
      "name": "transferFrom",
      "outputs": [],
      "stateMutability": "nonpayable",
      "type": "function"
    },
    {
      "inputs": [
        {
          "internalType": "address",
          "name": "newOwner",
          "type": "address"
        }
      ],
      "name": "transferOwnership",
      "outputs": [],
      "stateMutability": "nonpayable",
      "type": "function"
    },
    {
      "inputs": [],
      "name": "width",
      "outputs": [
        {
          "internalType": "uint256",
          "name": "",
          "type": "uint256"
        }
      ],
      "stateMutability": "view",
      "type": "function"
    }
  ],
  "bytecode": {
    "object": "0x6101406040526009805465ffffffffffff19166403000f423f1790556002610120526000600d55610780600f8190556104386010556200004b9062000276602090811b62000e7417901c565b620000636010546200027660201b62000e741760201c565b6200007b600f546200027660201b62000e741760201c565b620000936010546200027660201b62000e741760201c565b604051602001620000a8949392919062000593565b60405160208183030381529060405260119080519060200190620000ce929190620003ec565b50604080518082019091526006808252651e17b9bb339f60d11b6020909201918252620000fe91601291620003ec565b506040805160a081018252600760608201818152661199999b1b232360c91b6080840152825282518084018452818152662330304646393360c81b60208281019190915280840191909152835180850185529182526611a3232323232360c91b9082015291810191909152620001799060139060036200047b565b503480156200018757600080fd5b5060405162002da738038062002da7833981016040819052620001aa91620006cb565b604080518082018252601d81527f546865204c61726765737420436f6c6c61626f726174697665204e4654000000602080830191825283518085019094526006845265151310d3919560d21b908401526001600160a01b03861660805281519192916200021a91600091620003ec565b50805162000230906001906020840190620003ec565b5050506200024d620002476200039660201b60201c565b6200039a565b6001600160a01b0392831660a052911660c052610100526001600160401b031660e0526200083d565b6060816000036200029e5750506040805180820190915260018152600360fc1b602082015290565b8160005b8115620002ce5780620002b58162000740565b9150620002c69050600a8362000772565b9150620002a2565b6000816001600160401b03811115620002eb57620002eb62000789565b6040519080825280601f01601f19166020018201604052801562000316576020820181803683370190505b5090505b84156200038e576200032e6001836200079f565b91506200033d600a86620007b9565b6200034a906030620007d0565b60f81b818381518110620003625762000362620007eb565b60200101906001600160f81b031916908160001a90535062000386600a8662000772565b94506200031a565b949350505050565b3390565b600780546001600160a01b038381166001600160a01b0319831681179093556040519116919082907f8be0079c531659141344cd1fd0a4f28419497f9722a3daafe3b4186f6b6457e090600090a35050565b828054620003fa9062000801565b90600052602060002090601f0160209004810192826200041e576000855562000469565b82601f106200043957805160ff191683800117855562000469565b8280016001018555821562000469579182015b82811115620004695782518255916020019190600101906200044c565b5062000477929150620004db565b5090565b828054828255906000526020600020908101928215620004cd579160200282015b82811115620004cd5782518051620004bc918491602090910190620003ec565b50916020019190600101906200049c565b5062000477929150620004f2565b5b80821115620004775760008155600101620004dc565b808211156200047757600062000509828262000513565b50600101620004f2565b508054620005219062000801565b6000825580601f1062000532575050565b601f016020900490600052602060002090810190620005529190620004db565b50565b6000815160005b818110156200057857602081850181015186830152016200055c565b8181111562000588576000828601525b509290920192915050565b7f3c73766720786d6c6e733d27687474703a2f2f7777772e77332e6f72672f323081527f30302f737667272076696577426f783d2730203020000000000000000000000060208201526000620005ed603583018762000555565b600160fd1b815262000603600182018762000555565b90507f27207072657365727665417370656374526174696f3d27784d6964594d69642081526536b2b2ba139f60d11b60208201526c3c726563742077696474683d2760981b60268201526200065c603382018662000555565b90506927206865696768743d2760b01b81526200067d600a82018562000555565b7f272066696c6c3d272331433143314327202f3e000000000000000000000000008152601301979650505050505050565b80516001600160a01b0381168114620006c657600080fd5b919050565b60008060008060808587031215620006e257600080fd5b84516001600160401b0381168114620006fa57600080fd5b93506200070a60208601620006ae565b92506200071a60408601620006ae565b6060959095015193969295505050565b634e487b7160e01b600052601160045260246000fd5b6000600182016200075557620007556200072a565b5060010190565b634e487b7160e01b600052601260045260246000fd5b6000826200078457620007846200075c565b500490565b634e487b7160e01b600052604160045260246000fd5b600082821015620007b457620007b46200072a565b500390565b600082620007cb57620007cb6200075c565b500690565b60008219821115620007e657620007e66200072a565b500190565b634e487b7160e01b600052603260045260246000fd5b600181811c908216806200081657607f821691505b6020821081036200083757634e487b7160e01b600052602260045260246000fd5b50919050565b60805160a05160c05160e051610100516101205161250f620008986000396000818161032001526107b4015260006107400152600061076f01526000505060006107dd01526000818161068001526106c2015261250f6000f3fe608060405234801561001057600080fd5b50600436106101c45760003560e01c8063788fc5d4116100f9578063b88d4fde11610097578063e89e106a11610071578063e89e106a146103e5578063e985e9c5146103ee578063f2fde38b1461042a578063f6eaffc81461043d57600080fd5b8063b88d4fde1461039f578063c87b56dd146103b2578063d3bd51c4146103c557600080fd5b80638da5cb5b116100d35780638da5cb5b1461036a57806395d89b411461037b5780639ededf7714610383578063a22cb4651461038c57600080fd5b8063788fc5d4146103085780637ccfd7fc1461031b5780638747e9f21461035757600080fd5b8063301cc909116101665780636352211e116101405780636352211e146102b1578063637c4320146102c457806370a08231146102ed578063715018a61461030057600080fd5b8063301cc9091461028357806342842e0e1461028b57806354ba0f271461029e57600080fd5b8063095ea7b3116101a2578063095ea7b3146102315780630ef26743146102465780631fe543e31461025d57806323b872dd1461027057600080fd5b806301ffc9a7146101c957806306fdde03146101f1578063081812fc14610206575b600080fd5b6101dc6101d7366004611ac2565b610450565b60405190151581526020015b60405180910390f35b6101f96104a2565b6040516101e89190611b3e565b610219610214366004611b51565b610534565b6040516001600160a01b0390911681526020016101e8565b61024461023f366004611b86565b61055b565b005b61024f60105481565b6040519081526020016101e8565b61024461026b366004611bf7565b610675565b61024461027e366004611ca9565b6106fd565b61024461072e565b610244610299366004611ca9565b610857565b6102446102ac366004611ce5565b610872565b6102196102bf366004611b51565b610931565b6102196102d2366004611b51565b600c602052600090815260409020546001600160a01b031681565b61024f6102fb366004611ce5565b610991565b610244610a17565b610244610316366004611d00565b610a2b565b6103427f000000000000000000000000000000000000000000000000000000000000000081565b60405163ffffffff90911681526020016101e8565b61024f610365366004611d26565b610a4f565b6007546001600160a01b0316610219565b6101f9610a80565b61024f600f5481565b61024461039a366004611d48565b610a8f565b6102446103ad366004611d84565b610a9a565b6101f96103c0366004611b51565b610ad2565b6103d86103d3366004611b51565b610d78565b6040516101e89190611e44565b61024f600b5481565b6101dc6103fc366004611e88565b6001600160a01b03918216600090815260056020908152604080832093909416825291909152205460ff1690565b610244610438366004611ce5565b610dda565b61024f61044b366004611b51565b610e53565b60006001600160e01b031982166380ac58cd60e01b148061048157506001600160e01b03198216635b5e139f60e01b145b8061049c57506301ffc9a760e01b6001600160e01b03198316145b92915050565b6060600080546104b190611ebb565b80601f01602080910402602001604051908101604052809291908181526020018280546104dd90611ebb565b801561052a5780601f106104ff5761010080835404028352916020019161052a565b820191906000526020600020905b81548152906001019060200180831161050d57829003601f168201915b5050505050905090565b600061053f82610f7d565b506000908152600460205260409020546001600160a01b031690565b600061056682610931565b9050806001600160a01b0316836001600160a01b0316036105d85760405162461bcd60e51b815260206004820152602160248201527f4552433732313a20617070726f76616c20746f2063757272656e74206f776e656044820152603960f91b60648201526084015b60405180910390fd5b336001600160a01b03821614806105f457506105f481336103fc565b6106665760405162461bcd60e51b815260206004820152603d60248201527f4552433732313a20617070726f76652063616c6c6572206973206e6f7420746f60448201527f6b656e206f776e6572206f7220617070726f76656420666f7220616c6c00000060648201526084016105cf565b6106708383610fdc565b505050565b336001600160a01b037f000000000000000000000000000000000000000000000000000000000000000016146106ef5760405163073e64fd60e21b81523360048201526001600160a01b037f00000000000000000000000000000000000000000000000000000000000000001660248201526044016105cf565b6106f9828261104a565b5050565b6107073382611126565b6107235760405162461bcd60e51b81526004016105cf90611ef5565b6106708383836111a4565b6009546040516305d3b1d360e41b81527f0000000000000000000000000000000000000000000000000000000000000000600482015267ffffffffffffffff7f0000000000000000000000000000000000000000000000000000000000000000166024820152640100000000820461ffff16604482015263ffffffff91821660648201527f000000000000000000000000000000000000000000000000000000000000000090911660848201527f00000000000000000000000000000000000000000000000000000000000000006001600160a01b031690635d3b1d309060a4016020604051808303816000875af115801561082e573d6000803e3d6000fd5b505050506040513d601f19601f820116820180604052508101906108529190611f42565b600b55565b61067083838360405180602001604052806000815250610a9a565b61087a61134a565b600061088560085490565b9050610895600880546001019055565b61089f82826113a4565b6000601160126040516020016108b6929190611ff4565b604051602081830303815290604052905060006108f96108d5836113be565b6040516020016108e59190612009565b6040516020818303038152906040526113be565b905060008160405160200161090e91906120f5565b604051602081830303815290604052905061092a600082611511565b5050505050565b6000818152600260205260408120546001600160a01b03168061049c5760405162461bcd60e51b8152602060048201526018602482015277115490cdcc8c4e881a5b9d985b1a59081d1bdad95b88125160421b60448201526064016105cf565b60006001600160a01b0382166109fb5760405162461bcd60e51b815260206004820152602960248201527f4552433732313a2061646472657373207a65726f206973206e6f7420612076616044820152683634b21037bbb732b960b91b60648201526084016105cf565b506001600160a01b031660009081526003602052604090205490565b610a1f61134a565b610a2960006115ab565b565b610a3361134a565b6009805463ffffffff191663ffffffff92909216919091179055565b600e6020528160005260406000208181548110610a6b57600080fd5b90600052602060002001600091509150505481565b6060600180546104b190611ebb565b6106f93383836115fd565b610aa43383611126565b610ac05760405162461bcd60e51b81526004016105cf90611ef5565b610acc848484846116cb565b50505050565b60408051602081019091526000808252606091905b600d54811015610d10576000818152600e6020908152604080832080548251818502810185019093528083529192909190830182828015610b4757602002820191906000526020600020905b815481526020019060010190808311610b33575b505050505090506000600382600181518110610b6557610b6561213a565b6020026020010151610b779190612166565b9050600081600003610b8b5750600e610b97565b81600103610b97575060035b81600203610c555784610bd0600f5485600081518110610bb957610bb961213a565b6020026020010151610bcb9190612166565b610e74565b610be960105486600081518110610bb957610bb961213a565b6013600387600081518110610c0057610c0061213a565b6020026020010151610c129190612166565b81548110610c2257610c2261213a565b90600052602060002001604051602001610c3f949392919061217a565b6040516020818303038152906040529450610cfa565b84610c6f600f5485600081518110610bb957610bb961213a565b610c8860105486600081518110610bb957610bb961213a565b610c9184610e74565b6013600388600081518110610ca857610ca861213a565b6020026020010151610cba9190612166565b81548110610cca57610cca61213a565b90600052602060002001604051602001610ce895949392919061223d565b60405160208183030381529060405294505b5050508080610d0890612323565b915050610ae7565b5060006011826012604051602001610d2a9392919061233c565b60405160208183030381529060405290506000610d496108d5836113be565b9050600081604051602001610d5e91906120f5565b60408051601f198184030181529190529695505050505050565b6000818152600e6020908152604091829020805483518184028101840190945280845260609392830182828015610dce57602002820191906000526020600020905b815481526020019060010190808311610dba575b50505050509050919050565b610de261134a565b6001600160a01b038116610e475760405162461bcd60e51b815260206004820152602660248201527f4f776e61626c653a206e6577206f776e657220697320746865207a65726f206160448201526564647265737360d01b60648201526084016105cf565b610e50816115ab565b50565b600a8181548110610e6357600080fd5b600091825260209091200154905081565b606081600003610e9b5750506040805180820190915260018152600360fc1b602082015290565b8160005b8115610ec55780610eaf81612323565b9150610ebe9050600a8361236f565b9150610e9f565b60008167ffffffffffffffff811115610ee057610ee0611bb0565b6040519080825280601f01601f191660200182016040528015610f0a576020820181803683370190505b5090505b8415610f7557610f1f600183612383565b9150610f2c600a86612166565b610f3790603061239a565b60f81b818381518110610f4c57610f4c61213a565b60200101906001600160f81b031916908160001a905350610f6e600a8661236f565b9450610f0e565b949350505050565b6000818152600260205260409020546001600160a01b0316610e505760405162461bcd60e51b8152602060048201526018602482015277115490cdcc8c4e881a5b9d985b1a59081d1bdad95b88125160421b60448201526064016105cf565b600081815260046020526040902080546001600160a01b0319166001600160a01b038416908117909155819061101182610931565b6001600160a01b03167f8c5be1e5ebec7d5bd14f71427d1e84f3dd0314c0f7b2291e5b200ac8c7c3b92560405160405180910390a45050565b805161105d90600a9060208401906119d9565b50600d546000908152600e602090815260409091208251611080928401906119d9565b506001600d6000828254611094919061239a565b9091555050600b546000908152600c60205260409081902080546001600160a01b03191633179055517f01c8bd4e8ad3259729870d1aed76771590a5e8e803a5511f47f874a1a252f2879061111a906020808252601b908201527f596f75722073706f7420686173206265656e20636c61696d6564210000000000604082015260600190565b60405180910390a15050565b60008061113283610931565b9050806001600160a01b0316846001600160a01b0316148061117957506001600160a01b0380821660009081526005602090815260408083209388168352929052205460ff165b80610f755750836001600160a01b031661119284610534565b6001600160a01b031614949350505050565b826001600160a01b03166111b782610931565b6001600160a01b0316146111dd5760405162461bcd60e51b81526004016105cf906123b2565b6001600160a01b03821661123f5760405162461bcd60e51b8152602060048201526024808201527f4552433732313a207472616e7366657220746f20746865207a65726f206164646044820152637265737360e01b60648201526084016105cf565b826001600160a01b031661125282610931565b6001600160a01b0316146112785760405162461bcd60e51b81526004016105cf906123b2565b600081815260046020908152604080832080546001600160a01b03191690556001600160a01b0386168352600390915281208054600192906112bb908490612383565b90915550506001600160a01b03821660009081526003602052604081208054600192906112e990849061239a565b909155505060008181526002602052604080822080546001600160a01b0319166001600160a01b0386811691821790925591518493918716917fddf252ad1be2c89b69c2b068fc378daa952ba7f163c4a11628f55a4df523b3ef91a4505050565b6007546001600160a01b03163314610a295760405162461bcd60e51b815260206004820181905260248201527f4f776e61626c653a2063616c6c6572206973206e6f7420746865206f776e657260448201526064016105cf565b6106f98282604051806020016040528060008152506116fe565b606081516000036113dd57505060408051602081019091526000815290565b60006040518060600160405280604081526020016124c3604091399050600060038451600261140c919061239a565b611416919061236f565b6114219060046123f7565b67ffffffffffffffff81111561143957611439611bb0565b6040519080825280601f01601f191660200182016040528015611463576020820181803683370190505b509050600182016020820185865187015b808210156114cf576003820191508151603f8160121c168501518453600184019350603f81600c1c168501518453600184019350603f8160061c168501518453600184019350603f8116850151845350600183019250611474565b50506003865106600181146114eb57600281146114fe57611506565b603d6001830353603d6002830353611506565b603d60018303535b509195945050505050565b6000828152600260205260409020546001600160a01b031661158c5760405162461bcd60e51b815260206004820152602e60248201527f45524337323155524953746f726167653a2055524920736574206f66206e6f6e60448201526d32bc34b9ba32b73a103a37b5b2b760911b60648201526084016105cf565b6000828152600660209081526040909120825161067092840190611a24565b600780546001600160a01b038381166001600160a01b0319831681179093556040519116919082907f8be0079c531659141344cd1fd0a4f28419497f9722a3daafe3b4186f6b6457e090600090a35050565b816001600160a01b0316836001600160a01b03160361165e5760405162461bcd60e51b815260206004820152601960248201527f4552433732313a20617070726f766520746f2063616c6c65720000000000000060448201526064016105cf565b6001600160a01b03838116600081815260056020908152604080832094871680845294825291829020805460ff191686151590811790915591519182527f17307eab39ab6107e8899845ad3d59bd9653f200f220920489ca2b5937696c31910160405180910390a3505050565b6116d68484846111a4565b6116e284848484611731565b610acc5760405162461bcd60e51b81526004016105cf90612416565b6117088383611832565b6117156000848484611731565b6106705760405162461bcd60e51b81526004016105cf90612416565b60006001600160a01b0384163b1561182757604051630a85bd0160e11b81526001600160a01b0385169063150b7a0290611775903390899088908890600401612468565b6020604051808303816000875af19250505080156117b0575060408051601f3d908101601f191682019092526117ad918101906124a5565b60015b61180d573d8080156117de576040519150601f19603f3d011682016040523d82523d6000602084013e6117e3565b606091505b5080516000036118055760405162461bcd60e51b81526004016105cf90612416565b805181602001fd5b6001600160e01b031916630a85bd0160e11b149050610f75565b506001949350505050565b6001600160a01b0382166118885760405162461bcd60e51b815260206004820181905260248201527f4552433732313a206d696e7420746f20746865207a65726f206164647265737360448201526064016105cf565b6000818152600260205260409020546001600160a01b0316156118ed5760405162461bcd60e51b815260206004820152601c60248201527f4552433732313a20746f6b656e20616c7265616479206d696e7465640000000060448201526064016105cf565b6000818152600260205260409020546001600160a01b0316156119525760405162461bcd60e51b815260206004820152601c60248201527f4552433732313a20746f6b656e20616c7265616479206d696e7465640000000060448201526064016105cf565b6001600160a01b038216600090815260036020526040812080546001929061197b90849061239a565b909155505060008181526002602052604080822080546001600160a01b0319166001600160a01b03861690811790915590518392907fddf252ad1be2c89b69c2b068fc378daa952ba7f163c4a11628f55a4df523b3ef908290a45050565b828054828255906000526020600020908101928215611a14579160200282015b82811115611a145782518255916020019190600101906119f9565b50611a20929150611a97565b5090565b828054611a3090611ebb565b90600052602060002090601f016020900481019282611a525760008555611a14565b82601f10611a6b57805160ff1916838001178555611a14565b82800160010185558215611a145791820182811115611a145782518255916020019190600101906119f9565b5b80821115611a205760008155600101611a98565b6001600160e01b031981168114610e5057600080fd5b600060208284031215611ad457600080fd5b8135611adf81611aac565b9392505050565b60005b83811015611b01578181015183820152602001611ae9565b83811115610acc5750506000910152565b60008151808452611b2a816020860160208601611ae6565b601f01601f19169290920160200192915050565b602081526000611adf6020830184611b12565b600060208284031215611b6357600080fd5b5035919050565b80356001600160a01b0381168114611b8157600080fd5b919050565b60008060408385031215611b9957600080fd5b611ba283611b6a565b946020939093013593505050565b634e487b7160e01b600052604160045260246000fd5b604051601f8201601f1916810167ffffffffffffffff81118282101715611bef57611bef611bb0565b604052919050565b60008060408385031215611c0a57600080fd5b8235915060208084013567ffffffffffffffff80821115611c2a57600080fd5b818601915086601f830112611c3e57600080fd5b813581811115611c5057611c50611bb0565b8060051b9150611c61848301611bc6565b8181529183018401918481019089841115611c7b57600080fd5b938501935b83851015611c9957843582529385019390850190611c80565b8096505050505050509250929050565b600080600060608486031215611cbe57600080fd5b611cc784611b6a565b9250611cd560208501611b6a565b9150604084013590509250925092565b600060208284031215611cf757600080fd5b611adf82611b6a565b600060208284031215611d1257600080fd5b813563ffffffff81168114611adf57600080fd5b60008060408385031215611d3957600080fd5b50508035926020909101359150565b60008060408385031215611d5b57600080fd5b611d6483611b6a565b915060208301358015158114611d7957600080fd5b809150509250929050565b60008060008060808587031215611d9a57600080fd5b611da385611b6a565b93506020611db2818701611b6a565b935060408601359250606086013567ffffffffffffffff80821115611dd657600080fd5b818801915088601f830112611dea57600080fd5b813581811115611dfc57611dfc611bb0565b611e0e601f8201601f19168501611bc6565b91508082528984828501011115611e2457600080fd5b808484018584013760008482840101525080935050505092959194509250565b6020808252825182820181905260009190848201906040850190845b81811015611e7c57835183529284019291840191600101611e60565b50909695505050505050565b60008060408385031215611e9b57600080fd5b611ea483611b6a565b9150611eb260208401611b6a565b90509250929050565b600181811c90821680611ecf57607f821691505b602082108103611eef57634e487b7160e01b600052602260045260246000fd5b50919050565b6020808252602d908201527f4552433732313a2063616c6c6572206973206e6f7420746f6b656e206f776e6560408201526c1c881bdc88185c1c1c9bdd9959609a1b606082015260800190565b600060208284031215611f5457600080fd5b5051919050565b8054600090600181811c9080831680611f7557607f831692505b60208084108203611f9657634e487b7160e01b600052602260045260246000fd5b818015611faa5760018114611fbb57611fe8565b60ff19861689528489019650611fe8565b60008881526020902060005b86811015611fe05781548b820152908501908301611fc7565b505084890196505b50505050505092915050565b6000610f756120038386611f5b565b84611f5b565b7f7b226e616d65223a2022546865204c61726765737420436f6c6c61626f7261748152681a5d9948139195088b60ba1b60208201527f226465736372697074696f6e223a2022546865204c61726765737420436f6c6c60298201527f61626f726174697665204e465420666f7220536d617274436f6e2032303232226049820152600b60fa1b60698201527f22696d616765223a2022646174613a696d6167652f7376672b786d6c3b626173606a82015263194d8d0b60e21b608a820152600082516120dc81608e850160208701611ae6565b61227d60f01b608e939091019283015250609001919050565b7f646174613a6170706c69636174696f6e2f6a736f6e3b6261736536342c00000081526000825161212d81601d850160208701611ae6565b91909101601d0192915050565b634e487b7160e01b600052603260045260246000fd5b634e487b7160e01b600052601260045260246000fd5b60008261217557612175612150565b500690565b6000855161218c818460208a01611ae6565b6b3c636972636c652063783d2760a01b90830190815285516121b581600c840160208a01611ae6565b65272063793d2760d01b600c929091019182015284516121dc816012840160208901611ae6565b7f2720723d2737272066696c6c3d276e6f6e6527207374726f6b653d270000000060129290910191820152612214602e820185611f5b565b74139039ba3937b5b296bbb4b23a341e93999390179f60591b8152601501979650505050505050565b6000865161224f818460208b01611ae6565b683c7265637420783d2760b81b9083019081528651612275816009840160208b01611ae6565b642720793d2760d81b60099290910191820152855161229b81600e840160208a01611ae6565b68272077696474683d2760b81b600e929091019182015284516122c5816017840160208901611ae6565b7327206865696768743d273134272066696c6c3d2760601b601792909101918201526122f4602b820185611f5b565b631390179f60e11b815260040198975050505050505050565b634e487b7160e01b600052601160045260246000fd5b6000600182016123355761233561230d565b5060010190565b60006123488286611f5b565b8451612358818360208901611ae6565b61236481830186611f5b565b979650505050505050565b60008261237e5761237e612150565b500490565b6000828210156123955761239561230d565b500390565b600082198211156123ad576123ad61230d565b500190565b60208082526025908201527f4552433732313a207472616e736665722066726f6d20696e636f72726563742060408201526437bbb732b960d91b606082015260800190565b60008160001904831182151516156124115761241161230d565b500290565b60208082526032908201527f4552433732313a207472616e7366657220746f206e6f6e20455243373231526560408201527131b2b4bb32b91034b6b83632b6b2b73a32b960711b606082015260800190565b6001600160a01b038581168252841660208201526040810183905260806060820181905260009061249b90830184611b12565b9695505050505050565b6000602082840312156124b757600080fd5b8151611adf81611aac56fe4142434445464748494a4b4c4d4e4f505152535455565758595a6162636465666768696a6b6c6d6e6f707172737475767778797a303132333435363738392b2fa164736f6c634300080d000a",
    "linkReferences": {}
  }
}