{
  "abi": [
    {
      "inputs": [
        {
          "internalType": "uint64",
          "name": "subscriptionId",
          "type": "uint64"
        },
        {
          "internalType": "address",
          "name": "vrfCoordinator",
          "type": "address"
        },
        {
          "internalType": "address",
          "name": "link",
          "type": "address"
        },
        {
          "internalType": "bytes32",
          "name": "keyHash",
          "type": "bytes32"
        }
      ],
      "stateMutability": "nonpayable",
      "type": "constructor"
    },
    {
      "inputs": [
        {
          "internalType": "address",
          "name": "have",
          "type": "address"
        },
        {
          "internalType": "address",
          "name": "want",
          "type": "address"
        }
      ],
      "name": "OnlyCoordinatorCanFulfill",
      "type": "error"
    },
    {
      "anonymous": false,
      "inputs": [
        {
          "indexed": true,
          "internalType": "address",
          "name": "owner",
          "type": "address"
        },
        {
          "indexed": true,
          "internalType": "address",
          "name": "approved",
          "type": "address"
        },
        {
          "indexed": true,
          "internalType": "uint256",
          "name": "tokenId",
          "type": "uint256"
        }
      ],
      "name": "Approval",
      "type": "event"
    },
    {
      "anonymous": false,
      "inputs": [
        {
          "indexed": true,
          "internalType": "address",
          "name": "owner",
          "type": "address"
        },
        {
          "indexed": true,
          "internalType": "address",
          "name": "operator",
          "type": "address"
        },
        {
          "indexed": false,
          "internalType": "bool",
          "name": "approved",
          "type": "bool"
        }
      ],
      "name": "ApprovalForAll",
      "type": "event"
    },
    {
      "anonymous": false,
      "inputs": [
        {
          "indexed": true,
          "internalType": "address",
          "name": "previousOwner",
          "type": "address"
        },
        {
          "indexed": true,
          "internalType": "address",
          "name": "newOwner",
          "type": "address"
        }
      ],
      "name": "OwnershipTransferred",
      "type": "event"
    },
    {
      "anonymous": false,
      "inputs": [
        {
          "indexed": false,
          "internalType": "string",
          "name": "notification",
          "type": "string"
        }
      ],
      "name": "SpotClaimed",
      "type": "event"
    },
    {
      "anonymous": false,
      "inputs": [
        {
          "indexed": true,
          "internalType": "address",
          "name": "from",
          "type": "address"
        },
        {
          "indexed": true,
          "internalType": "address",
          "name": "to",
          "type": "address"
        },
        {
          "indexed": true,
          "internalType": "uint256",
          "name": "tokenId",
          "type": "uint256"
        }
      ],
      "name": "Transfer",
      "type": "event"
    },
    {
      "inputs": [
        {
          "internalType": "address",
          "name": "to",
          "type": "address"
        },
        {
          "internalType": "uint256",
          "name": "tokenId",
          "type": "uint256"
        }
      ],
      "name": "approve",
      "outputs": [],
      "stateMutability": "nonpayable",
      "type": "function"
    },
    {
      "inputs": [
        {
          "internalType": "address",
          "name": "owner",
          "type": "address"
        }
      ],
      "name": "balanceOf",
      "outputs": [
        {
          "internalType": "uint256",
          "name": "",
          "type": "uint256"
        }
      ],
      "stateMutability": "view",
      "type": "function"
    },
    {
      "inputs": [
        {
          "internalType": "uint32",
          "name": "_callbackGasLimit",
          "type": "uint32"
        }
      ],
      "name": "changeCallbackGas",
      "outputs": [],
      "stateMutability": "nonpayable",
      "type": "function"
    },
    {
      "inputs": [],
      "name": "claimYourSpot",
      "outputs": [],
      "stateMutability": "nonpayable",
      "type": "function"
    },
    {
      "inputs": [
        {
          "internalType": "uint256",
          "name": "tokenId",
          "type": "uint256"
        }
      ],
      "name": "getApproved",
      "outputs": [
        {
          "internalType": "address",
          "name": "",
          "type": "address"
        }
      ],
      "stateMutability": "view",
      "type": "function"
    },
    {
      "inputs": [],
      "name": "getSVG",
      "outputs": [
        {
          "internalType": "string",
          "name": "SVG",
          "type": "string"
        }
      ],
      "stateMutability": "view",
      "type": "function"
    },
    {
      "inputs": [],
      "name": "height",
      "outputs": [
        {
          "internalType": "uint256",
          "name": "",
          "type": "uint256"
        }
      ],
      "stateMutability": "view",
      "type": "function"
    },
    {
      "inputs": [
        {
          "internalType": "address",
          "name": "owner",
          "type": "address"
        },
        {
          "internalType": "address",
          "name": "operator",
          "type": "address"
        }
      ],
      "name": "isApprovedForAll",
      "outputs": [
        {
          "internalType": "bool",
          "name": "",
          "type": "bool"
        }
      ],
      "stateMutability": "view",
      "type": "function"
    },
    {
      "inputs": [
        {
          "internalType": "address",
          "name": "to",
          "type": "address"
        }
      ],
      "name": "mintNFT",
      "outputs": [],
      "stateMutability": "nonpayable",
      "type": "function"
    },
    {
      "inputs": [],
      "name": "name",
      "outputs": [
        {
          "internalType": "string",
          "name": "",
          "type": "string"
        }
      ],
      "stateMutability": "view",
      "type": "function"
    },
    {
      "inputs": [],
      "name": "owner",
      "outputs": [
        {
          "internalType": "address",
          "name": "",
          "type": "address"
        }
      ],
      "stateMutability": "view",
      "type": "function"
    },
    {
      "inputs": [
        {
          "internalType": "uint256",
          "name": "tokenId",
          "type": "uint256"
        }
      ],
      "name": "ownerOf",
      "outputs": [
        {
          "internalType": "address",
          "name": "",
          "type": "address"
        }
      ],
      "stateMutability": "view",
      "type": "function"
    },
    {
      "inputs": [
        {
          "internalType": "uint256",
          "name": "requestId",
          "type": "uint256"
        },
        {
          "internalType": "uint256[]",
          "name": "randomWords",
          "type": "uint256[]"
        }
      ],
      "name": "rawFulfillRandomWords",
      "outputs": [],
      "stateMutability": "nonpayable",
      "type": "function"
    },
    {
      "inputs": [],
      "name": "renounceOwnership",
      "outputs": [],
      "stateMutability": "nonpayable",
      "type": "function"
    },
    {
      "inputs": [
        {
          "internalType": "uint256",
          "name": "",
          "type": "uint256"
        }
      ],
      "name": "requestIdToAddress",
      "outputs": [
        {
          "internalType": "address",
          "name": "",
          "type": "address"
        }
      ],
      "stateMutability": "view",
      "type": "function"
    },
    {
      "inputs": [
        {
          "internalType": "uint256",
          "name": "",
          "type": "uint256"
        }
      ],
      "name": "s_randomWords",
      "outputs": [
        {
          "internalType": "uint256",
          "name": "",
          "type": "uint256"
        }
      ],
      "stateMutability": "view",
      "type": "function"
    },
    {
      "inputs": [
        {
          "internalType": "address",
          "name": "from",
          "type": "address"
        },
        {
          "internalType": "address",
          "name": "to",
          "type": "address"
        },
        {
          "internalType": "uint256",
          "name": "tokenId",
          "type": "uint256"
        }
      ],
      "name": "safeTransferFrom",
      "outputs": [],
      "stateMutability": "nonpayable",
      "type": "function"
    },
    {
      "inputs": [
        {
          "internalType": "address",
          "name": "from",
          "type": "address"
        },
        {
          "internalType": "address",
          "name": "to",
          "type": "address"
        },
        {
          "internalType": "uint256",
          "name": "tokenId",
          "type": "uint256"
        },
        {
          "internalType": "bytes",
          "name": "data",
          "type": "bytes"
        }
      ],
      "name": "safeTransferFrom",
      "outputs": [],
      "stateMutability": "nonpayable",
      "type": "function"
    },
    {
      "inputs": [
        {
          "internalType": "address",
          "name": "operator",
          "type": "address"
        },
        {
          "internalType": "bool",
          "name": "approved",
          "type": "bool"
        }
      ],
      "name": "setApprovalForAll",
      "outputs": [],
      "stateMutability": "nonpayable",
      "type": "function"
    },
    {
      "inputs": [
        {
          "internalType": "bytes4",
          "name": "interfaceId",
          "type": "bytes4"
        }
      ],
      "name": "supportsInterface",
      "outputs": [
        {
          "internalType": "bool",
          "name": "",
          "type": "bool"
        }
      ],
      "stateMutability": "view",
      "type": "function"
    },
    {
      "inputs": [],
      "name": "symbol",
      "outputs": [
        {
          "internalType": "string",
          "name": "",
          "type": "string"
        }
      ],
      "stateMutability": "view",
      "type": "function"
    },
    {
      "inputs": [
        {
          "internalType": "uint256",
          "name": "tokenId",
          "type": "uint256"
        }
      ],
      "name": "tokenURI",
      "outputs": [
        {
          "internalType": "string",
          "name": "",
          "type": "string"
        }
      ],
      "stateMutability": "view",
      "type": "function"
    },
    {
      "inputs": [
        {
          "internalType": "address",
          "name": "from",
          "type": "address"
        },
        {
          "internalType": "address",
          "name": "to",
          "type": "address"
        },
        {
          "internalType": "uint256",
          "name": "tokenId",
          "type": "uint256"
        }
      ],
      "name": "transferFrom",
      "outputs": [],
      "stateMutability": "nonpayable",
      "type": "function"
    },
    {
      "inputs": [
        {
          "internalType": "address",
          "name": "newOwner",
          "type": "address"
        }
      ],
      "name": "transferOwnership",
      "outputs": [],
      "stateMutability": "nonpayable",
      "type": "function"
    },
    {
      "inputs": [],
      "name": "width",
      "outputs": [
        {
          "internalType": "uint256",
          "name": "",
          "type": "uint256"
        }
      ],
      "stateMutability": "view",
      "type": "function"
    }
  ],
  "bytecode": {
    "object": "0x610120604052600980546001600160501b03191666020003000f423f179055610780600d819055610438600e556200004390620002b0602090811b62000b4117901c565b6200005b600e54620002b060201b62000b411760201c565b62000073600d54620002b060201b62000b411760201c565b6200008b600e54620002b060201b62000b411760201c565b604051602001620000a09493929190620005cd565b60405160208183030381529060405260109080519060200190620000c692919062000426565b50604080518082019091526006808252651e17b9bb339f60d11b6020909201918252620000f69160119162000426565b50604080516020810191829052600090819052620001179160129162000426565b50604080516020810191829052600090819052620001389160139162000426565b506040805160a081018252600760608201818152661199999b1b232360c91b6080840152825282518084018452818152662330304646393360c81b60208281019190915280840191909152835180850185529182526611a3232323232360c91b9082015291810191909152620001b3906014906003620004b5565b50348015620001c157600080fd5b5060405162002d9738038062002d97833981016040819052620001e49162000705565b604080518082018252601d81527f546865204c61726765737420436f6c6c61626f726174697665204e4654000000602080830191825283518085019094526006845265151310d3919560d21b908401526001600160a01b0386166080528151919291620002549160009162000426565b5080516200026a90600190602084019062000426565b5050506200028762000281620003d060201b60201c565b620003d4565b6001600160a01b0392831660a052911660c052610100526001600160401b031660e05262000877565b606081600003620002d85750506040805180820190915260018152600360fc1b602082015290565b8160005b8115620003085780620002ef816200077a565b9150620003009050600a83620007ac565b9150620002dc565b6000816001600160401b03811115620003255762000325620007c3565b6040519080825280601f01601f19166020018201604052801562000350576020820181803683370190505b5090505b8415620003c85762000368600183620007d9565b915062000377600a86620007f3565b620003849060306200080a565b60f81b8183815181106200039c576200039c62000825565b60200101906001600160f81b031916908160001a905350620003c0600a86620007ac565b945062000354565b949350505050565b3390565b600780546001600160a01b038381166001600160a01b0319831681179093556040519116919082907f8be0079c531659141344cd1fd0a4f28419497f9722a3daafe3b4186f6b6457e090600090a35050565b82805462000434906200083b565b90600052602060002090601f016020900481019282620004585760008555620004a3565b82601f106200047357805160ff1916838001178555620004a3565b82800160010185558215620004a3579182015b82811115620004a357825182559160200191906001019062000486565b50620004b192915062000515565b5090565b82805482825590600052602060002090810192821562000507579160200282015b82811115620005075782518051620004f691849160209091019062000426565b5091602001919060010190620004d6565b50620004b19291506200052c565b5b80821115620004b1576000815560010162000516565b80821115620004b15760006200054382826200054d565b506001016200052c565b5080546200055b906200083b565b6000825580601f106200056c575050565b601f0160209004906000526020600020908101906200058c919062000515565b50565b6000815160005b81811015620005b2576020818501810151868301520162000596565b81811115620005c2576000828601525b509290920192915050565b7f3c73766720786d6c6e733d27687474703a2f2f7777772e77332e6f72672f323081527f30302f737667272076696577426f783d27302030200000000000000000000000602082015260006200062760358301876200058f565b600160fd1b81526200063d60018201876200058f565b90507f27207072657365727665417370656374526174696f3d27784d6964594d69642081526536b2b2ba139f60d11b60208201526c3c726563742077696474683d2760981b60268201526200069660338201866200058f565b90506927206865696768743d2760b01b8152620006b7600a8201856200058f565b7f272066696c6c3d272331433143314327202f3e000000000000000000000000008152601301979650505050505050565b80516001600160a01b03811681146200070057600080fd5b919050565b600080600080608085870312156200071c57600080fd5b84516001600160401b03811681146200073457600080fd5b93506200074460208601620006e8565b92506200075460408601620006e8565b6060959095015193969295505050565b634e487b7160e01b600052601160045260246000fd5b6000600182016200078f576200078f62000764565b5060010190565b634e487b7160e01b600052601260045260246000fd5b600082620007be57620007be62000796565b500490565b634e487b7160e01b600052604160045260246000fd5b600082821015620007ee57620007ee62000764565b500390565b60008262000805576200080562000796565b500690565b6000821982111562000820576200082062000764565b500190565b634e487b7160e01b600052603260045260246000fd5b600181811c908216806200085057607f821691505b6020821081036200087157634e487b7160e01b600052602260045260246000fd5b50919050565b60805160a05160c05160e051610100516124d7620008c0600039600061067f015260006106ae01526000505060006107060152600081816105bf015261060101526124d76000f3fe608060405234801561001057600080fd5b50600436106101735760003560e01c8063637c4320116100de5780639ededf7711610097578063c87b56dd11610071578063c87b56dd1461031a578063e985e9c51461032d578063f2fde38b14610369578063f6eaffc81461037c57600080fd5b80639ededf77146102eb578063a22cb465146102f4578063b88d4fde1461030757600080fd5b8063637c43201461027b57806370a08231146102a4578063715018a6146102b7578063788fc5d4146102bf5780638da5cb5b146102d257806395d89b41146102e357600080fd5b806323b872dd1161013057806323b872dd1461021f578063301cc9091461023257806342842e0e1461023a578063489187e81461024d57806354ba0f27146102555780636352211e1461026857600080fd5b806301ffc9a71461017857806306fdde03146101a0578063081812fc146101b5578063095ea7b3146101e05780630ef26743146101f55780631fe543e31461020c575b600080fd5b61018b610186366004611ab8565b61038f565b60405190151581526020015b60405180910390f35b6101a86103e1565b6040516101979190611b2d565b6101c86101c3366004611b40565b610473565b6040516001600160a01b039091168152602001610197565b6101f36101ee366004611b75565b61049a565b005b6101fe600e5481565b604051908152602001610197565b6101f361021a366004611be6565b6105b4565b6101f361022d366004611c98565b61063c565b6101f361066d565b6101f3610248366004611c98565b610780565b6101a861079b565b6101f3610263366004611cd4565b610854565b6101c8610276366004611b40565b61092c565b6101c8610289366004611b40565b600c602052600090815260409020546001600160a01b031681565b6101fe6102b2366004611cd4565b61098c565b6101f3610a12565b6101f36102cd366004611cef565b610a26565b6007546001600160a01b03166101c8565b6101a8610a4a565b6101fe600d5481565b6101f3610302366004611d15565b610a59565b6101f3610315366004611d51565b610a64565b6101a8610328366004611b40565b610a9c565b61018b61033b366004611e11565b6001600160a01b03918216600090815260056020908152604080832093909416825291909152205460ff1690565b6101f3610377366004611cd4565b610aa7565b6101fe61038a366004611b40565b610b20565b60006001600160e01b031982166380ac58cd60e01b14806103c057506001600160e01b03198216635b5e139f60e01b145b806103db57506301ffc9a760e01b6001600160e01b03198316145b92915050565b6060600080546103f090611e44565b80601f016020809104026020016040519081016040528092919081815260200182805461041c90611e44565b80156104695780601f1061043e57610100808354040283529160200191610469565b820191906000526020600020905b81548152906001019060200180831161044c57829003601f168201915b5050505050905090565b600061047e82610c4a565b506000908152600460205260409020546001600160a01b031690565b60006104a58261092c565b9050806001600160a01b0316836001600160a01b0316036105175760405162461bcd60e51b815260206004820152602160248201527f4552433732313a20617070726f76616c20746f2063757272656e74206f776e656044820152603960f91b60648201526084015b60405180910390fd5b336001600160a01b03821614806105335750610533813361033b565b6105a55760405162461bcd60e51b815260206004820152603d60248201527f4552433732313a20617070726f76652063616c6c6572206973206e6f7420746f60448201527f6b656e206f776e6572206f7220617070726f76656420666f7220616c6c000000606482015260840161050e565b6105af8383610ca9565b505050565b336001600160a01b037f0000000000000000000000000000000000000000000000000000000000000000161461062e5760405163073e64fd60e21b81523360048201526001600160a01b037f000000000000000000000000000000000000000000000000000000000000000016602482015260440161050e565b6106388282610d17565b5050565b6106463382610dc7565b6106625760405162461bcd60e51b815260040161050e90611e7e565b6105af838383610e45565b6009546040516305d3b1d360e41b81527f0000000000000000000000000000000000000000000000000000000000000000600482015267ffffffffffffffff7f0000000000000000000000000000000000000000000000000000000000000000166024820152640100000000820461ffff16604482015263ffffffff8083166064830152660100000000000090920490911660848201527f00000000000000000000000000000000000000000000000000000000000000006001600160a01b031690635d3b1d309060a4016020604051808303816000875af1158015610757573d6000803e3d6000fd5b505050506040513d601f19601f8201168201806040525081019061077b9190611ecb565b600b55565b6105af83838360405180602001604052806000815250610a64565b6060610830600f80546107ad90611e44565b80601f01602080910402602001604051908101604052809291908181526020018280546107d990611e44565b80156108265780601f106107fb57610100808354040283529160200191610826565b820191906000526020600020905b81548152906001019060200180831161080957829003601f168201915b5050505050610feb565b6040516020016108409190611ee4565b604051602081830303815290604052905090565b61085c61113e565b600061086760085490565b9050610877600880546001019055565b6108818282611198565b600060106012601160405160200161089b93929190611fc2565b60408051601f1981840301815291905280519091506108c190600f9060208401906119cf565b5060006108f46108d083610feb565b6040516020016108e09190611fe9565b604051602081830303815290604052610feb565b905060008160405160200161090991906120d5565b60405160208183030381529060405290506109256000826111b2565b5050505050565b6000818152600260205260408120546001600160a01b0316806103db5760405162461bcd60e51b8152602060048201526018602482015277115490cdcc8c4e881a5b9d985b1a59081d1bdad95b88125160421b604482015260640161050e565b60006001600160a01b0382166109f65760405162461bcd60e51b815260206004820152602960248201527f4552433732313a2061646472657373207a65726f206973206e6f7420612076616044820152683634b21037bbb732b960b91b606482015260840161050e565b506001600160a01b031660009081526003602052604090205490565b610a1a61113e565b610a24600061124c565b565b610a2e61113e565b6009805463ffffffff191663ffffffff92909216919091179055565b6060600180546103f090611e44565b61063833838361129e565b610a6e3383610dc7565b610a8a5760405162461bcd60e51b815260040161050e90611e7e565b610a968484848461136c565b50505050565b60606103db8261139f565b610aaf61113e565b6001600160a01b038116610b145760405162461bcd60e51b815260206004820152602660248201527f4f776e61626c653a206e6577206f776e657220697320746865207a65726f206160448201526564647265737360d01b606482015260840161050e565b610b1d8161124c565b50565b600a8181548110610b3057600080fd5b600091825260209091200154905081565b606081600003610b685750506040805180820190915260018152600360fc1b602082015290565b8160005b8115610b925780610b7c81612130565b9150610b8b9050600a8361215f565b9150610b6c565b60008167ffffffffffffffff811115610bad57610bad611b9f565b6040519080825280601f01601f191660200182016040528015610bd7576020820181803683370190505b5090505b8415610c4257610bec600183612173565b9150610bf9600a8661218a565b610c0490603061219e565b60f81b818381518110610c1957610c196121b6565b60200101906001600160f81b031916908160001a905350610c3b600a8661215f565b9450610bdb565b949350505050565b6000818152600260205260409020546001600160a01b0316610b1d5760405162461bcd60e51b8152602060048201526018602482015277115490cdcc8c4e881a5b9d985b1a59081d1bdad95b88125160421b604482015260640161050e565b600081815260046020526040902080546001600160a01b0319166001600160a01b0384169081179091558190610cde8261092c565b6001600160a01b03167f8c5be1e5ebec7d5bd14f71427d1e84f3dd0314c0f7b2291e5b200ac8c7c3b92560405160405180910390a45050565b8051610d2a90600a906020840190611a53565b50610d6981600081518110610d4157610d416121b6565b602002602001015182600181518110610d5c57610d5c6121b6565b60200260200101516114a7565b7f01c8bd4e8ad3259729870d1aed76771590a5e8e803a5511f47f874a1a252f287604051610dbb9060208082526010908201526f13995dc814dc1bdd0810db185a5b595960821b604082015260600190565b60405180910390a15050565b600080610dd38361092c565b9050806001600160a01b0316846001600160a01b03161480610e1a57506001600160a01b0380821660009081526005602090815260408083209388168352929052205460ff165b80610c425750836001600160a01b0316610e3384610473565b6001600160a01b031614949350505050565b826001600160a01b0316610e588261092c565b6001600160a01b031614610e7e5760405162461bcd60e51b815260040161050e906121cc565b6001600160a01b038216610ee05760405162461bcd60e51b8152602060048201526024808201527f4552433732313a207472616e7366657220746f20746865207a65726f206164646044820152637265737360e01b606482015260840161050e565b826001600160a01b0316610ef38261092c565b6001600160a01b031614610f195760405162461bcd60e51b815260040161050e906121cc565b600081815260046020908152604080832080546001600160a01b03191690556001600160a01b038616835260039091528120805460019290610f5c908490612173565b90915550506001600160a01b0382166000908152600360205260408120805460019290610f8a90849061219e565b909155505060008181526002602052604080822080546001600160a01b0319166001600160a01b0386811691821790925591518493918716917fddf252ad1be2c89b69c2b068fc378daa952ba7f163c4a11628f55a4df523b3ef91a4505050565b6060815160000361100a57505060408051602081019091526000815290565b600060405180606001604052806040815260200161248b6040913990506000600384516002611039919061219e565b611043919061215f565b61104e906004612211565b67ffffffffffffffff81111561106657611066611b9f565b6040519080825280601f01601f191660200182016040528015611090576020820181803683370190505b509050600182016020820185865187015b808210156110fc576003820191508151603f8160121c168501518453600184019350603f81600c1c168501518453600184019350603f8160061c168501518453600184019350603f81168501518453506001830192506110a1565b5050600386510660018114611118576002811461112b57611133565b603d6001830353603d6002830353611133565b603d60018303535b509195945050505050565b6007546001600160a01b03163314610a245760405162461bcd60e51b815260206004820181905260248201527f4f776e61626c653a2063616c6c6572206973206e6f7420746865206f776e6572604482015260640161050e565b610638828260405180602001604052806000815250611680565b6000828152600260205260409020546001600160a01b031661122d5760405162461bcd60e51b815260206004820152602e60248201527f45524337323155524953746f726167653a2055524920736574206f66206e6f6e60448201526d32bc34b9ba32b73a103a37b5b2b760911b606482015260840161050e565b600082815260066020908152604090912082516105af928401906119cf565b600780546001600160a01b038381166001600160a01b0319831681179093556040519116919082907f8be0079c531659141344cd1fd0a4f28419497f9722a3daafe3b4186f6b6457e090600090a35050565b816001600160a01b0316836001600160a01b0316036112ff5760405162461bcd60e51b815260206004820152601960248201527f4552433732313a20617070726f766520746f2063616c6c657200000000000000604482015260640161050e565b6001600160a01b03838116600081815260056020908152604080832094871680845294825291829020805460ff191686151590811790915591519182527f17307eab39ab6107e8899845ad3d59bd9653f200f220920489ca2b5937696c31910160405180910390a3505050565b611377848484610e45565b611383848484846116b3565b610a965760405162461bcd60e51b815260040161050e90612230565b60606113aa82610c4a565b600082815260066020526040812080546113c390611e44565b80601f01602080910402602001604051908101604052809291908181526020018280546113ef90611e44565b801561143c5780601f106114115761010080835404028352916020019161143c565b820191906000526020600020905b81548152906001019060200180831161141f57829003601f168201915b50505050509050600061145a60408051602081019091526000815290565b9050805160000361146c575092915050565b81511561149e578082604051602001611486929190612282565b60405160208183030381529060405292505050919050565b610c42846117b4565b60006114b460038361218a565b90506000816000036114c85750600e6114d4565b816001036114d4575060035b816002036115695760126114f4600d54866114ef919061218a565b610b41565b611505600e54876114ef919061218a565b601461151260038961218a565b81548110611522576115226121b6565b9060005260206000200160405160200161153f94939291906122b1565b604051602081830303815290604052601290805190602001906115639291906119cf565b506115f7565b601261157c600d54866114ef919061218a565b61158d600e54876114ef919061218a565b61159684610b41565b60146115a360038a61218a565b815481106115b3576115b36121b6565b906000526020600020016040516020016115d195949392919061236a565b604051602081830303815290604052601290805190602001906115f59291906119cf565b505b600060106012601160405160200161161193929190611fc2565b60408051601f19818403018152919052805190915061163790600f9060208401906119cf565b5060006116466108d083610feb565b905060008160405160200161165b91906120d5565b60405160208183030381529060405290506116776000826111b2565b50505050505050565b61168a8383611828565b61169760008484846116b3565b6105af5760405162461bcd60e51b815260040161050e90612230565b60006001600160a01b0384163b156117a957604051630a85bd0160e11b81526001600160a01b0385169063150b7a02906116f7903390899088908890600401612430565b6020604051808303816000875af1925050508015611732575060408051601f3d908101601f1916820190925261172f9181019061246d565b60015b61178f573d808015611760576040519150601f19603f3d011682016040523d82523d6000602084013e611765565b606091505b5080516000036117875760405162461bcd60e51b815260040161050e90612230565b805181602001fd5b6001600160e01b031916630a85bd0160e11b149050610c42565b506001949350505050565b60606117bf82610c4a565b60006117d660408051602081019091526000815290565b905060008151116117f65760405180602001604052806000815250611821565b8061180084610b41565b604051602001611811929190612282565b6040516020818303038152906040525b9392505050565b6001600160a01b03821661187e5760405162461bcd60e51b815260206004820181905260248201527f4552433732313a206d696e7420746f20746865207a65726f2061646472657373604482015260640161050e565b6000818152600260205260409020546001600160a01b0316156118e35760405162461bcd60e51b815260206004820152601c60248201527f4552433732313a20746f6b656e20616c7265616479206d696e74656400000000604482015260640161050e565b6000818152600260205260409020546001600160a01b0316156119485760405162461bcd60e51b815260206004820152601c60248201527f4552433732313a20746f6b656e20616c7265616479206d696e74656400000000604482015260640161050e565b6001600160a01b038216600090815260036020526040812080546001929061197190849061219e565b909155505060008181526002602052604080822080546001600160a01b0319166001600160a01b03861690811790915590518392907fddf252ad1be2c89b69c2b068fc378daa952ba7f163c4a11628f55a4df523b3ef908290a45050565b8280546119db90611e44565b90600052602060002090601f0160209004810192826119fd5760008555611a43565b82601f10611a1657805160ff1916838001178555611a43565b82800160010185558215611a43579182015b82811115611a43578251825591602001919060010190611a28565b50611a4f929150611a8d565b5090565b828054828255906000526020600020908101928215611a435791602002820182811115611a43578251825591602001919060010190611a28565b5b80821115611a4f5760008155600101611a8e565b6001600160e01b031981168114610b1d57600080fd5b600060208284031215611aca57600080fd5b813561182181611aa2565b60005b83811015611af0578181015183820152602001611ad8565b83811115610a965750506000910152565b60008151808452611b19816020860160208601611ad5565b601f01601f19169290920160200192915050565b6020815260006118216020830184611b01565b600060208284031215611b5257600080fd5b5035919050565b80356001600160a01b0381168114611b7057600080fd5b919050565b60008060408385031215611b8857600080fd5b611b9183611b59565b946020939093013593505050565b634e487b7160e01b600052604160045260246000fd5b604051601f8201601f1916810167ffffffffffffffff81118282101715611bde57611bde611b9f565b604052919050565b60008060408385031215611bf957600080fd5b8235915060208084013567ffffffffffffffff80821115611c1957600080fd5b818601915086601f830112611c2d57600080fd5b813581811115611c3f57611c3f611b9f565b8060051b9150611c50848301611bb5565b8181529183018401918481019089841115611c6a57600080fd5b938501935b83851015611c8857843582529385019390850190611c6f565b8096505050505050509250929050565b600080600060608486031215611cad57600080fd5b611cb684611b59565b9250611cc460208501611b59565b9150604084013590509250925092565b600060208284031215611ce657600080fd5b61182182611b59565b600060208284031215611d0157600080fd5b813563ffffffff8116811461182157600080fd5b60008060408385031215611d2857600080fd5b611d3183611b59565b915060208301358015158114611d4657600080fd5b809150509250929050565b60008060008060808587031215611d6757600080fd5b611d7085611b59565b93506020611d7f818701611b59565b935060408601359250606086013567ffffffffffffffff80821115611da357600080fd5b818801915088601f830112611db757600080fd5b813581811115611dc957611dc9611b9f565b611ddb601f8201601f19168501611bb5565b91508082528984828501011115611df157600080fd5b808484018584013760008482840101525080935050505092959194509250565b60008060408385031215611e2457600080fd5b611e2d83611b59565b9150611e3b60208401611b59565b90509250929050565b600181811c90821680611e5857607f821691505b602082108103611e7857634e487b7160e01b600052602260045260246000fd5b50919050565b6020808252602d908201527f4552433732313a2063616c6c6572206973206e6f7420746f6b656e206f776e6560408201526c1c881bdc88185c1c1c9bdd9959609a1b606082015260800190565b600060208284031215611edd57600080fd5b5051919050565b7f646174613a696d6167652f7376672b786d6c3b6261736536342c000000000000815260008251611f1c81601a850160208701611ad5565b91909101601a0192915050565b8054600090600181811c9080831680611f4357607f831692505b60208084108203611f6457634e487b7160e01b600052602260045260246000fd5b818015611f785760018114611f8957611fb6565b60ff19861689528489019650611fb6565b60008881526020902060005b86811015611fae5781548b820152908501908301611f95565b505084890196505b50505050505092915050565b6000611fe0611fda611fd48488611f29565b86611f29565b84611f29565b95945050505050565b7f7b226e616d65223a2022546865204c61726765737420436f6c6c61626f7261748152681a5d9948139195088b60ba1b60208201527f226465736372697074696f6e223a2022546865204c61726765737420436f6c6c60298201527f61626f726174697665204e465420666f7220536d617274436f6e2032303232226049820152600b60fa1b60698201527f22696d616765223a2022646174613a696d6167652f7376672b786d6c3b626173606a82015263194d8d0b60e21b608a820152600082516120bc81608e850160208701611ad5565b61227d60f01b608e939091019283015250609001919050565b7f646174613a6170706c69636174696f6e2f6a736f6e3b6261736536342c00000081526000825161210d81601d850160208701611ad5565b91909101601d0192915050565b634e487b7160e01b600052601160045260246000fd5b6000600182016121425761214261211a565b5060010190565b634e487b7160e01b600052601260045260246000fd5b60008261216e5761216e612149565b500490565b6000828210156121855761218561211a565b500390565b60008261219957612199612149565b500690565b600082198211156121b1576121b161211a565b500190565b634e487b7160e01b600052603260045260246000fd5b60208082526025908201527f4552433732313a207472616e736665722066726f6d20696e636f72726563742060408201526437bbb732b960d91b606082015260800190565b600081600019048311821515161561222b5761222b61211a565b500290565b60208082526032908201527f4552433732313a207472616e7366657220746f206e6f6e20455243373231526560408201527131b2b4bb32b91034b6b83632b6b2b73a32b960711b606082015260800190565b60008351612294818460208801611ad5565b8351908301906122a8818360208801611ad5565b01949350505050565b60006122bd8287611f29565b6b3c636972636c652063783d2760a01b815285516122e281600c840160208a01611ad5565b65272063793d2760d01b600c92909101918201528451612309816012840160208901611ad5565b7f2720723d2737272066696c6c3d276e6f6e6527207374726f6b653d270000000060129290910191820152612341602e820185611f29565b74139039ba3937b5b296bbb4b23a341e93999390179f60591b8152601501979650505050505050565b60006123768288611f29565b683c7265637420783d2760b81b81528651612398816009840160208b01611ad5565b642720793d2760d81b6009929091019182015285516123be81600e840160208a01611ad5565b68272077696474683d2760b81b600e929091019182015284516123e8816017840160208901611ad5565b7327206865696768743d273134272066696c6c3d2760601b60179290910191820152612417602b820185611f29565b631390179f60e11b815260040198975050505050505050565b6001600160a01b038581168252841660208201526040810183905260806060820181905260009061246390830184611b01565b9695505050505050565b60006020828403121561247f57600080fd5b815161182181611aa256fe4142434445464748494a4b4c4d4e4f505152535455565758595a6162636465666768696a6b6c6d6e6f707172737475767778797a303132333435363738392b2fa164736f6c634300080d000a",
    "linkReferences": {}
  }
}