{
  "abi": [
    {
      "inputs": [
        {
          "internalType": "uint64",
          "name": "subscriptionId",
          "type": "uint64"
        }
      ],
      "stateMutability": "nonpayable",
      "type": "constructor"
    },
    {
      "inputs": [
        {
          "internalType": "address",
          "name": "have",
          "type": "address"
        },
        {
          "internalType": "address",
          "name": "want",
          "type": "address"
        }
      ],
      "name": "OnlyCoordinatorCanFulfill",
      "type": "error"
    },
    {
      "anonymous": false,
      "inputs": [
        {
          "indexed": true,
          "internalType": "address",
          "name": "owner",
          "type": "address"
        },
        {
          "indexed": true,
          "internalType": "address",
          "name": "approved",
          "type": "address"
        },
        {
          "indexed": true,
          "internalType": "uint256",
          "name": "tokenId",
          "type": "uint256"
        }
      ],
      "name": "Approval",
      "type": "event"
    },
    {
      "anonymous": false,
      "inputs": [
        {
          "indexed": true,
          "internalType": "address",
          "name": "owner",
          "type": "address"
        },
        {
          "indexed": true,
          "internalType": "address",
          "name": "operator",
          "type": "address"
        },
        {
          "indexed": false,
          "internalType": "bool",
          "name": "approved",
          "type": "bool"
        }
      ],
      "name": "ApprovalForAll",
      "type": "event"
    },
    {
      "anonymous": false,
      "inputs": [
        {
          "indexed": false,
          "internalType": "string",
          "name": "notification",
          "type": "string"
        }
      ],
      "name": "SpotClaimed",
      "type": "event"
    },
    {
      "anonymous": false,
      "inputs": [
        {
          "indexed": true,
          "internalType": "address",
          "name": "from",
          "type": "address"
        },
        {
          "indexed": true,
          "internalType": "address",
          "name": "to",
          "type": "address"
        },
        {
          "indexed": true,
          "internalType": "uint256",
          "name": "tokenId",
          "type": "uint256"
        }
      ],
      "name": "Transfer",
      "type": "event"
    },
    {
      "inputs": [
        {
          "internalType": "address",
          "name": "to",
          "type": "address"
        },
        {
          "internalType": "uint256",
          "name": "tokenId",
          "type": "uint256"
        }
      ],
      "name": "approve",
      "outputs": [],
      "stateMutability": "nonpayable",
      "type": "function"
    },
    {
      "inputs": [
        {
          "internalType": "address",
          "name": "owner",
          "type": "address"
        }
      ],
      "name": "balanceOf",
      "outputs": [
        {
          "internalType": "uint256",
          "name": "",
          "type": "uint256"
        }
      ],
      "stateMutability": "view",
      "type": "function"
    },
    {
      "inputs": [
        {
          "internalType": "uint256",
          "name": "_val",
          "type": "uint256"
        },
        {
          "internalType": "uint256",
          "name": "_val2",
          "type": "uint256"
        }
      ],
      "name": "callRandomWords",
      "outputs": [],
      "stateMutability": "nonpayable",
      "type": "function"
    },
    {
      "inputs": [
        {
          "internalType": "uint32",
          "name": "_callbackGasLimit",
          "type": "uint32"
        }
      ],
      "name": "changeCallbackGas",
      "outputs": [],
      "stateMutability": "nonpayable",
      "type": "function"
    },
    {
      "inputs": [],
      "name": "claimYourSpot",
      "outputs": [],
      "stateMutability": "nonpayable",
      "type": "function"
    },
    {
      "inputs": [
        {
          "internalType": "uint256",
          "name": "tokenId",
          "type": "uint256"
        }
      ],
      "name": "getApproved",
      "outputs": [
        {
          "internalType": "address",
          "name": "",
          "type": "address"
        }
      ],
      "stateMutability": "view",
      "type": "function"
    },
    {
      "inputs": [],
      "name": "getSVG",
      "outputs": [
        {
          "internalType": "string",
          "name": "SVG",
          "type": "string"
        }
      ],
      "stateMutability": "view",
      "type": "function"
    },
    {
      "inputs": [],
      "name": "height",
      "outputs": [
        {
          "internalType": "uint256",
          "name": "",
          "type": "uint256"
        }
      ],
      "stateMutability": "view",
      "type": "function"
    },
    {
      "inputs": [
        {
          "internalType": "address",
          "name": "owner",
          "type": "address"
        },
        {
          "internalType": "address",
          "name": "operator",
          "type": "address"
        }
      ],
      "name": "isApprovedForAll",
      "outputs": [
        {
          "internalType": "bool",
          "name": "",
          "type": "bool"
        }
      ],
      "stateMutability": "view",
      "type": "function"
    },
    {
      "inputs": [],
      "name": "name",
      "outputs": [
        {
          "internalType": "string",
          "name": "",
          "type": "string"
        }
      ],
      "stateMutability": "view",
      "type": "function"
    },
    {
      "inputs": [
        {
          "internalType": "uint256",
          "name": "tokenId",
          "type": "uint256"
        }
      ],
      "name": "ownerOf",
      "outputs": [
        {
          "internalType": "address",
          "name": "",
          "type": "address"
        }
      ],
      "stateMutability": "view",
      "type": "function"
    },
    {
      "inputs": [
        {
          "internalType": "uint256",
          "name": "requestId",
          "type": "uint256"
        },
        {
          "internalType": "uint256[]",
          "name": "randomWords",
          "type": "uint256[]"
        }
      ],
      "name": "rawFulfillRandomWords",
      "outputs": [],
      "stateMutability": "nonpayable",
      "type": "function"
    },
    {
      "inputs": [
        {
          "internalType": "uint256",
          "name": "",
          "type": "uint256"
        }
      ],
      "name": "requestIdToAddress",
      "outputs": [
        {
          "internalType": "address",
          "name": "",
          "type": "address"
        }
      ],
      "stateMutability": "view",
      "type": "function"
    },
    {
      "inputs": [
        {
          "internalType": "uint256",
          "name": "",
          "type": "uint256"
        }
      ],
      "name": "s_randomWords",
      "outputs": [
        {
          "internalType": "uint256",
          "name": "",
          "type": "uint256"
        }
      ],
      "stateMutability": "view",
      "type": "function"
    },
    {
      "inputs": [
        {
          "internalType": "address",
          "name": "from",
          "type": "address"
        },
        {
          "internalType": "address",
          "name": "to",
          "type": "address"
        },
        {
          "internalType": "uint256",
          "name": "tokenId",
          "type": "uint256"
        }
      ],
      "name": "safeTransferFrom",
      "outputs": [],
      "stateMutability": "nonpayable",
      "type": "function"
    },
    {
      "inputs": [
        {
          "internalType": "address",
          "name": "from",
          "type": "address"
        },
        {
          "internalType": "address",
          "name": "to",
          "type": "address"
        },
        {
          "internalType": "uint256",
          "name": "tokenId",
          "type": "uint256"
        },
        {
          "internalType": "bytes",
          "name": "data",
          "type": "bytes"
        }
      ],
      "name": "safeTransferFrom",
      "outputs": [],
      "stateMutability": "nonpayable",
      "type": "function"
    },
    {
      "inputs": [
        {
          "internalType": "address",
          "name": "operator",
          "type": "address"
        },
        {
          "internalType": "bool",
          "name": "approved",
          "type": "bool"
        }
      ],
      "name": "setApprovalForAll",
      "outputs": [],
      "stateMutability": "nonpayable",
      "type": "function"
    },
    {
      "inputs": [
        {
          "internalType": "bytes4",
          "name": "interfaceId",
          "type": "bytes4"
        }
      ],
      "name": "supportsInterface",
      "outputs": [
        {
          "internalType": "bool",
          "name": "",
          "type": "bool"
        }
      ],
      "stateMutability": "view",
      "type": "function"
    },
    {
      "inputs": [],
      "name": "symbol",
      "outputs": [
        {
          "internalType": "string",
          "name": "",
          "type": "string"
        }
      ],
      "stateMutability": "view",
      "type": "function"
    },
    {
      "inputs": [
        {
          "internalType": "uint256",
          "name": "tokenId",
          "type": "uint256"
        }
      ],
      "name": "tokenURI",
      "outputs": [
        {
          "internalType": "string",
          "name": "",
          "type": "string"
        }
      ],
      "stateMutability": "view",
      "type": "function"
    },
    {
      "inputs": [
        {
          "internalType": "address",
          "name": "from",
          "type": "address"
        },
        {
          "internalType": "address",
          "name": "to",
          "type": "address"
        },
        {
          "internalType": "uint256",
          "name": "tokenId",
          "type": "uint256"
        }
      ],
      "name": "transferFrom",
      "outputs": [],
      "stateMutability": "nonpayable",
      "type": "function"
    },
    {
      "inputs": [],
      "name": "width",
      "outputs": [
        {
          "internalType": "uint256",
          "name": "",
          "type": "uint256"
        }
      ],
      "stateMutability": "view",
      "type": "function"
    }
  ],
  "bytecode": {
    "object": "0x60a060405260088054732ca8e0c643bde4c2e08ab1fa0da3401adad7734d6001600160a01b03199091161790557f79d3d8832d904592c0bf9818b621522c988bb8b0c05cdc3b15aea1b6e8db0c15600955600a80546001600160501b03191666020003000f423f179055610780600f8190556104386010556200008e90620003d2602090811b620009be17901c565b620000a6601054620003d260201b620009be1760201c565b620000be600f54620003d260201b620009be1760201c565b620000d6601054620003d260201b620009be1760201c565b604051602001620000eb949392919062000c69565b604051602081830303815290604052601290805190602001906200011192919062000aaf565b50604080518082019091526006808252651e17b9bb339f60d11b6020909201918252620001419160139162000aaf565b50604080516020810191829052600090819052620001629160149162000aaf565b50604080516020810191829052600090819052620001839160159162000aaf565b506040805160a081018252600760608201818152661199999b1b232360c91b6080840152825282518084018452818152662330304646393360c81b60208281019190915280840191909152835180850185529182526611a3232323232360c91b9082015291810191909152620001fe90601690600362000b3e565b503480156200020c57600080fd5b5060405162003312380380620033128339810160408190526200022f9162000db5565b604080518082018252601081526f536d617274436f6e32322053706f747360801b60208083019182528351808501909452600384526253435360e81b908401526008546001600160a01b03166080528151919291620002919160009162000aaf565b508051620002a790600190602084019062000aaf565b505060085460078054600d8054336001600160a01b031990911681179091556001600160a01b039093166001600160e01b031990911617600160a01b6001600160401b03861602179055620002ff91506000620004f2565b60006012601460136040516020016200031b9392919062000ec4565b60408051601f1981840301815291905280519091506200034390601190602084019062000aaf565b5060006200039262000360836200051860201b62000ac71760201c565b60405160200162000372919062000ef1565b6040516020818303038152906040526200051860201b62000ac71760201c565b9050600081604051602001620003a9919062000fd2565b60408051601f198184030181529190529050620003c86000826200067c565b5050505062001194565b606081600003620003fa5750506040805180820190915260018152600360fc1b602082015290565b8160005b81156200042a578062000411816200102f565b9150620004229050600a8362001061565b9150620003fe565b6000816001600160401b0381111562000447576200044762001078565b6040519080825280601f01601f19166020018201604052801562000472576020820181803683370190505b5090505b8415620004ea576200048a6001836200108e565b915062000499600a86620010a8565b620004a6906030620010bf565b60f81b818381518110620004be57620004be620010da565b60200101906001600160f81b031916908160001a905350620004e2600a8662001061565b945062000476565b949350505050565b620005148282604051806020016040528060008152506200072360201b60201c565b5050565b606081516000036200053857505060408051602081019091526000815290565b6000604051806060016040528060408152602001620032d260409139905060006003845160026200056a9190620010bf565b62000576919062001061565b62000583906004620010f0565b6001600160401b038111156200059d576200059d62001078565b6040519080825280601f01601f191660200182016040528015620005c8576020820181803683370190505b509050600182016020820185865187015b8082101562000636576003820191508151603f8160121c168501518453600184019350603f81600c1c168501518453600184019350603f8160061c168501518453600184019350603f8116850151845350600183019250620005d9565b5050600386510660018114620006555760028114620006695762000671565b603d6001830353603d600283035362000671565b603d60018303535b509195945050505050565b6000828152600260205260409020546001600160a01b0316620006fd5760405162461bcd60e51b815260206004820152602e60248201527f45524337323155524953746f726167653a2055524920736574206f66206e6f6e60448201526d32bc34b9ba32b73a103a37b5b2b760911b60648201526084015b60405180910390fd5b600082815260066020908152604090912082516200071e9284019062000aaf565b505050565b6200072f838362000796565b6200073e600084848462000945565b6200071e5760405162461bcd60e51b81526020600482015260326024820152600080516020620032b283398151915260448201527131b2b4bb32b91034b6b83632b6b2b73a32b960711b6064820152608401620006f4565b6001600160a01b038216620007ee5760405162461bcd60e51b815260206004820181905260248201527f4552433732313a206d696e7420746f20746865207a65726f20616464726573736044820152606401620006f4565b6000818152600260205260409020546001600160a01b031615620008555760405162461bcd60e51b815260206004820152601c60248201527f4552433732313a20746f6b656e20616c7265616479206d696e746564000000006044820152606401620006f4565b6000818152600260205260409020546001600160a01b031615620008bc5760405162461bcd60e51b815260206004820152601c60248201527f4552433732313a20746f6b656e20616c7265616479206d696e746564000000006044820152606401620006f4565b6001600160a01b0382166000908152600360205260408120805460019290620008e7908490620010bf565b909155505060008181526002602052604080822080546001600160a01b0319166001600160a01b03861690811790915590518392907fddf252ad1be2c89b69c2b068fc378daa952ba7f163c4a11628f55a4df523b3ef908290a45050565b600062000966846001600160a01b031662000aa060201b62000c1a1760201c565b1562000a9557604051630a85bd0160e11b81526001600160a01b0385169063150b7a0290620009a090339089908890889060040162001112565b6020604051808303816000875af1925050508015620009de575060408051601f3d908101601f19168201909252620009db9181019062001168565b60015b62000a7a573d80801562000a0f576040519150601f19603f3d011682016040523d82523d6000602084013e62000a14565b606091505b50805160000362000a725760405162461bcd60e51b81526020600482015260326024820152600080516020620032b283398151915260448201527131b2b4bb32b91034b6b83632b6b2b73a32b960711b6064820152608401620006f4565b805181602001fd5b6001600160e01b031916630a85bd0160e11b149050620004ea565b506001949350505050565b6001600160a01b03163b151590565b82805462000abd9062000de7565b90600052602060002090601f01602090048101928262000ae1576000855562000b2c565b82601f1062000afc57805160ff191683800117855562000b2c565b8280016001018555821562000b2c579182015b8281111562000b2c57825182559160200191906001019062000b0f565b5062000b3a92915062000b9e565b5090565b82805482825590600052602060002090810192821562000b90579160200282015b8281111562000b90578251805162000b7f91849160209091019062000aaf565b509160200191906001019062000b5f565b5062000b3a92915062000bb5565b5b8082111562000b3a576000815560010162000b9f565b8082111562000b3a57600062000bcc828262000bd6565b5060010162000bb5565b50805462000be49062000de7565b6000825580601f1062000bf5575050565b601f01602090049060005260206000209081019062000c15919062000b9e565b50565b60005b8381101562000c3557818101518382015260200162000c1b565b8381111562000c45576000848401525b50505050565b6000815162000c5f81856020860162000c18565b9290920192915050565b7f3c73766720786d6c6e733d27687474703a2f2f7777772e77332e6f72672f323081527f30302f737667272076696577426f783d2730203020000000000000000000000060208201526000855162000cc9816035850160208a0162000c18565b600160fd1b603591840191820152855162000cec816036840160208a0162000c18565b7f27207072657365727665417370656374526174696f3d27784d6964594d696420603692909101918201526536b2b2ba139f60d11b60568201526c3c726563742077696474683d2760981b605c820152845162000d5181606984016020890162000c18565b62000da962000d8062000d796069858501016927206865696768743d2760b01b8152600a0190565b8762000c4b565b7f272066696c6c3d272331433143314327202f3e00000000000000000000000000815260130190565b98975050505050505050565b60006020828403121562000dc857600080fd5b81516001600160401b038116811462000de057600080fd5b9392505050565b600181811c9082168062000dfc57607f821691505b60208210810362000e1d57634e487b7160e01b600052602260045260246000fd5b50919050565b8054600090600181811c908083168062000e3e57607f831692505b6020808410820362000e6057634e487b7160e01b600052602260045260246000fd5b81801562000e77576001811462000e895762000eb8565b60ff1986168952848901965062000eb8565b60008881526020902060005b8681101562000eb05781548b82015290850190830162000e95565b505084890196505b50505050505092915050565b600062000ee862000ee162000eda848862000e23565b8662000e23565b8462000e23565b95945050505050565b7f7b226e616d65223a2022546865204d6f737420436f6c6c61626f72617469766581526508139195088b60d21b60208201527f226465736372697074696f6e223a2022546865204d6f737420436f6c6c61626f60268201527f726174697665204e465420666f7220536d617274436f6e2032303232222c000060468201527f22696d616765223a2022646174613a696d6167652f7376672b786d6c3b626173606482015263194d8d0b60e21b60848201526000825162000fb981608885016020870162000c18565b61227d60f01b6088939091019283015250608a01919050565b7f646174613a6170706c69636174696f6e2f6a736f6e3b6261736536342c0000008152600082516200100c81601d85016020870162000c18565b91909101601d0192915050565b634e487b7160e01b600052601160045260246000fd5b60006001820162001044576200104462001019565b5060010190565b634e487b7160e01b600052601260045260246000fd5b6000826200107357620010736200104b565b500490565b634e487b7160e01b600052604160045260246000fd5b600082821015620010a357620010a362001019565b500390565b600082620010ba57620010ba6200104b565b500690565b60008219821115620010d557620010d562001019565b500190565b634e487b7160e01b600052603260045260246000fd5b60008160001904831182151516156200110d576200110d62001019565b500290565b600060018060a01b038087168352808616602084015250836040830152608060608301528251806080840152620011518160a085016020870162000c18565b601f01601f19169190910160a00195945050505050565b6000602082840312156200117b57600080fd5b81516001600160e01b03198116811462000de057600080fd5b6080516120fb620011b76000396000818161056201526105a401526120fb6000f3fe608060405234801561001057600080fd5b50600436106101425760003560e01c8063637c4320116100b8578063a22cb4651161007c578063a22cb46514610297578063b0554ca3146102aa578063b88d4fde146102bd578063c87b56dd146102d0578063e985e9c5146102e3578063f6eaffc81461031f57600080fd5b8063637c43201461023757806370a0823114610260578063788fc5d41461027357806395d89b41146102865780639ededf771461028e57600080fd5b80631fe543e31161010a5780631fe543e3146101db57806323b872dd146101ee578063301cc9091461020157806342842e0e14610209578063489187e81461021c5780636352211e1461022457600080fd5b806301ffc9a71461014757806306fdde031461016f578063081812fc14610184578063095ea7b3146101af5780630ef26743146101c4575b600080fd5b61015a6101553660046116cb565b610332565b60405190151581526020015b60405180910390f35b610177610384565b6040516101669190611740565b610197610192366004611753565b610416565b6040516001600160a01b039091168152602001610166565b6101c26101bd366004611788565b61043d565b005b6101cd60105481565b604051908152602001610166565b6101c26101e93660046117f9565b610557565b6101c26101fc3660046118ab565b6105df565b6101c2610610565b6101c26102173660046118ab565b6106d0565b6101776106eb565b610197610232366004611753565b6107a4565b610197610245366004611753565b600e602052600090815260409020546001600160a01b031681565b6101cd61026e3660046118e7565b610804565b6101c2610281366004611902565b61088a565b6101776108bd565b6101cd600f5481565b6101c26102a5366004611928565b6108cc565b6101c26102b8366004611964565b6108d7565b6101c26102cb366004611986565b61095a565b6101776102de366004611753565b610992565b61015a6102f1366004611a46565b6001600160a01b03918216600090815260056020908152604080832093909416825291909152205460ff1690565b6101cd61032d366004611753565b61099d565b60006001600160e01b031982166380ac58cd60e01b148061036357506001600160e01b03198216635b5e139f60e01b145b8061037e57506301ffc9a760e01b6001600160e01b03198316145b92915050565b60606000805461039390611a79565b80601f01602080910402602001604051908101604052809291908181526020018280546103bf90611a79565b801561040c5780601f106103e15761010080835404028352916020019161040c565b820191906000526020600020905b8154815290600101906020018083116103ef57829003601f168201915b5050505050905090565b600061042182610c29565b506000908152600460205260409020546001600160a01b031690565b6000610448826107a4565b9050806001600160a01b0316836001600160a01b0316036104ba5760405162461bcd60e51b815260206004820152602160248201527f4552433732313a20617070726f76616c20746f2063757272656e74206f776e656044820152603960f91b60648201526084015b60405180910390fd5b336001600160a01b03821614806104d657506104d681336102f1565b6105485760405162461bcd60e51b815260206004820152603d60248201527f4552433732313a20617070726f76652063616c6c6572206973206e6f7420746f60448201527f6b656e206f776e6572206f7220617070726f76656420666f7220616c6c00000060648201526084016104b1565b6105528383610c8b565b505050565b336001600160a01b037f000000000000000000000000000000000000000000000000000000000000000016146105d15760405163073e64fd60e21b81523360048201526001600160a01b037f00000000000000000000000000000000000000000000000000000000000000001660248201526044016104b1565b6105db8282610cf9565b5050565b6105e93382610da9565b6106055760405162461bcd60e51b81526004016104b190611ab3565b610552838383610e27565b600754600954600a546040516305d3b1d360e41b81526004810192909252600160a01b830467ffffffffffffffff166024830152640100000000810461ffff16604483015263ffffffff808216606484015266010000000000009091041660848201526001600160a01b0390911690635d3b1d309060a4016020604051808303816000875af11580156106a7573d6000803e3d6000fd5b505050506040513d601f19601f820116820180604052508101906106cb9190611b00565b600c55565b6105528383836040518060200160405280600081525061095a565b6060610780601180546106fd90611a79565b80601f016020809104026020016040519081016040528092919081815260200182805461072990611a79565b80156107765780601f1061074b57610100808354040283529160200191610776565b820191906000526020600020905b81548152906001019060200180831161075957829003601f168201915b5050505050610ac7565b6040516020016107909190611b19565b604051602081830303815290604052905090565b6000818152600260205260408120546001600160a01b03168061037e5760405162461bcd60e51b8152602060048201526018602482015277115490cdcc8c4e881a5b9d985b1a59081d1bdad95b88125160421b60448201526064016104b1565b60006001600160a01b03821661086e5760405162461bcd60e51b815260206004820152602960248201527f4552433732313a2061646472657373207a65726f206973206e6f7420612076616044820152683634b21037bbb732b960b91b60648201526084016104b1565b506001600160a01b031660009081526003602052604090205490565b600d546001600160a01b031633146108a157600080fd5b600a805463ffffffff191663ffffffff92909216919091179055565b60606001805461039390611a79565b6105db338383610fcd565b600d546001600160a01b031633146108ee57600080fd5b604080516002808252606082018352600092602083019080368337019050509050828160008151811061092357610923611b5e565b602002602001018181525050818160018151811061094357610943611b5e565b602002602001018181525050610552607b82610cf9565b6109643383610da9565b6109805760405162461bcd60e51b81526004016104b190611ab3565b61098c8484848461109b565b50505050565b606061037e826110ce565b600b81815481106109ad57600080fd5b600091825260209091200154905081565b6060816000036109e55750506040805180820190915260018152600360fc1b602082015290565b8160005b8115610a0f57806109f981611b8a565b9150610a089050600a83611bb9565b91506109e9565b60008167ffffffffffffffff811115610a2a57610a2a6117b2565b6040519080825280601f01601f191660200182016040528015610a54576020820181803683370190505b5090505b8415610abf57610a69600183611bcd565b9150610a76600a86611be4565b610a81906030611bf8565b60f81b818381518110610a9657610a96611b5e565b60200101906001600160f81b031916908160001a905350610ab8600a86611bb9565b9450610a58565b949350505050565b60608151600003610ae657505060408051602081019091526000815290565b60006040518060600160405280604081526020016120af6040913990506000600384516002610b159190611bf8565b610b1f9190611bb9565b610b2a906004611c10565b67ffffffffffffffff811115610b4257610b426117b2565b6040519080825280601f01601f191660200182016040528015610b6c576020820181803683370190505b509050600182016020820185865187015b80821015610bd8576003820191508151603f8160121c168501518453600184019350603f81600c1c168501518453600184019350603f8160061c168501518453600184019350603f8116850151845350600183019250610b7d565b5050600386510660018114610bf45760028114610c0757610c0f565b603d6001830353603d6002830353610c0f565b603d60018303535b509195945050505050565b6001600160a01b03163b151590565b6000818152600260205260409020546001600160a01b0316610c885760405162461bcd60e51b8152602060048201526018602482015277115490cdcc8c4e881a5b9d985b1a59081d1bdad95b88125160421b60448201526064016104b1565b50565b600081815260046020526040902080546001600160a01b0319166001600160a01b0384169081179091558190610cc0826107a4565b6001600160a01b03167f8c5be1e5ebec7d5bd14f71427d1e84f3dd0314c0f7b2291e5b200ac8c7c3b92560405160405180910390a45050565b8051610d0c90600b9060208401906115e2565b50610d4b81600081518110610d2357610d23611b5e565b602002602001015182600181518110610d3e57610d3e611b5e565b60200260200101516111d6565b7f01c8bd4e8ad3259729870d1aed76771590a5e8e803a5511f47f874a1a252f287604051610d9d9060208082526010908201526f13995dc814dc1bdd0810db185a5b595960821b604082015260600190565b60405180910390a15050565b600080610db5836107a4565b9050806001600160a01b0316846001600160a01b03161480610dfc57506001600160a01b0380821660009081526005602090815260408083209388168352929052205460ff165b80610abf5750836001600160a01b0316610e1584610416565b6001600160a01b031614949350505050565b826001600160a01b0316610e3a826107a4565b6001600160a01b031614610e605760405162461bcd60e51b81526004016104b190611c2f565b6001600160a01b038216610ec25760405162461bcd60e51b8152602060048201526024808201527f4552433732313a207472616e7366657220746f20746865207a65726f206164646044820152637265737360e01b60648201526084016104b1565b826001600160a01b0316610ed5826107a4565b6001600160a01b031614610efb5760405162461bcd60e51b81526004016104b190611c2f565b600081815260046020908152604080832080546001600160a01b03191690556001600160a01b038616835260039091528120805460019290610f3e908490611bcd565b90915550506001600160a01b0382166000908152600360205260408120805460019290610f6c908490611bf8565b909155505060008181526002602052604080822080546001600160a01b0319166001600160a01b0386811691821790925591518493918716917fddf252ad1be2c89b69c2b068fc378daa952ba7f163c4a11628f55a4df523b3ef91a4505050565b816001600160a01b0316836001600160a01b03160361102e5760405162461bcd60e51b815260206004820152601960248201527f4552433732313a20617070726f766520746f2063616c6c65720000000000000060448201526064016104b1565b6001600160a01b03838116600081815260056020908152604080832094871680845294825291829020805460ff191686151590811790915591519182527f17307eab39ab6107e8899845ad3d59bd9653f200f220920489ca2b5937696c31910160405180910390a3505050565b6110a6848484610e27565b6110b2848484846113d3565b61098c5760405162461bcd60e51b81526004016104b190611c74565b60606110d982610c29565b600082815260066020526040812080546110f290611a79565b80601f016020809104026020016040519081016040528092919081815260200182805461111e90611a79565b801561116b5780601f106111405761010080835404028352916020019161116b565b820191906000526020600020905b81548152906001019060200180831161114e57829003601f168201915b50505050509050600061118960408051602081019091526000815290565b9050805160000361119b575092915050565b8151156111cd5780826040516020016111b5929190611cc6565b60405160208183030381529060405292505050919050565b610abf846114d4565b60006111e3600383611be4565b90506000816000036111f75750600e611203565b81600103611203575060035b81600203611298576014611223600f548661121e9190611be4565b6109be565b6112346010548761121e9190611be4565b6016611241600389611be4565b8154811061125157611251611b5e565b9060005260206000200160405160200161126e9493929190611d8e565b6040516020818303038152906040526014908051906020019061129292919061162d565b50611326565b60146112ab600f548661121e9190611be4565b6112bc6010548761121e9190611be4565b6112c5846109be565b60166112d260038a611be4565b815481106112e2576112e2611b5e565b90600052602060002001604051602001611300959493929190611e47565b6040516020818303038152906040526014908051906020019061132492919061162d565b505b600060126014601360405160200161134093929190611f0d565b60408051601f19818403018152919052805190915061136690601190602084019061162d565b50600061139961137583610ac7565b6040516020016113859190611f34565b604051602081830303815290604052610ac7565b90506000816040516020016113ae919061200f565b60405160208183030381529060405290506113ca600082611548565b50505050505050565b60006001600160a01b0384163b156114c957604051630a85bd0160e11b81526001600160a01b0385169063150b7a0290611417903390899088908890600401612054565b6020604051808303816000875af1925050508015611452575060408051601f3d908101601f1916820190925261144f91810190612091565b60015b6114af573d808015611480576040519150601f19603f3d011682016040523d82523d6000602084013e611485565b606091505b5080516000036114a75760405162461bcd60e51b81526004016104b190611c74565b805181602001fd5b6001600160e01b031916630a85bd0160e11b149050610abf565b506001949350505050565b60606114df82610c29565b60006114f660408051602081019091526000815290565b905060008151116115165760405180602001604052806000815250611541565b80611520846109be565b604051602001611531929190611cc6565b6040516020818303038152906040525b9392505050565b6000828152600260205260409020546001600160a01b03166115c35760405162461bcd60e51b815260206004820152602e60248201527f45524337323155524953746f726167653a2055524920736574206f66206e6f6e60448201526d32bc34b9ba32b73a103a37b5b2b760911b60648201526084016104b1565b600082815260066020908152604090912082516105529284019061162d565b82805482825590600052602060002090810192821561161d579160200282015b8281111561161d578251825591602001919060010190611602565b506116299291506116a0565b5090565b82805461163990611a79565b90600052602060002090601f01602090048101928261165b576000855561161d565b82601f1061167457805160ff191683800117855561161d565b8280016001018555821561161d579182018281111561161d578251825591602001919060010190611602565b5b8082111561162957600081556001016116a1565b6001600160e01b031981168114610c8857600080fd5b6000602082840312156116dd57600080fd5b8135611541816116b5565b60005b838110156117035781810151838201526020016116eb565b8381111561098c5750506000910152565b6000815180845261172c8160208601602086016116e8565b601f01601f19169290920160200192915050565b6020815260006115416020830184611714565b60006020828403121561176557600080fd5b5035919050565b80356001600160a01b038116811461178357600080fd5b919050565b6000806040838503121561179b57600080fd5b6117a48361176c565b946020939093013593505050565b634e487b7160e01b600052604160045260246000fd5b604051601f8201601f1916810167ffffffffffffffff811182821017156117f1576117f16117b2565b604052919050565b6000806040838503121561180c57600080fd5b8235915060208084013567ffffffffffffffff8082111561182c57600080fd5b818601915086601f83011261184057600080fd5b813581811115611852576118526117b2565b8060051b91506118638483016117c8565b818152918301840191848101908984111561187d57600080fd5b938501935b8385101561189b57843582529385019390850190611882565b8096505050505050509250929050565b6000806000606084860312156118c057600080fd5b6118c98461176c565b92506118d76020850161176c565b9150604084013590509250925092565b6000602082840312156118f957600080fd5b6115418261176c565b60006020828403121561191457600080fd5b813563ffffffff8116811461154157600080fd5b6000806040838503121561193b57600080fd5b6119448361176c565b91506020830135801515811461195957600080fd5b809150509250929050565b6000806040838503121561197757600080fd5b50508035926020909101359150565b6000806000806080858703121561199c57600080fd5b6119a58561176c565b935060206119b481870161176c565b935060408601359250606086013567ffffffffffffffff808211156119d857600080fd5b818801915088601f8301126119ec57600080fd5b8135818111156119fe576119fe6117b2565b611a10601f8201601f191685016117c8565b91508082528984828501011115611a2657600080fd5b808484018584013760008482840101525080935050505092959194509250565b60008060408385031215611a5957600080fd5b611a628361176c565b9150611a706020840161176c565b90509250929050565b600181811c90821680611a8d57607f821691505b602082108103611aad57634e487b7160e01b600052602260045260246000fd5b50919050565b6020808252602d908201527f4552433732313a2063616c6c6572206973206e6f7420746f6b656e206f776e6560408201526c1c881bdc88185c1c1c9bdd9959609a1b606082015260800190565b600060208284031215611b1257600080fd5b5051919050565b7f646174613a696d6167652f7376672b786d6c3b6261736536342c000000000000815260008251611b5181601a8501602087016116e8565b91909101601a0192915050565b634e487b7160e01b600052603260045260246000fd5b634e487b7160e01b600052601160045260246000fd5b600060018201611b9c57611b9c611b74565b5060010190565b634e487b7160e01b600052601260045260246000fd5b600082611bc857611bc8611ba3565b500490565b600082821015611bdf57611bdf611b74565b500390565b600082611bf357611bf3611ba3565b500690565b60008219821115611c0b57611c0b611b74565b500190565b6000816000190483118215151615611c2a57611c2a611b74565b500290565b60208082526025908201527f4552433732313a207472616e736665722066726f6d20696e636f72726563742060408201526437bbb732b960d91b606082015260800190565b60208082526032908201527f4552433732313a207472616e7366657220746f206e6f6e20455243373231526560408201527131b2b4bb32b91034b6b83632b6b2b73a32b960711b606082015260800190565b60008351611cd88184602088016116e8565b835190830190611cec8183602088016116e8565b01949350505050565b8054600090600181811c9080831680611d0f57607f831692505b60208084108203611d3057634e487b7160e01b600052602260045260246000fd5b818015611d445760018114611d5557611d82565b60ff19861689528489019650611d82565b60008881526020902060005b86811015611d7a5781548b820152908501908301611d61565b505084890196505b50505050505092915050565b6000611d9a8287611cf5565b6b3c636972636c652063783d2760a01b81528551611dbf81600c840160208a016116e8565b65272063793d2760d01b600c92909101918201528451611de68160128401602089016116e8565b7f2720723d2737272066696c6c3d276e6f6e6527207374726f6b653d270000000060129290910191820152611e1e602e820185611cf5565b74139039ba3937b5b296bbb4b23a341e93999390179f60591b8152601501979650505050505050565b6000611e538288611cf5565b683c7265637420783d2760b81b81528651611e75816009840160208b016116e8565b642720793d2760d81b600992909101918201528551611e9b81600e840160208a016116e8565b68272077696474683d2760b81b600e92909101918201528451611ec58160178401602089016116e8565b7327206865696768743d273134272066696c6c3d2760601b60179290910191820152611ef4602b820185611cf5565b631390179f60e11b815260040198975050505050505050565b6000611f2b611f25611f1f8488611cf5565b86611cf5565b84611cf5565b95945050505050565b7f7b226e616d65223a202254686520576f726c6473204c617267657374204e4654815261088b60f21b60208201527f226465736372697074696f6e223a202254686520576f726c6473204c6172676560228201527f7374204e465420666f7220536d617274436f6e2032303232222c00000000000060428201527f22696d616765223a2022646174613a696d6167652f7376672b786d6c3b626173605c82015263194d8d0b60e21b607c82015260008251611ff68160808501602087016116e8565b61227d60f01b6080939091019283015250608201919050565b7f646174613a6170706c69636174696f6e2f6a736f6e3b6261736536342c00000081526000825161204781601d8501602087016116e8565b91909101601d0192915050565b6001600160a01b038581168252841660208201526040810183905260806060820181905260009061208790830184611714565b9695505050505050565b6000602082840312156120a357600080fd5b8151611541816116b556fe4142434445464748494a4b4c4d4e4f505152535455565758595a6162636465666768696a6b6c6d6e6f707172737475767778797a303132333435363738392b2fa164736f6c634300080d000a4552433732313a207472616e7366657220746f206e6f6e2045524337323152654142434445464748494a4b4c4d4e4f505152535455565758595a6162636465666768696a6b6c6d6e6f707172737475767778797a303132333435363738392b2f",
    "linkReferences": {}
  }
}