{
  "abi": [
    {
      "inputs": [
        {
          "internalType": "uint64",
          "name": "subscriptionId",
          "type": "uint64"
        }
      ],
      "stateMutability": "nonpayable",
      "type": "constructor"
    },
    {
      "inputs": [
        {
          "internalType": "address",
          "name": "have",
          "type": "address"
        },
        {
          "internalType": "address",
          "name": "want",
          "type": "address"
        }
      ],
      "name": "OnlyCoordinatorCanFulfill",
      "type": "error"
    },
    {
      "anonymous": false,
      "inputs": [
        {
          "indexed": true,
          "internalType": "address",
          "name": "owner",
          "type": "address"
        },
        {
          "indexed": true,
          "internalType": "address",
          "name": "approved",
          "type": "address"
        },
        {
          "indexed": true,
          "internalType": "uint256",
          "name": "tokenId",
          "type": "uint256"
        }
      ],
      "name": "Approval",
      "type": "event"
    },
    {
      "anonymous": false,
      "inputs": [
        {
          "indexed": true,
          "internalType": "address",
          "name": "owner",
          "type": "address"
        },
        {
          "indexed": true,
          "internalType": "address",
          "name": "operator",
          "type": "address"
        },
        {
          "indexed": false,
          "internalType": "bool",
          "name": "approved",
          "type": "bool"
        }
      ],
      "name": "ApprovalForAll",
      "type": "event"
    },
    {
      "anonymous": false,
      "inputs": [
        {
          "indexed": false,
          "internalType": "string",
          "name": "notification",
          "type": "string"
        }
      ],
      "name": "SpotClaimed",
      "type": "event"
    },
    {
      "anonymous": false,
      "inputs": [
        {
          "indexed": true,
          "internalType": "address",
          "name": "from",
          "type": "address"
        },
        {
          "indexed": true,
          "internalType": "address",
          "name": "to",
          "type": "address"
        },
        {
          "indexed": true,
          "internalType": "uint256",
          "name": "tokenId",
          "type": "uint256"
        }
      ],
      "name": "Transfer",
      "type": "event"
    },
    {
      "inputs": [
        {
          "internalType": "address",
          "name": "to",
          "type": "address"
        },
        {
          "internalType": "uint256",
          "name": "tokenId",
          "type": "uint256"
        }
      ],
      "name": "approve",
      "outputs": [],
      "stateMutability": "nonpayable",
      "type": "function"
    },
    {
      "inputs": [
        {
          "internalType": "address",
          "name": "owner",
          "type": "address"
        }
      ],
      "name": "balanceOf",
      "outputs": [
        {
          "internalType": "uint256",
          "name": "",
          "type": "uint256"
        }
      ],
      "stateMutability": "view",
      "type": "function"
    },
    {
      "inputs": [
        {
          "internalType": "uint256",
          "name": "_val",
          "type": "uint256"
        },
        {
          "internalType": "uint256",
          "name": "_val2",
          "type": "uint256"
        }
      ],
      "name": "callRandomWords",
      "outputs": [],
      "stateMutability": "nonpayable",
      "type": "function"
    },
    {
      "inputs": [
        {
          "internalType": "uint32",
          "name": "_callbackGasLimit",
          "type": "uint32"
        }
      ],
      "name": "changeCallbackGas",
      "outputs": [],
      "stateMutability": "nonpayable",
      "type": "function"
    },
    {
      "inputs": [],
      "name": "claimYourSpot",
      "outputs": [],
      "stateMutability": "nonpayable",
      "type": "function"
    },
    {
      "inputs": [
        {
          "internalType": "uint256",
          "name": "tokenId",
          "type": "uint256"
        }
      ],
      "name": "getApproved",
      "outputs": [
        {
          "internalType": "address",
          "name": "",
          "type": "address"
        }
      ],
      "stateMutability": "view",
      "type": "function"
    },
    {
      "inputs": [],
      "name": "getSVG",
      "outputs": [
        {
          "internalType": "string",
          "name": "SVG",
          "type": "string"
        }
      ],
      "stateMutability": "view",
      "type": "function"
    },
    {
      "inputs": [],
      "name": "height",
      "outputs": [
        {
          "internalType": "uint256",
          "name": "",
          "type": "uint256"
        }
      ],
      "stateMutability": "view",
      "type": "function"
    },
    {
      "inputs": [
        {
          "internalType": "address",
          "name": "owner",
          "type": "address"
        },
        {
          "internalType": "address",
          "name": "operator",
          "type": "address"
        }
      ],
      "name": "isApprovedForAll",
      "outputs": [
        {
          "internalType": "bool",
          "name": "",
          "type": "bool"
        }
      ],
      "stateMutability": "view",
      "type": "function"
    },
    {
      "inputs": [],
      "name": "mintNFT",
      "outputs": [],
      "stateMutability": "nonpayable",
      "type": "function"
    },
    {
      "inputs": [],
      "name": "name",
      "outputs": [
        {
          "internalType": "string",
          "name": "",
          "type": "string"
        }
      ],
      "stateMutability": "view",
      "type": "function"
    },
    {
      "inputs": [
        {
          "internalType": "uint256",
          "name": "tokenId",
          "type": "uint256"
        }
      ],
      "name": "ownerOf",
      "outputs": [
        {
          "internalType": "address",
          "name": "",
          "type": "address"
        }
      ],
      "stateMutability": "view",
      "type": "function"
    },
    {
      "inputs": [
        {
          "internalType": "uint256",
          "name": "requestId",
          "type": "uint256"
        },
        {
          "internalType": "uint256[]",
          "name": "randomWords",
          "type": "uint256[]"
        }
      ],
      "name": "rawFulfillRandomWords",
      "outputs": [],
      "stateMutability": "nonpayable",
      "type": "function"
    },
    {
      "inputs": [
        {
          "internalType": "uint256",
          "name": "",
          "type": "uint256"
        }
      ],
      "name": "requestIdToAddress",
      "outputs": [
        {
          "internalType": "address",
          "name": "",
          "type": "address"
        }
      ],
      "stateMutability": "view",
      "type": "function"
    },
    {
      "inputs": [
        {
          "internalType": "uint256",
          "name": "",
          "type": "uint256"
        }
      ],
      "name": "s_randomWords",
      "outputs": [
        {
          "internalType": "uint256",
          "name": "",
          "type": "uint256"
        }
      ],
      "stateMutability": "view",
      "type": "function"
    },
    {
      "inputs": [
        {
          "internalType": "address",
          "name": "from",
          "type": "address"
        },
        {
          "internalType": "address",
          "name": "to",
          "type": "address"
        },
        {
          "internalType": "uint256",
          "name": "tokenId",
          "type": "uint256"
        }
      ],
      "name": "safeTransferFrom",
      "outputs": [],
      "stateMutability": "nonpayable",
      "type": "function"
    },
    {
      "inputs": [
        {
          "internalType": "address",
          "name": "from",
          "type": "address"
        },
        {
          "internalType": "address",
          "name": "to",
          "type": "address"
        },
        {
          "internalType": "uint256",
          "name": "tokenId",
          "type": "uint256"
        },
        {
          "internalType": "bytes",
          "name": "data",
          "type": "bytes"
        }
      ],
      "name": "safeTransferFrom",
      "outputs": [],
      "stateMutability": "nonpayable",
      "type": "function"
    },
    {
      "inputs": [
        {
          "internalType": "address",
          "name": "operator",
          "type": "address"
        },
        {
          "internalType": "bool",
          "name": "approved",
          "type": "bool"
        }
      ],
      "name": "setApprovalForAll",
      "outputs": [],
      "stateMutability": "nonpayable",
      "type": "function"
    },
    {
      "inputs": [
        {
          "internalType": "bytes4",
          "name": "interfaceId",
          "type": "bytes4"
        }
      ],
      "name": "supportsInterface",
      "outputs": [
        {
          "internalType": "bool",
          "name": "",
          "type": "bool"
        }
      ],
      "stateMutability": "view",
      "type": "function"
    },
    {
      "inputs": [],
      "name": "symbol",
      "outputs": [
        {
          "internalType": "string",
          "name": "",
          "type": "string"
        }
      ],
      "stateMutability": "view",
      "type": "function"
    },
    {
      "inputs": [
        {
          "internalType": "uint256",
          "name": "tokenId",
          "type": "uint256"
        }
      ],
      "name": "tokenURI",
      "outputs": [
        {
          "internalType": "string",
          "name": "",
          "type": "string"
        }
      ],
      "stateMutability": "view",
      "type": "function"
    },
    {
      "inputs": [
        {
          "internalType": "address",
          "name": "from",
          "type": "address"
        },
        {
          "internalType": "address",
          "name": "to",
          "type": "address"
        },
        {
          "internalType": "uint256",
          "name": "tokenId",
          "type": "uint256"
        }
      ],
      "name": "transferFrom",
      "outputs": [],
      "stateMutability": "nonpayable",
      "type": "function"
    },
    {
      "inputs": [],
      "name": "width",
      "outputs": [
        {
          "internalType": "uint256",
          "name": "",
          "type": "uint256"
        }
      ],
      "stateMutability": "view",
      "type": "function"
    }
  ],
  "bytecode": {
    "object": "0x60a060405260088054732ca8e0c643bde4c2e08ab1fa0da3401adad7734d6001600160a01b03199091161790557f79d3d8832d904592c0bf9818b621522c988bb8b0c05cdc3b15aea1b6e8db0c15600955600a80546001600160501b03191666020003000f423f179055610780600f8190556104386010556200008e90620002fc602090811b62000aa317901c565b620000a6601054620002fc60201b62000aa31760201c565b620000be600f54620002fc60201b62000aa31760201c565b620000d6601054620002fc60201b62000aa31760201c565b604051602001620000eb9493929190620005c3565b60405160208183030381529060405260129080519060200190620001119291906200041c565b50604080518082019091526006808252651e17b9bb339f60d11b602090920191825262000141916013916200041c565b5060408051602081019182905260009081905262000162916014916200041c565b5060408051602081019182905260009081905262000183916015916200041c565b506040805160a081018252600760608201818152661199999b1b232360c91b6080840152825282518084018452818152662330304646393360c81b60208281019190915280840191909152835180850185529182526611a3232323232360c91b9082015291810191909152620001fe906016906003620004ab565b503480156200020c57600080fd5b5060405162002c8f38038062002c8f8339810160408190526200022f91620006de565b604080518082018252601081526f536d617274436f6e32322053706f747360801b60208083019182528351808501909452600384526253435360e81b908401526008546001600160a01b0316608052815191929162000291916000916200041c565b508051620002a79060019060208401906200041c565b505060085460078054600d80546001600160a01b031916331790556001600160401b03909416600160a01b026001600160e01b03199094166001600160a01b0390921691909117929092179091555062000823565b606081600003620003245750506040805180820190915260018152600360fc1b602082015290565b8160005b81156200035457806200033b8162000726565b91506200034c9050600a8362000758565b915062000328565b6000816001600160401b038111156200037157620003716200076f565b6040519080825280601f01601f1916602001820160405280156200039c576020820181803683370190505b5090505b84156200041457620003b460018362000785565b9150620003c3600a866200079f565b620003d0906030620007b6565b60f81b818381518110620003e857620003e8620007d1565b60200101906001600160f81b031916908160001a9053506200040c600a8662000758565b9450620003a0565b949350505050565b8280546200042a90620007e7565b90600052602060002090601f0160209004810192826200044e576000855562000499565b82601f106200046957805160ff191683800117855562000499565b8280016001018555821562000499579182015b82811115620004995782518255916020019190600101906200047c565b50620004a79291506200050b565b5090565b828054828255906000526020600020908101928215620004fd579160200282015b82811115620004fd5782518051620004ec9184916020909101906200041c565b5091602001919060010190620004cc565b50620004a792915062000522565b5b80821115620004a757600081556001016200050c565b80821115620004a757600062000539828262000543565b5060010162000522565b5080546200055190620007e7565b6000825580601f1062000562575050565b601f0160209004906000526020600020908101906200058291906200050b565b50565b6000815160005b81811015620005a857602081850181015186830152016200058c565b81811115620005b8576000828601525b509290920192915050565b7f3c73766720786d6c6e733d27687474703a2f2f7777772e77332e6f72672f323081527f30302f737667272076696577426f783d27302030200000000000000000000000602082015260006200061d603583018762000585565b600160fd1b815262000633600182018762000585565b90507f27207072657365727665417370656374526174696f3d27784d6964594d69642081526536b2b2ba139f60d11b60208201526c3c726563742077696474683d2760981b60268201526200068c603382018662000585565b90506927206865696768743d2760b01b8152620006ad600a82018562000585565b7f272066696c6c3d272331433143314327202f3e000000000000000000000000008152601301979650505050505050565b600060208284031215620006f157600080fd5b81516001600160401b03811681146200070957600080fd5b9392505050565b634e487b7160e01b600052601160045260246000fd5b6000600182016200073b576200073b62000710565b5060010190565b634e487b7160e01b600052601260045260246000fd5b6000826200076a576200076a62000742565b500490565b634e487b7160e01b600052604160045260246000fd5b6000828210156200079a576200079a62000710565b500390565b600082620007b157620007b162000742565b500690565b60008219821115620007cc57620007cc62000710565b500190565b634e487b7160e01b600052603260045260246000fd5b600181811c90821680620007fc57607f821691505b6020821081036200081d57634e487b7160e01b600052602260045260246000fd5b50919050565b6080516124496200084660003960008181610647015261068901526124496000f3fe608060405234801561001057600080fd5b506004361061014d5760003560e01c80636352211e116100c3578063a22cb4651161007c578063a22cb465146102aa578063b0554ca3146102bd578063b88d4fde146102d0578063c87b56dd146102e3578063e985e9c5146102f6578063f6eaffc81461033257600080fd5b80636352211e14610237578063637c43201461024a57806370a0823114610273578063788fc5d41461028657806395d89b41146102995780639ededf77146102a157600080fd5b806314f710fe1161011557806314f710fe146101e65780631fe543e3146101ee57806323b872dd14610201578063301cc9091461021457806342842e0e1461021c578063489187e81461022f57600080fd5b806301ffc9a71461015257806306fdde031461017a578063081812fc1461018f578063095ea7b3146101ba5780630ef26743146101cf575b600080fd5b610165610160366004611981565b610345565b60405190151581526020015b60405180910390f35b610182610397565b60405161017191906119f6565b6101a261019d366004611a09565b610429565b6040516001600160a01b039091168152602001610171565b6101cd6101c8366004611a3e565b610450565b005b6101d860105481565b604051908152602001610171565b6101cd61056a565b6101cd6101fc366004611aaf565b61063c565b6101cd61020f366004611b61565b6106c4565b6101cd6106f5565b6101cd61022a366004611b61565b6107b5565b6101826107d0565b6101a2610245366004611a09565b610889565b6101a2610258366004611a09565b600e602052600090815260409020546001600160a01b031681565b6101d8610281366004611b9d565b6108e9565b6101cd610294366004611bb8565b61096f565b6101826109a2565b6101d8600f5481565b6101cd6102b8366004611bde565b6109b1565b6101cd6102cb366004611c1a565b6109bc565b6101cd6102de366004611c3c565b610a3f565b6101826102f1366004611a09565b610a77565b610165610304366004611cfc565b6001600160a01b03918216600090815260056020908152604080832093909416825291909152205460ff1690565b6101d8610340366004611a09565b610a82565b60006001600160e01b031982166380ac58cd60e01b148061037657506001600160e01b03198216635b5e139f60e01b145b8061039157506301ffc9a760e01b6001600160e01b03198316145b92915050565b6060600080546103a690611d2f565b80601f01602080910402602001604051908101604052809291908181526020018280546103d290611d2f565b801561041f5780601f106103f45761010080835404028352916020019161041f565b820191906000526020600020905b81548152906001019060200180831161040257829003601f168201915b5050505050905090565b600061043482610bac565b506000908152600460205260409020546001600160a01b031690565b600061045b82610889565b9050806001600160a01b0316836001600160a01b0316036104cd5760405162461bcd60e51b815260206004820152602160248201527f4552433732313a20617070726f76616c20746f2063757272656e74206f776e656044820152603960f91b60648201526084015b60405180910390fd5b336001600160a01b03821614806104e957506104e98133610304565b61055b5760405162461bcd60e51b815260206004820152603d60248201527f4552433732313a20617070726f76652063616c6c6572206973206e6f7420746f60448201527f6b656e206f776e6572206f7220617070726f76656420666f7220616c6c00000060648201526084016104c4565b6105658383610c0e565b505050565b600d546001600160a01b0316331461058157600080fd5b600d54610598906001600160a01b03166000610c7c565b60006012601460136040516020016105b293929190611e02565b60408051601f1981840301815291905280519091506105d8906011906020840190611898565b50600061060b6105e783610c96565b6040516020016105f79190611e5f565b604051602081830303815290604052610c96565b90506000816040516020016106209190611f10565b6040516020818303038152906040529050610565600082610de9565b336001600160a01b037f000000000000000000000000000000000000000000000000000000000000000016146106b65760405163073e64fd60e21b81523360048201526001600160a01b037f00000000000000000000000000000000000000000000000000000000000000001660248201526044016104c4565b6106c08282610e83565b5050565b6106ce3382610f33565b6106ea5760405162461bcd60e51b81526004016104c490611f55565b610565838383610fb1565b600754600954600a546040516305d3b1d360e41b81526004810192909252600160a01b830467ffffffffffffffff166024830152640100000000810461ffff16604483015263ffffffff808216606484015266010000000000009091041660848201526001600160a01b0390911690635d3b1d309060a4016020604051808303816000875af115801561078c573d6000803e3d6000fd5b505050506040513d601f19601f820116820180604052508101906107b09190611fa2565b600c55565b61056583838360405180602001604052806000815250610a3f565b6060610865601180546107e290611d2f565b80601f016020809104026020016040519081016040528092919081815260200182805461080e90611d2f565b801561085b5780601f106108305761010080835404028352916020019161085b565b820191906000526020600020905b81548152906001019060200180831161083e57829003601f168201915b5050505050610c96565b6040516020016108759190611fbb565b604051602081830303815290604052905090565b6000818152600260205260408120546001600160a01b0316806103915760405162461bcd60e51b8152602060048201526018602482015277115490cdcc8c4e881a5b9d985b1a59081d1bdad95b88125160421b60448201526064016104c4565b60006001600160a01b0382166109535760405162461bcd60e51b815260206004820152602960248201527f4552433732313a2061646472657373207a65726f206973206e6f7420612076616044820152683634b21037bbb732b960b91b60648201526084016104c4565b506001600160a01b031660009081526003602052604090205490565b600d546001600160a01b0316331461098657600080fd5b600a805463ffffffff191663ffffffff92909216919091179055565b6060600180546103a690611d2f565b6106c0338383611157565b600d546001600160a01b031633146109d357600080fd5b6040805160028082526060820183526000926020830190803683370190505090508281600081518110610a0857610a08612000565b6020026020010181815250508181600181518110610a2857610a28612000565b602002602001018181525050610565607b82610e83565b610a493383610f33565b610a655760405162461bcd60e51b81526004016104c490611f55565b610a7184848484611225565b50505050565b606061039182611258565b600b8181548110610a9257600080fd5b600091825260209091200154905081565b606081600003610aca5750506040805180820190915260018152600360fc1b602082015290565b8160005b8115610af45780610ade8161202c565b9150610aed9050600a8361205b565b9150610ace565b60008167ffffffffffffffff811115610b0f57610b0f611a68565b6040519080825280601f01601f191660200182016040528015610b39576020820181803683370190505b5090505b8415610ba457610b4e60018361206f565b9150610b5b600a86612086565b610b6690603061209a565b60f81b818381518110610b7b57610b7b612000565b60200101906001600160f81b031916908160001a905350610b9d600a8661205b565b9450610b3d565b949350505050565b6000818152600260205260409020546001600160a01b0316610c0b5760405162461bcd60e51b8152602060048201526018602482015277115490cdcc8c4e881a5b9d985b1a59081d1bdad95b88125160421b60448201526064016104c4565b50565b600081815260046020526040902080546001600160a01b0319166001600160a01b0384169081179091558190610c4382610889565b6001600160a01b03167f8c5be1e5ebec7d5bd14f71427d1e84f3dd0314c0f7b2291e5b200ac8c7c3b92560405160405180910390a45050565b6106c0828260405180602001604052806000815250611360565b60608151600003610cb557505060408051602081019091526000815290565b60006040518060600160405280604081526020016123fd6040913990506000600384516002610ce4919061209a565b610cee919061205b565b610cf99060046120b2565b67ffffffffffffffff811115610d1157610d11611a68565b6040519080825280601f01601f191660200182016040528015610d3b576020820181803683370190505b509050600182016020820185865187015b80821015610da7576003820191508151603f8160121c168501518453600184019350603f81600c1c168501518453600184019350603f8160061c168501518453600184019350603f8116850151845350600183019250610d4c565b5050600386510660018114610dc35760028114610dd657610dde565b603d6001830353603d6002830353610dde565b603d60018303535b509195945050505050565b6000828152600260205260409020546001600160a01b0316610e645760405162461bcd60e51b815260206004820152602e60248201527f45524337323155524953746f726167653a2055524920736574206f66206e6f6e60448201526d32bc34b9ba32b73a103a37b5b2b760911b60648201526084016104c4565b6000828152600660209081526040909120825161056592840190611898565b8051610e9690600b90602084019061191c565b50610ed581600081518110610ead57610ead612000565b602002602001015182600181518110610ec857610ec8612000565b6020026020010151611393565b7f01c8bd4e8ad3259729870d1aed76771590a5e8e803a5511f47f874a1a252f287604051610f279060208082526010908201526f13995dc814dc1bdd0810db185a5b595960821b604082015260600190565b60405180910390a15050565b600080610f3f83610889565b9050806001600160a01b0316846001600160a01b03161480610f8657506001600160a01b0380821660009081526005602090815260408083209388168352929052205460ff165b80610ba45750836001600160a01b0316610f9f84610429565b6001600160a01b031614949350505050565b826001600160a01b0316610fc482610889565b6001600160a01b031614610fea5760405162461bcd60e51b81526004016104c4906120d1565b6001600160a01b03821661104c5760405162461bcd60e51b8152602060048201526024808201527f4552433732313a207472616e7366657220746f20746865207a65726f206164646044820152637265737360e01b60648201526084016104c4565b826001600160a01b031661105f82610889565b6001600160a01b0316146110855760405162461bcd60e51b81526004016104c4906120d1565b600081815260046020908152604080832080546001600160a01b03191690556001600160a01b0386168352600390915281208054600192906110c890849061206f565b90915550506001600160a01b03821660009081526003602052604081208054600192906110f690849061209a565b909155505060008181526002602052604080822080546001600160a01b0319166001600160a01b0386811691821790925591518493918716917fddf252ad1be2c89b69c2b068fc378daa952ba7f163c4a11628f55a4df523b3ef91a4505050565b816001600160a01b0316836001600160a01b0316036111b85760405162461bcd60e51b815260206004820152601960248201527f4552433732313a20617070726f766520746f2063616c6c65720000000000000060448201526064016104c4565b6001600160a01b03838116600081815260056020908152604080832094871680845294825291829020805460ff191686151590811790915591519182527f17307eab39ab6107e8899845ad3d59bd9653f200f220920489ca2b5937696c31910160405180910390a3505050565b611230848484610fb1565b61123c8484848461157c565b610a715760405162461bcd60e51b81526004016104c490612116565b606061126382610bac565b6000828152600660205260408120805461127c90611d2f565b80601f01602080910402602001604051908101604052809291908181526020018280546112a890611d2f565b80156112f55780601f106112ca576101008083540402835291602001916112f5565b820191906000526020600020905b8154815290600101906020018083116112d857829003601f168201915b50505050509050600061131360408051602081019091526000815290565b90508051600003611325575092915050565b81511561135757808260405160200161133f929190612168565b60405160208183030381529060405292505050919050565b610ba48461167d565b61136a83836116f1565b611377600084848461157c565b6105655760405162461bcd60e51b81526004016104c490612116565b60006113a0600383612086565b90506000816000036113b45750600e6113c0565b816001036113c0575060035b816002036114555760146113e0600f54866113db9190612086565b610aa3565b6113f1601054876113db9190612086565b60166113fe600389612086565b8154811061140e5761140e612000565b9060005260206000200160405160200161142b9493929190612197565b6040516020818303038152906040526014908051906020019061144f929190611898565b506114e3565b6014611468600f54866113db9190612086565b611479601054876113db9190612086565b61148284610aa3565b601661148f60038a612086565b8154811061149f5761149f612000565b906000526020600020016040516020016114bd959493929190612250565b604051602081830303815290604052601490805190602001906114e1929190611898565b505b60006012601460136040516020016114fd93929190611e02565b60408051601f198184030181529190528051909150611523906011906020840190611898565b50600061154261153283610c96565b6040516020016105f7919061231a565b90506000816040516020016115579190611f10565b6040516020818303038152906040529050611573600082610de9565b50505050505050565b60006001600160a01b0384163b1561167257604051630a85bd0160e11b81526001600160a01b0385169063150b7a02906115c09033908990889088906004016123a2565b6020604051808303816000875af19250505080156115fb575060408051601f3d908101601f191682019092526115f8918101906123df565b60015b611658573d808015611629576040519150601f19603f3d011682016040523d82523d6000602084013e61162e565b606091505b5080516000036116505760405162461bcd60e51b81526004016104c490612116565b805181602001fd5b6001600160e01b031916630a85bd0160e11b149050610ba4565b506001949350505050565b606061168882610bac565b600061169f60408051602081019091526000815290565b905060008151116116bf57604051806020016040528060008152506116ea565b806116c984610aa3565b6040516020016116da929190612168565b6040516020818303038152906040525b9392505050565b6001600160a01b0382166117475760405162461bcd60e51b815260206004820181905260248201527f4552433732313a206d696e7420746f20746865207a65726f206164647265737360448201526064016104c4565b6000818152600260205260409020546001600160a01b0316156117ac5760405162461bcd60e51b815260206004820152601c60248201527f4552433732313a20746f6b656e20616c7265616479206d696e7465640000000060448201526064016104c4565b6000818152600260205260409020546001600160a01b0316156118115760405162461bcd60e51b815260206004820152601c60248201527f4552433732313a20746f6b656e20616c7265616479206d696e7465640000000060448201526064016104c4565b6001600160a01b038216600090815260036020526040812080546001929061183a90849061209a565b909155505060008181526002602052604080822080546001600160a01b0319166001600160a01b03861690811790915590518392907fddf252ad1be2c89b69c2b068fc378daa952ba7f163c4a11628f55a4df523b3ef908290a45050565b8280546118a490611d2f565b90600052602060002090601f0160209004810192826118c6576000855561190c565b82601f106118df57805160ff191683800117855561190c565b8280016001018555821561190c579182015b8281111561190c5782518255916020019190600101906118f1565b50611918929150611956565b5090565b82805482825590600052602060002090810192821561190c579160200282018281111561190c5782518255916020019190600101906118f1565b5b808211156119185760008155600101611957565b6001600160e01b031981168114610c0b57600080fd5b60006020828403121561199357600080fd5b81356116ea8161196b565b60005b838110156119b95781810151838201526020016119a1565b83811115610a715750506000910152565b600081518084526119e281602086016020860161199e565b601f01601f19169290920160200192915050565b6020815260006116ea60208301846119ca565b600060208284031215611a1b57600080fd5b5035919050565b80356001600160a01b0381168114611a3957600080fd5b919050565b60008060408385031215611a5157600080fd5b611a5a83611a22565b946020939093013593505050565b634e487b7160e01b600052604160045260246000fd5b604051601f8201601f1916810167ffffffffffffffff81118282101715611aa757611aa7611a68565b604052919050565b60008060408385031215611ac257600080fd5b8235915060208084013567ffffffffffffffff80821115611ae257600080fd5b818601915086601f830112611af657600080fd5b813581811115611b0857611b08611a68565b8060051b9150611b19848301611a7e565b8181529183018401918481019089841115611b3357600080fd5b938501935b83851015611b5157843582529385019390850190611b38565b8096505050505050509250929050565b600080600060608486031215611b7657600080fd5b611b7f84611a22565b9250611b8d60208501611a22565b9150604084013590509250925092565b600060208284031215611baf57600080fd5b6116ea82611a22565b600060208284031215611bca57600080fd5b813563ffffffff811681146116ea57600080fd5b60008060408385031215611bf157600080fd5b611bfa83611a22565b915060208301358015158114611c0f57600080fd5b809150509250929050565b60008060408385031215611c2d57600080fd5b50508035926020909101359150565b60008060008060808587031215611c5257600080fd5b611c5b85611a22565b93506020611c6a818701611a22565b935060408601359250606086013567ffffffffffffffff80821115611c8e57600080fd5b818801915088601f830112611ca257600080fd5b813581811115611cb457611cb4611a68565b611cc6601f8201601f19168501611a7e565b91508082528984828501011115611cdc57600080fd5b808484018584013760008482840101525080935050505092959194509250565b60008060408385031215611d0f57600080fd5b611d1883611a22565b9150611d2660208401611a22565b90509250929050565b600181811c90821680611d4357607f821691505b602082108103611d6357634e487b7160e01b600052602260045260246000fd5b50919050565b8054600090600181811c9080831680611d8357607f831692505b60208084108203611da457634e487b7160e01b600052602260045260246000fd5b818015611db85760018114611dc957611df6565b60ff19861689528489019650611df6565b60008881526020902060005b86811015611dee5781548b820152908501908301611dd5565b505084890196505b50505050505092915050565b6000611e20611e1a611e148488611d69565b86611d69565b84611d69565b95945050505050565b7f22696d616765223a2022646174613a696d6167652f7376672b786d6c3b626173815263194d8d0b60e21b602082015260240190565b7f7b226e616d65223a2022546865204d6f737420436f6c6c61626f72617469766581526508139195088b60d21b60208201527f226465736372697074696f6e223a2022546865204d6f737420436f6c6c61626f60268201527f726174697665204e465420666f7220536d617274436f6e2032303232222c000060468201526000611eeb60648301611e29565b8351611efb81836020880161199e565b61227d60f01b91019081526002019392505050565b7f646174613a6170706c69636174696f6e2f6a736f6e3b6261736536342c000000815260008251611f4881601d85016020870161199e565b91909101601d0192915050565b6020808252602d908201527f4552433732313a2063616c6c6572206973206e6f7420746f6b656e206f776e6560408201526c1c881bdc88185c1c1c9bdd9959609a1b606082015260800190565b600060208284031215611fb457600080fd5b5051919050565b7f646174613a696d6167652f7376672b786d6c3b6261736536342c000000000000815260008251611ff381601a85016020870161199e565b91909101601a0192915050565b634e487b7160e01b600052603260045260246000fd5b634e487b7160e01b600052601160045260246000fd5b60006001820161203e5761203e612016565b5060010190565b634e487b7160e01b600052601260045260246000fd5b60008261206a5761206a612045565b500490565b60008282101561208157612081612016565b500390565b60008261209557612095612045565b500690565b600082198211156120ad576120ad612016565b500190565b60008160001904831182151516156120cc576120cc612016565b500290565b60208082526025908201527f4552433732313a207472616e736665722066726f6d20696e636f72726563742060408201526437bbb732b960d91b606082015260800190565b60208082526032908201527f4552433732313a207472616e7366657220746f206e6f6e20455243373231526560408201527131b2b4bb32b91034b6b83632b6b2b73a32b960711b606082015260800190565b6000835161217a81846020880161199e565b83519083019061218e81836020880161199e565b01949350505050565b60006121a38287611d69565b6b3c636972636c652063783d2760a01b815285516121c881600c840160208a0161199e565b65272063793d2760d01b600c929091019182015284516121ef81601284016020890161199e565b7f2720723d2737272066696c6c3d276e6f6e6527207374726f6b653d270000000060129290910191820152612227602e820185611d69565b74139039ba3937b5b296bbb4b23a341e93999390179f60591b8152601501979650505050505050565b600061225c8288611d69565b683c7265637420783d2760b81b8152865161227e816009840160208b0161199e565b642720793d2760d81b6009929091019182015285516122a481600e840160208a0161199e565b68272077696474683d2760b81b600e929091019182015284516122ce81601784016020890161199e565b6009818301019150507327206865696768743d273134272066696c6c3d2760601b600e8201526123016022820185611d69565b631390179f60e11b815260040198975050505050505050565b7f7b226e616d65223a202254686520576f726c6473204c617267657374204e4654815261088b60f21b60208201527f226465736372697074696f6e223a202254686520576f726c6473204c6172676560228201527f7374204e465420666f7220536d617274436f6e2032303232222c00000000000060428201526000611eeb605c8301611e29565b6001600160a01b03858116825284166020820152604081018390526080606082018190526000906123d5908301846119ca565b9695505050505050565b6000602082840312156123f157600080fd5b81516116ea8161196b56fe4142434445464748494a4b4c4d4e4f505152535455565758595a6162636465666768696a6b6c6d6e6f707172737475767778797a303132333435363738392b2fa164736f6c634300080d000a",
    "linkReferences": {}
  }
}